:100000000C945F040C947C040C947C040C947C048D
:100010000C947C040C947C040C947C040C947C0460
:100020000C947C040C947C040C946C1C0C94411B6C
:100030000C9494220C947C040C947C040C947C040A
:100040000C947C040C947C040C947C040C947C0430
:100050000C947C040C94F6210C947C040C947C0489
:100060000C947C040C947C040C947C040C947C0410
:100070000C947C040C947C040C947C040C947C0400
:100080000C947C040C947C040C947C040C947C04F0
:100090000C947C040C947C040C947C040C947C04E0
:1000A0000C947C040C947C040C947C042A08330883
:1000B00038083D08420847084C08510856085B08B4
:1000C0006008B40578087B087E0881088408B605B6
:1000D00087089D08410941097F097F09C809E80986
:1000E000BC0B150C2A0A160B280B280B360D390DE4
:1000F0003C0D3F0D420D450D480D5F0F640F6E0F17
:10010000620F670F6C0F6A0FD711F1111D125A128F
:100110009B12E612E912EC12EF12F212F512F8122B
:10012000FB12FE120113061309130C1311131613FD
:1001300019131C1307282E28CE292E28CE297628FD
:100140009928CE299729AA29612A612A742A742A12
:100150006A2A742A742A742A612A612A6F2A742AE4
:10016000742A6F2A29002B00E000E1000041000002
:100170001E41140004001D00E00001001F421A008F
:1001800016001B00E200E300204208000700060002
:1001900050002C0021431500090019004F004B00AE
:1001A000224517000A00050000000608230035025A
:1001B00000002B00000019082400010000004C0082
:1001C0000000010025001C000B001100000003537B
:1001D000260018000D00100052004E0027000C00F1
:1001E0000E003600510028002D0012000F003700CD
:1001F0002F002A002E001300330038003000E200E8
:100200002D002E003400E5002E4100000100010009
:1002100001000100010000000100010001000100D7
:100220000100A8000100F400F20001000100AB0091
:100230000100F000F1000100AC00AE000100F5008B
:10024000F3000100AB000C5D0100010001000100A2
:100250000000AC00A800A9000000AA000000AB004C
:1002600001000100000001000000C25C3F0001002D
:1002700001000100000001004000240021001E00D8
:1002800062000D5D4100250022001F000100C55CD9
:1002900042002600230020006300C65C43002502C4
:1002A0002E0231002E000100440045000100010033
:1002B0000100000001000100010001000100000038
:1002C0000100010001000100010001000100010026
:1002D0000100010001002D000100010001000100EA
:1002E00001005700010001000100010001000100B0
:1002F00001000100010001000000010001000100F7
:1003000000000100000001000100010000000100E8
:1003100000000100010001000100010000000100D7
:10032000260236022F022F00F900010027023702B1
:1003300030023000FA002E0001002F000100010001
:100340000100010001003000010001000100010076
:100350000100010001000100010000000100010096
:100360000100010010500000010001000100010027
:10037000010001000100F400F20001000100F5009D
:100380000100F000F1000100F900F4000100F500A7
:10039000F3000100FA00010001000100010001006A
:1003A0000000010001000100000001000000010048
:1003B0000100010000000100000001000100010037
:1003C00001000100000001000100010050000100D7
:1003D000F90001000100520051000100FA00FA008A
:1003E000010001004F0001005000F9000100010070
:1003F0000100520051000100010001000100010054
:100400004F0000000EFFFF0EFFFF0EFFFF0EFFFF6D
:100410000EFFFFECFFFFECFFFFECFFFFECFFFFEC3C
:10042000FFFFECFFFF0EFFFFECFFFFECFFFF0EFFF7
:10043000FFECFFFFECFFFFECFFFFECFFFFECFFFF2B
:1004400069FFFF69FFFF69FFFF69FFFF0EFFFF0EF6
:10045000FFFF0EFFFF0EFFFF0EFFFFECFFFFECFFA5
:10046000FFECFFFFECFFFF0EFFFFECFFFF0EFFFFB7
:10047000ECFFFFECFFFFECFFFFECFFFFECFFFFECFE
:10048000FFFFECFFFFECFFFF69FFFF69FFFF69FF64
:10049000FF69FFFF000000000000000000000000F6
:1004A00000000000000069FFFF69FFFF69FFFF23F4
:1004B000FFFF00000069FFFF69FFFF69FFFF23FFE7
:1004C000FF00000069FFFF69FFFF69FFFF23FFFFD7
:1004D00069FFFF00000023FFFF23FFFF0000000073
:1004E00000000000000000000000000000001FFFEE
:1004F000FFCDFFFF1FFFFF000000000000CDFFFF4A
:10050000CDFFFFCDFFFF0000000000000000000055
:100510000000000000000000F3DEEAF3DEEA000065
:1005200000000000000000F3DEEAF3DEEA00000055
:1005300000000000000086FFD586FFD50000000007
:100540000000000000F3DEEAF3DEEA000000000035
:100550000000000086FFD586FFD5000000000000E7
:100560000000FF0000FF000000000000000000008D
:10057000000000000000000000000000000000007B
:10058000000000000000000000000000000000006B
:10059000000000000000000000000000000000005B
:1005A00000000000000000000000FF0000FF00004D
:1005B000000000000000000000000000000000003B
:1005C000000000000000000000F3DEEA0000000070
:1005D0000000000000F3DEEAF3DEEAF3DEEA0000EA
:1005E000000000000000000000000000001FFFFFEE
:1005F00086FFD586FFD51FFFFF1FFFFF000000000D
:10060000000000000000000000000000000086FF65
:10061000D5F3DEEA86FFD5000000000000F3DEEA35
:10062000F3DEEAF3DEEA0000000000000000000054
:1006300000000000000000000000000000000000BA
:10064000000000000001010101010101010102029D
:100650000202020202020203030303030303030470
:10066000040404040404050505050506060606063B
:10067000070707070708080808090909090A0A0AF5
:100680000B0B0B0C0C0C0D0D0D0E0E0E0F0F0F1097
:100690001011111112121313141415151616171721
:1006A000181819191A1A1B1B1C1D1D1E1E1F20208D
:1006B000212222232424252626272829292A2B2CD7
:1006C0002D2D2E2F30313232333435363738393AFA
:1006D0003B3C3D3E3F404142434445464748494AF2
:1006E0004C4D4E4F50515354555658595A5B5D5EC0
:1006F0005F616264656668696B6C6D6F707273755B
:1007000077787A7B7D7E8082838587888A8C8E8FBE
:1007100091939596989A9C9EA0A2A3A5A7A9ABADEC
:10072000AFB1B3B5B7BABCBEC0C2C4C6C9CBCDCFDA
:10073000D1D4D6D8DBDDDFE2E4E7E9EBEEF0F3F588
:10074000F8FAFDFF05010902A10185020901A100D6
:100750000509190129051500250195057501810275
:100760009501750381010501093009311581257F46
:1007700095027508810609381581257F9501750850
:100780008106050C0A38021581257F9501750881BF
:1007900006C0C005010980A10185031A81002A83D2
:1007A00000160100260300950175108100C0050C9C
:1007B0000901A10185041A01002A9C0216010026E4
:1007C0009C02950175108100C005010906A10185F3
:1007D00005050719E029E715002501950875018130
:1007E000020507190029EF1500250195F075018113
:1007F00002050819012905950575019102950175F4
:10080000039101C005010906A101050719E029E7C7
:100810001500250195087501810295017508810172
:100820000507190029FF150026FF009506750881A8
:1008300000050819012905950575019102950175B5
:10084000039101C009023B00020100A0FA09040063
:1008500000010301010009211101000122400007EC
:1008600005810308000A09040100010300000009D2
:10087000211101000122C0000705820320000A1295
:1008800001100100000008EDFE0713010001020342
:100890000104033000000016034500720067006F7A
:1008A0000064006F007800200045005A0000000836
:1008B000035A0053004100000004030904001124FE
:1008C0001FBECFEFDAE0DEBFCDBF13E0A0E0B1E0A6
:1008D000E2EAF3E602C005900D92A03DB107D9F718
:1008E00026E0A0EDB3E001C01D92A537B207E1F705
:1008F0000E94B21D0C94CF310C9400008F929F92F5
:10090000AF92BF92CF92DF92EF92FF920F931F931D
:10091000CF93DF93CDB7DEB728970FB6F894DEBF3D
:100920000FBECDBFFC01F080118183819481892BA2
:1009300009F4AFC71F3F21F40FEFF01609F4A9C760
:100940006F0185E0DE01119601900D928A95E1F725
:10095000F601228189819A81222349F00E94412453
:10096000082F682F89819A810E94BA2403C00E94AF
:100970008D24082F26E0129FF001112434E5039FF7
:10098000E00DF11D1124EF0DF11DEE0FFF1FEC59CD
:10099000FE4F05911491F60182810930FDE51F0794
:1009A00059F00A302DE5120709F446C0023C3CE537
:1009B000130709F09BC062C0882309F4ECC0909132
:1009C000530581E0890F8770987F853020F4892B4B
:1009D0008093530502C0909353058091530587700F
:1009E000EFEF8E9FC001112495958795959587957A
:1009F0009927909389008093880090938B0080932F
:100A00008A0090938D0080938C0040915305509103
:100A1000540560915505709156058FE090E00E9455
:100A2000C62E609122067091230680912406909133
:100A300025060E94450FAFC0882309F4ACC0809101
:100A4000530583FB222720F991E0922790FB83F93D
:100A500080935305992329F040E060E080E00E94F4
:100A60008918409153055091540560915505709136
:100A700056058FE090E00E94C62E8DC0882309F4B1
:100A800008C790911701809153059F3F59F4109228
:100A900017018F7E8093530540E060E080E00E9464
:100AA000891806C09FEF90931701806180935305CA
:100AB000409153055091540560915505709156052C
:100AC0008FE090E028960FB6F894DEBF0FBECDBF42
:100AD000DF91CF911F910F91FF90EF90DF90CF901A
:100AE000BF90AF909F908F900C94C62E0C30FDE578
:100AF0001F0769F00D302DE51207A9F00B303DE519
:100B0000130709F048C0882309F4C3C62DC0882301
:100B100009F4BFC681E00E94951810926B061092EE
:100B20006C068FEF0BC0882309F4B3C681E00E94E6
:100B3000951810926B0610926C0681E880936D06F2
:100B400028960FB6F894DEBF0FBECDBFDF91CF91D0
:100B50001F910F91FF90EF90DF90CF90BF90AF90DB
:100B60009F908F900C948D1881E001C088E12896A9
:100B70000FB6F894DEBF0FBECDBFDF91CF911F91AE
:100B80000F91FF90EF90DF90CF90BF90AF909F902C
:100B90008F900C949518F6018281882319F1033EF9
:100BA0008CE51807C1F050F4013EECE51E0781F01A
:100BB000023EFCE51F07B1F481E010C0043E2CE5C5
:100BC000120759F0053E3CE5130761F484E006C0C6
:100BD00010924F0505C082E001C083E080934F056D
:100BE0000E946C1A17FF71C0F6018281882309F4F4
:100BF0006CC0809129068093D003109229068091C1
:100C00004F05813071F048F08230C1F08430E1F45A
:100C100086EE0E94032D88E115C082EE0E94162DFB
:100C200013C083E00E947D2C88E10E94162D88E18C
:100C30000E949C2C83E00E94722C06C082EE0E94CF
:100C4000162D87E50E94032D8FE39CE90197F1F7AC
:100C500000C000007801E894F7F85CE0A52EB12C04
:100C6000C7010A2C02C0969587950A94E2F7282FAF
:100C70002F7041F0822F90E02A3010F44D9604C07E
:100C8000069702C087E290E00E94032D94E0A91A23
:100C9000B108ECEFAE16EFEFBE0611F780914F05ED
:100CA000813039F040F0823031F0843051F488E204
:100CB00006C08CE204C082EE0E949C2C02C00E94FE
:100CC000032D8091D00380932906033FFCE51F0785
:100CD000B1F180F4083D3CE51307C9F0093D8CE50E
:100CE0001807C9F1073D9CE51907C1F526E241EE59
:100CF00061EE10C0053FECE51E0749F120F1063F0B
:100D00002CE5120759F527E245EE66EE03C027E20F
:100D100045EE65EEC60128960FB6F894DEBF0FBE0D
:100D2000CDBFDF91CF911F910F91FF90EF90DF909A
:100D3000CF90BF90AF909F908F900C94B51A26E201
:100D400041EE60EEE7CF27E245EE64EEE3CF26E228
:100D500041EE62EEDFCF28E241E0DBCFF601928187
:100D6000992309F44AC11092D1030230FCE51F0710
:100D700008F42DC106312CE5120738F098012A5FDE
:100D80003C452730310508F022C10E942023909372
:100D90006605809365050F303CE5130709F4CFC065
:100DA00008F042C008309CE5190709F4A8C0F0F427
:100DB0000430FCE51F0709F490C068F402303CE5FC
:100DC000130709F486C003301C4509F0DFC0809189
:100DD00065058260D9C006309CE5190709F487C013
:100DE00008F089C0809165058860CEC00B30FCE5B5
:100DF0001F0709F495C068F409303CE5130709F4AE
:100E000082C00A301C4509F0C1C080916505886028
:100E100080C00D309CE5190709F486C008F087C032
:100E2000809165058D7FB0C00A3FFCE51F0709F47E
:100E300057C050F502313CE5130709F488C068F447
:100E400000319CE5190709F47EC001311C4509F009
:100E50009DC0809165058F7B97C00431FCE51F071D
:100E600009F487C008F479C005311C4509F08EC02B
:100E70008091650582FB222720F991E0922790FB63
:100E800082F990FB83F980C00D3F8CE5180709F4C7
:100E900052C058F40B3FECE51E0729F10C3F1C45EE
:100EA00009F074C08091660560C00F3F2CE5120701
:100EB00009F458C080F101151D4509F067C0809103
:100EC0006605982F909591708E7F892B90FB81F904
:100ED0004DC080916505816057C08091650519C03E
:100EE000809166051BC08091660582603FC080913D
:100EF0006505806149C080916505806245C080912B
:100F00006505806441C00E945D2C80916505806804
:100F10003BC0846039C0809166058260816026C0D4
:100F2000809165058E7F30C08091650519C08091E4
:100F30006505877F29C0809166058D7F17C08091E8
:100F400065058F7E21C0809165058F7D1DC00E9443
:100F50005D2C809165058F7717C080916505877F2F
:100F60008B7F12C0809166058D7F8E7F8093660592
:100F70000DC00E945D2C8091650587FB222720F91A
:100F800091E0922790FB87F9809365056091650554
:100F90001091660584E090E00E94B42E612F81E2FA
:100FA00090E00E94B42E28960FB6F894DEBF0FBED4
:100FB000CDBFDF91CF911F910F91FF90EF90DF9008
:100FC000CF90BF90AF909F908F900C945D2C8091AC
:100FD00029060631FCE51F0789F58A7A91E009F4B4
:100FE00090E09093D203911102C069E201C065E3E1
:100FF00083E995E00E94E8220DC006311C4509F006
:10100000F7C08091D203811142C469E283E995E07F
:101010000E94BD2228960FB6F894DEBF0FBECDBF4A
:10102000DF91CF911F910F91FF90EF90DF90CF90C4
:10103000BF90AF909F908F900C94FB238272F80129
:10104000E25CFC45E431F10508F079C0EA5AFF4F53
:101050000C949C3090916A0681E0892780936A06FF
:10106000109206016DCD4BEE58E161E079E12CC0A4
:1010700041E059E16BEE78E127C04DED58E164EEB7
:1010800078E122C044EE58E16DED78E11DC049ECF5
:1010900058E163ED78E118C043ED58E169EC78E17F
:1010A00013C045EB58E16FEB78E10EC04FEB58E110
:1010B00065EB78E109C041EA58E16BEA78E104C0E8
:1010C0004BEA58E161EA78E128960FB6F894DEBF62
:1010D0000FBECDBFDF91CF911F910F91FF90EF9089
:1010E000DF90CF90BF90AF909F908F900C94761828
:1010F00065E082E00EC068E086E00BC06EE089E04B
:1011000008C064E18FE005C067E185E102C062E2EA
:1011100089E128960FB6F894DEBF0FBECDBFDF91F0
:10112000CF911F910F91FF90EF90DF90CF90BF90E4
:10113000AF909F908F900C94171983E218CD0115F2
:10114000ECE51E07C1F00E3D1C4509F051C0289684
:101150000FB6F894DEBF0FBECDBFDF91CF911F91C8
:101160000F91FF90EF90DF90CF90BF90AF909F9046
:101170008F900C9431230E945D2C0FEF14E32CE030
:10118000015010402040E1F700C00000F89481E0D9
:101190008093E00080E28093D8001092C9008FE134
:1011A0009EE40197F1F700C000001DBA109268009C
:1011B0001CBC10BE1FBA10927A0010926E001092E2
:1011C0006F0010927100109272001092C90010927C
:1011D000BC0014B817B81AB81DB810BA1092BC00E9
:1011E00015B818B81BB81EB811BA0C94003F51C3FB
:1011F000F60100811181992349F0C8010E94412420
:10120000F82E682FC8010E94BA2404C0C8010E94A9
:101210008D24F82EB8018F2D0E949B0D182F382F8A
:10122000F601258122952F70028101111092280666
:10123000809126068770A9F0002399F080E2810F43
:10124000883078F082E02F8338879E830E941B25A8
:10125000809126068770EE24E3942F8138859E8145
:101260008111E12CA92EA2944FE0A422B12CFCE024
:10127000AF16B10408F0D9C2F501E659FF4F0C943E
:101280009C30892F807F9F70F92E882319F0F2946B
:1012900080EFF8220023B9F0FF2009F457C280E262
:1012A000810F883010F0311106C090912906F92A7B
:1012B000F092290605C090912806F92AF092280696
:1012C0000E94FB2343C2812F38870E949C2C3885C3
:1012D000FF2009F4AAC2105EF094183010F031110A
:1012E00006C090912906F922F092290605C0909136
:1012F0002806F922F09228060E94FB2396C2492F65
:10130000407F892F8F70403211F08295807F332388
:1013100019F03130E9F025C0002381F030912A0620
:10132000222351F0213041F4982F932B391709F4DF
:101330007CC290932A0679C2832B17C0222319F00E
:10134000213009F472C28E830E94F5238E811DC064
:10135000002321F0223008F068C207C0211165C2C5
:1013600014C0002329F02111F1C10E94922C5DC20A
:10137000222359F0193309F0FBC10FEF27EE33E0B8
:10138000015020403040E1F7F1C10E94872C4DC24E
:10139000292F26952695237030E02115310521F05F
:1013A0002130310559F041C2002319F0812F93708B
:1013B00002C080E090E00E94541840C2002319F05F
:1013C000812F937002C080E090E00E943E1836C2E8
:1013D0000023F9F0153F51F0163F71F0143FA9F4C6
:1013E0008091D3039091D40381600BC08091D3038B
:1013F0009091D403826005C08091D3039091D4036F
:1014000084609093D4038093D303812F0E948E2114
:101410001EC0153F51F0163F71F0143FA9F48091A2
:10142000D3039091D4038E7F0BC08091D30390910E
:10143000D4038D7F05C08091D3039091D4038B7F1B
:101440009093D4038093D303812F0E94C4200E94E1
:101450007E22F4C1892F837009F070C00111ECC1A4
:10146000812F829586958770880F880F412F4F7046
:1014700050E060E070E04A015B01082E04C0880C77
:10148000991CAA1CBB1C0A94D2F714FF12C00FE0CF
:1014900010E020E030E004C0000F111F221F331FB6
:1014A0008A95D2F7B901A80140955095609570953D
:1014B00003C040E050E0BA01969596959370892F4D
:1014C00090E08230910529F183309105C9F00091B7
:1014D0002B0610912C0620912D0630912E06019797
:1014E00059F0482959296A297B29CB01BA0160237F
:1014F0007123822393230AC0802A912AA22AB32A25
:10150000CB01BA01682979298A299B290E9455258E
:1015100093C1482959296A297B2980912B069091EA
:101520002C06A0912D06B0912E068A019B0108275A
:1015300019272A273B27C901B801E8CF002319F052
:10154000892F817001C08695882309F475C1812F88
:10155000829586958770880F880F412F4F7050E0D5
:1015600060E070E04A015B01082E04C0880C991C01
:10157000AA1CBB1C0A94D2F714FF12C00FE010E0A3
:1015800020E030E004C0000F111F221F331F8A9596
:10159000D2F7B901A801409550956095709503C0A8
:1015A00040E050E0BA01969596959370892F90E0AF
:1015B00082309105E9F08330910579F1009122069E
:1015C000109123062091240630912506019759F0A9
:1015D000482959296A297B29CB01BA016023712343
:1015E0008223932320C0802A912AA22AB32A15C0DD
:1015F000482959296A297B2980912206909123063E
:10160000A0912406B09125068A019B01082719277D
:101610002A273B27C901B80106C0CB01BA016829B6
:1016200079298A299B290E94EA2406C19F70F92EF4
:10163000002339F0892F0E943425812F0E94922C9B
:10164000FBC0812F0E94872C8F2D0E94F624F4C0AE
:10165000812F323FC9F128F4303F49F0313F79F111
:1016600070C0333FC1F1343F09F44DC06AC000235C
:1016700011F12111DAC0292F2F7181E090E0A0E053
:10168000B0E0AC01BD0104C0440F551F661F771FB9
:101690002A95D2F78091220690912306A0912406E4
:1016A000B09125068A019B01082719272A273B2785
:1016B000C901B80125C0223008F0B7C0DCCF002333
:1016C00029F0892F8F712EC00023D9F3892F8F71B4
:1016D0000E94F624AAC0002381F0292F2F7181E0F7
:1016E00090E0A0E0B0E0BC01CD0104C0660F771F20
:1016F000881F991F2A95D2F703C060E070E0CB01E4
:101700000E94EA2492C0002381F0192F1F71812FBB
:101710000E94342528E0129FC00111248360809329
:101720002606812F0E94342580C081E02F830E94ED
:101730001B252F81223008F478C082E00E941B25EF
:1017400074C0002339F0222309F4BBCF812F0E94FB
:10175000162D6BC0222309F4B9CF893349F43FEF2A
:1017600087EE93E0315080409040E1F700C00000E8
:10177000812F0E949C2C59C0323FB1F028F4303F99
:1017800049F0313FF9F028C0343FB9F058F0353F07
:1017900071F022C0002309F451C09091700681E0DD
:1017A000892708C081E008270093700647C001110F
:1017B00045C081E08093700641C001113FC0109286
:1017C00070063CC0002329F080916F06882329F31E
:1017D00029C0222311F332C080916F062223C1F069
:1017E000882341F09091700681E0892780937006EC
:1017F00010926F06812F002319F00E94162D1EC033
:101800000E949C2C86E0F60111928A95E9F716C099
:101810008823A1F0011112C09091700681E0892700
:101820008093700610926F0609C0F8E0AF1AB108F5
:1018300004E0A016B10410F40E946A18EE2049F1E9
:101840008091260680FD25C0F6011282859585953A
:1018500085950E943425C6010E947E04809126064B
:1018600085958595859528960FB6F894DEBF0FBEB1
:10187000CDBFDF91CF911F910F91FF90EF90DF903F
:10188000CF90BF90AF909F908F900C94F62465E31B
:10189000BDCB28960FB6F894DEBF0FBECDBFDF914B
:1018A000CF911F910F91FF90EF90DF90CF90BF905D
:1018B000AF909F908F9008953F924F925F926F925A
:1018C0007F928F929F92AF92BF92CF92DF92EF92D0
:1018D000FF920F931F93CF93DF9320E9289F70010E
:1018E000299FF00C1124C0E0D0E000E010E0670177
:1018F0008FEFC81AD80A570182E0A80EB11CFE016A
:10190000EE0DFF1DEC5FFB4F6491F601EC0FFD1F28
:10191000EC5FFB4F7491F501EC0FFD1FEC5FFB4F8B
:101920008491611107C0711105C0811103C020E0CD
:1019300040E042C00E94D819962E372E882E609122
:101940006D0670E080E090E00E94792F20E030E0AA
:101950004FE753E40E94D82E2B013C01682D70E024
:1019600080E090E00E947B2F9B01AC01C301B2019B
:101970000E9407300E944A2F862E692D70E080E079
:1019800090E00E947B2F9B01AC01C301B2010E9439
:1019900007300E944A2F962E632D70E080E090E081
:1019A0000E947B2F9B01AC01C301B2010E94073052
:1019B0000E944A2F282D492DC8010E948B180F5FC5
:1019C0001F4F2396C039D10509F099CFDF91CF91F0
:1019D0001F910F91FF90EF90DF90CF90BF90AF904D
:1019E0009F908F907F906F905F904F903F90089561
:1019F000CF93E82F873080F58091090190910A01FB
:101A0000892B09F047C0CE2F64E670E080E40E9485
:101A1000A92D90930A0180930901892BD1F464E6E2
:101A200070E082E10E94002E90930A0180930901E8
:101A3000892B79F481E090E001C0880FCA95EAF71C
:101A400064E670E080950E94002E90930A018093D6
:101A50000901CF910C947C2E90E0FC013797E73080
:101A6000F105C0F4EA58FF4F0C949C30209A289856
:101A700011C0219A29980EC0229A2A980BC0239A45
:101A80002B9808C0529A5A9805C0539A5B9802C086
:101A90003E9A4698CF910895CF93873008F03FC083
:101AA0008091090190910A01892B09F041C064E6F7
:101AB00070E080E40E94A92D90930A0180930901AF
:101AC000892B11F0C0E027C064E670E083E10E943A
:101AD000002E90930A0180930901892B99F764E6FF
:101AE00070E081E40E94A92D90930A01809309017E
:101AF000892B41F784E690E00E94302E97FF05C0C5
:101B000090930A0180930901DDCFC82FC0951092F0
:101B10000A01109209010E947C2E8C2F0AC09FB1ED
:101B20008FB1807F869586959370892B809501C0B3
:101B300080E0CF910895CF93DF9326E0729FF0016C
:101B4000112444E5849FE00DF11D1124E60FF11DE1
:101B5000EE0FFF1FEC59FE4FC591D491CE01C23854
:101B6000D10569F1B0F4C133D10509F475C048F469
:101B7000C932D10509F469C0CA32D10509F473C06C
:101B800085C0C533D10509F459C0C933D105B9F0B1
:101B90007DC0C33ED10571F138F4C03ED105B1F02E
:101BA000C23ED10511F172C0C63ED105B9F1C73EA2
:101BB000D105C9F1C43ED10509F068C024C04091E7
:101BC000650540FD5DC041FD5BC060C020916505BD
:101BD00020FD50C02091660520FF54C1809165050D
:101BE00084FD4EC183EE90E04DC12091650522FF3A
:101BF00049C1F4CF8091650582FD3FC080916605A3
:101C000080FD3EC0EBCF2091660521FF3BC1809156
:101C1000650584FD35C187EE90E034C120916505EE
:101C200023FF30C1F4CF8091650583FD2CC08091E6
:101C3000660581FFECCF84EE90E024C1209165051C
:101C400025FF20C189E290E01DC12091650525FF97
:101C500019C185E390E016C12091650526FF12C1E8
:101C60008AE290E00FC12091650526FF0BC181E358
:101C700090E008C189E390E005C182EE90E002C1E6
:101C800080EE90E0FFC086EE90E0FCC0C11552E50A
:101C9000D50708F074C0C11521E5D20728F09C2FA4
:101CA0008827816F906AEEC0C83ED10570F5C03EAE
:101CB000D10508F0E7C0C83AD105B8F4C53AD10556
:101CC00050F08C2F855AE82FF0E0E75EFE4F8081C0
:101CD00090E09064D7C0C130D10509F4D3C008F4B6
:101CE000CFC0249708F4CCC0CDC0CF3BD10508F0BD
:101CF000C7C08C2F885AE82FF0E0EE0FFF1FE45E7C
:101D0000FE4F808191819464BDC0C11540E2D4072B
:101D100060F4C11551E0D50708F0B4C0C03FD1054B
:101D200008F4AEC0CE019065ADC0C11580E4D807FF
:101D300008F4A6C0C11590E5D90720F4CE019F7024
:101D4000906AA0C04C2F437081E090E002C0880FE1
:101D5000991F4A95E2F79C68AE01F4E056954795C5
:101D6000FA95E1F74370942B2C2F2F70269526952A
:101D700050E2259F90011124822B932B83C0C11523
:101D800026E5D207E8F5C11545E5D40748F08C2FC4
:101D90000E94721A8F7190E0982F8827906272C00B
:101DA000C11554E5D50728F09C2F8827846F906AC9
:101DB00069C08C2F86958695AE0143705527C11555
:101DC000D34578F490E2899F9001112481E090E05E
:101DD00002C0880F991F4A95E2F7822B932B9C68CB
:101DE00051C090E2899F9001112481E090E002C0EF
:101DF000880F991F4A95E2F7822B932B9A6842C06D
:101E0000C1152AE5D20780F5C11549E5D40718F1B7
:101E10008C2F8F700E94721A9E0194E03695279540
:101E20009A95E1F72F7030E0322F22273069A9010F
:101E3000482B0FC0CE0190568115904208F58D2F8A
:101E40008F710E94721A9E01332730628F71A9012F
:101E5000582BCA0117C0C11558E5D50788F09C2F2B
:101E60008827806F906A0EC0C1158BE5D80740F0B7
:101E7000C1159CE5D907F0F6CE019927906602C0FE
:101E800080E090E0DF91CF910895CF92DF92EF92C2
:101E9000FF926B017C010E94A52356985E982598BD
:101EA0002D9826982E9827982F9890E0FC0131972E
:101EB000E730F105A8F4E358FF4F0C949C30259AC5
:101EC0002D9A0EC0259A2D9A269A2E9A09C0259AE7
:101ED0002D9A04C0259A2D9A269A2E9A279A2F9ADF
:101EE000C701B601FF90EF90DF90CF90089580E298
:101EF00090E090930A01809309018091DC038111A5
:101F00000EC00E94A32D81E08093DC032FEF83EDB0
:101F100090E3215080409040E1F700C0000064E66B
:101F200070E080E40E94A92D90930A01809309013A
:101F3000892B09F04EC064E670E080E00E94002E1C
:101F400090930A0180930901892B09F042C064E64D
:101F500070E080E00E94002E90930A0180930901B6
:101F6000892BB9F564E670E08FE30E94002E909310
:101F70000A0180930901892B61F50E947C2E64E699
:101F800070E080E40E94A92D90930A0180930901DA
:101F9000892BF9F464E670E08CE00E94002E9093A7
:101FA0000A0180930901892BA1F464E670E080E0C6
:101FB0000E94002E90930A0180930901892B49F415
:101FC00064E670E08FE30E94002E90930A018093F4
:101FD00009010E947C2E809109010895CF93DF931F
:101FE00056985E9825982D9826982E9827982F9881
:101FF000C8E8D0E08FEF90E099838883AAE8B0E04A
:1020000011969C938E93ECE8F0E091838083259A5F
:102010002D9A2FEF80E792E0215080409040E1F729
:1020200000C00000269A2E9A2FEF80E792E0215000
:1020300080409040E1F700C00000279A2F9A2FEFD0
:1020400080E792E0215080409040E1F700C000001E
:1020500025982D982FEF80E792E021508040904006
:10206000E1F700C0000026982E982FEF80E792E05D
:10207000215080409040E1F700C0000027982F9841
:102080008091530587702FEF829FC0011124959591
:1020900087959595879599279983888311969C9321
:1020A0008E939183808356985E9825982D982698D4
:1020B0002E9827982F98DF91CF91089584B1807F33
:1020C00084B985B1807F85B98AB1837F8AB98BB1A4
:1020D000837F8BB93E984698089580B38C7080BBFF
:1020E00081B3836F81BB08954F925F926F927F920D
:1020F0008F929F92AF92BF92CF92DF92EF92FF9218
:102100000F931F93CF93DF931F92CDB7DEB78091CC
:10211000090190910A01892BA1F08091DB038F5F67
:102120008093DB0381110DC00E94770F90E09093A4
:102130000A0180930901892B21F40E942F190E9422
:10214000EE0F47E5E42E45E0F42E5EE5C52E55E0A2
:10215000D52E5701912C10E007E0090D892D0E9422
:10216000F80C802F0E94F80C892D0E944C0DD5018F
:102170009C91981721F08C938824839401C0812C22
:10218000802F0E944C0DF6019081981719F08083E2
:1021900081E001C080E08829182B0E945E10939492
:1021A000FFEFAF1ABF0A2FEFC21AD20A37E093121D
:1021B000D3CF0E9472226AEF70E00E947430BC019B
:1021C000482F8091D6038823D9F11092D603E0914D
:1021D0004D05F0914E05DF011E9690E08BEF3AEF32
:1021E000A32EB12C20812B3F99F0C22ED12C421767
:1021F00020F09B012C193D0905C095012C193D09C2
:10220000260F371F2E31310514F0808301C091E075
:102210003196EA17FB0731F79093D603111102C0EC
:10222000911110C01092D50360914D0570914E052B
:102230009091D603EAE6F5E080E03EE03E0F32C042
:102240001111F0CF8091D5038111ECCF6091D703AC
:102250007091D8038091D9039091DA030E941C22D7
:102260002FB7F894C0902F06D0903006E09031063A
:10227000F09032062FBFC092D703D092D803E092DD
:10228000D903F092DA03409066065090670660909A
:10229000680670906906AFEF4A165A066A067A0613
:1022A000D1F43AC0D7012D917D015081521749F0E8
:1022B000DB015C915B3F21F44C93208391E001C0F2
:1022C00081E06F5F7F4F31963E13ECCF9093D60342
:1022D0008093D503BBCFAB01BC01662777274A01AA
:1022E0005B0180949094A094B09484149504A60407
:1022F000B70420F48FEF9FEFDC0106C0DB01CA01B9
:10230000840D951DA61DB71D8093660690936706E4
:10231000A0936806B0936906B0909205B11009C009
:1023200090916A06892F837021F0A92EA694A69415
:1023300001C0A12C809106018130A1F038F08230DB
:1023400009F491C1833009F49BC1ABC1109216010D
:10235000C0926206D0926306E0926406F09265062F
:1023600081E08BC180910801A81210C080916A069B
:10237000837090E02091070130E051E040E0821747
:10238000930709F450E0252F342F02C021E030E0FC
:10239000822F8170809318018A2D90E086319105FB
:1023A00008F04FC1FC01EC57FF4F0C949C3090910A
:1023B0001601232B09F445C1F92EFF0CFF0CF90E71
:1023C00005E00F0D013308F000E3F01608F0FAC045
:1023D00020E040E060E08F2D90E00E948B18F394A5
:1023E000F4CF90911601D92EDD0CDD0CD90E05E04D
:1023F0000D0D013308F000E360916B0670916C06DF
:1024000080916D060E94D819F62EE82ED01608F09D
:10241000D9C0ED2DF0E0DF01A259BC4F8C91909115
:102420001701982341F02E2D4F2D672FCF0179836F
:102430000E948B187981D394E9CF80911601982E50
:10244000990C990C980E05E0090D013308F000E392
:10245000D0906C06C0906D0620916E0630E4329FDD
:10246000312D1124901608F0ADC0E92CF12CF701A4
:10247000E259FC4F8081909117019823C9F0F70130
:10248000EE0FFF1FE15FFC4F908192959F7060916E
:102490006B06399F600D11247D2D8C2D39830E9490
:1024A000D819462F282F672FC7010E948B18398112
:1024B0009394D8CF80911601982E990C990C980E70
:1024C00005E0090D013308F000E3D0906C06C090E0
:1024D0006D0620916E0650E4529F512D11249016E6
:1024E00008F070C0E92CF12CF701E259FC4F908103
:1024F000809117018923E9F0F701EE0FFF1FE25FDA
:10250000FC4F6081569FB001112495E07595679549
:102510009A95E1F780916B06680F7D2D8C2D59837C
:102520000E94D819462F282F672FC7010E948B18A9
:1025300059819394D4CF80911601D82EDD0CDD0CF7
:10254000D80E05E00D0D013308F000E3F0906B06A6
:1025500070916C06E0906D0680916E06682F66950E
:1025600066956695809162069091630679830E94D4
:10257000CD190E944B198058982F97FD9195990F6E
:10258000292F3E2D239F212D11246F2D7981822FFC
:102590000E94D819F62EE82ED016A0F4ED2DF0E00A
:1025A000DF01A259BC4F8C9190911701982341F003
:1025B0002E2D4F2D672FCF0179830E948B187981A3
:1025C000D394EACF81E00033E8F13BC083EE94E19D
:1025D0001AC087EB94E117C08CEB95E11FC08DE921
:1025E00095E11CC082E895E11EC087E695E11BC01D
:1025F00085EB94E108C08CEA94E105C083EA94E19C
:1026000002C088E894E10E94A2261CC089E794E1F8
:102610000AC08EE999E102C086E595E10E9446264E
:1026200011C082E495E10E94CA250CC08BE494E1BC
:1026300005C089E194E102C08BED93E10E94692518
:1026400001C080E0909116019F5F90931601811167
:1026500028C082E08093060180911801811121C079
:10266000AA2051F01EC0A092080180916A068370D2
:10267000809307010E940C1683E08093060111C02D
:102680006091620670916306809164069091650680
:102690000E941C226A3171058105910510F010928B
:1026A0000601B1102FC08091920581112BC080913D
:1026B000530583FD27C06091220670912306809107
:1026C0002406909125060E94A523813059F038F008
:1026D000823059F0833071F483E090E008C080E0EC
:1026E00090E005C081E090E002C082E090E00E94AE
:1026F0005C0C08C080911701811104C040E060E0CB
:102700000E948918812F0F90DF91CF911F910F9117
:10271000FF90EF90DF90CF90BF90AF909F908F9001
:102720007F906F905F904F9008958033910540F5B2
:10273000880F991F880F991FFC01EE5AFE4F528196
:102740003381808183707181A82FB0E0E0E98E9F92
:10275000C00111248D509C4FFC01E70FF11DB4976F
:102760006083FC01E50FF11DB4974083830F911D39
:10277000FC01B4972083FD01EF50FC4F81E0808382
:102780000895FF920F931F93CF93DF93182F062F77
:10279000F42EC0E0D0E02F2D402F612FCE010E94FB
:1027A00095132196C033D105B1F7DF91CF911F91D9
:1027B0000F91FF9008950F931F9310E0F801EE0F13
:1027C000FF1FE25FFC4F9081905797FD9195000F9E
:1027D000111FF801E15FFC4FE081F0E0B097DF01ED
:1027E000AA0FBB1F8D010E0F1F1F2003D001219FB9
:1027F000B00D1124E8E3F0E0E91BF10997FDF39532
:102800009F01220F331F89010E0F1F1F40039001EC
:10281000419F300D11242A0F3B1F37FF02C0215862
:102820003F4F220F232F221F330B620F1F910F9157
:1028300008950F931F93522F10E0F801EE0FFF1F22
:10284000E15FFC4FE081F0E0B097EE0FFF1F9F01CA
:102850005203D001539FB00D1124000F111FF80136
:10286000E25FFC4F008110E000571109000F111FBB
:1028700040039001419F300D11242A0F3B1F37FF69
:1028800002C021583F4F220F232F221F330B620F0C
:102890001F910F9108950F931F93522F10E0F8018D
:1028A000EE0FFF1FE15FFC4FE081F0E0B0979F016A
:1028B0005203D001539FB00D1124000F111FF801D6
:1028C000E25FFC4F008110E00057110940039001C6
:1028D000419F300D11242A0F3B1F37FF02C02158A2
:1028E0003F4F220F232F221F330B620F1F910F9197
:1028F0000895EF920F931F9393E0099F8001112495
:10290000159507956E2D600F1F910F91EF9008950B
:1029100050E0FA01EE0FFF1FE15FFC4F90819052F3
:1029200097FD9195440F551FFA01E25FFC4F4081DE
:1029300050E0FA01E21BF1099F01290F311D97FDBB
:102940003A95620F0895E42FF0E0EE0FFF1FE15F6C
:10295000FC4F6081621B0895E42FF0E0EE0FFF1F33
:10296000E25FFC4F6081621B0895622F0895E42F9F
:10297000F0E0EE0FFF1FE25FFC4F408134EE439F1B
:10298000412D1124E82FF0E050E0445E5F4FDA0162
:10299000A21BB1099D01B7FF03C0319521953109F3
:1029A00093E0220F331F9A95E1F7AF01421B530BBF
:1029B0009A0157FF02C020E030E0582F259F212DBB
:1029C0001124822F0895E42FF0E0EE0FFF1FE25F45
:1029D000FC4F408134EE439F412D1124E72FF0E05E
:1029E00050E0445E5F4FDA01A21BB1099D01B7FFC1
:1029F00003C031952195310993E0220F331F9A9539
:102A0000E1F7AF01421B530B9A0157FF02C020E0D0
:102A100030E0279F212D1124722F0895FC01CB0156
:102A2000309721F477FF2CC080E808959F01F7FFCD
:102A300004C0222733272E1B3F0BBC01621B730BE4
:102A4000280F391F97FD0DC0CB0145E0880F991F56
:102A50004A95E1F7B9010E94883080E2861B682F11
:102A600009C0C90125E0880F991F2A95E1F70E9446
:102A70008830605A862FF7FF02C081950895089527
:102A800080E00895EF920F93CF93DF93D72FC82F55
:102A9000C9010E19BA010E940E15602F681B7D2F07
:102AA0008C2FDF91CF910F91EF9008950F93CF93DB
:102AB000DF93D72FC82FC901BA010E940E15682FC6
:102AC000600F7D2F8C2FDF91CF910F910895EF92A2
:102AD0000F931F93CF93DF93D62FC72F182FC901C2
:102AE0000E19010FBA010E940E15081B019F012D3E
:102AF00011246D2F7C2F802FDF91CF911F910F918B
:102B0000EF900895EF920F931F93CF93DF93D62FFB
:102B1000172FC82FC9010E19070FBA010E940E15F1
:102B2000081B702F719F712D11246D2F8C2FDF9139
:102B3000CF911F910F91EF900895FF920F931F93E4
:102B4000CF93DF93F62ED72F182FC901C12FC01BAB
:102B5000BA010E940E15982F880F980F2C2F291B51
:102B6000219F212D11246F2D7D2F822FDF91CF9159
:102B70001F910F91FF900895FF920F931F93CF9392
:102B8000DF93F62E172FD82FC901C72FC01BBA010C
:102B90000E940E15982F880F980FC91B7C2F719FCC
:102BA000712D11246F2D8D2FDF91CF911F910F91DA
:102BB000FF900895EF92FF921F93CF93DF937B01D5
:102BC000182F110FC0E0D0E08C2F8C5D8093DD03B7
:102BD00020E030E0F901EC0FFD1FEE0DFF1D8081BC
:102BE000F901E352FC4F81832F5F3F4F20313105C4
:102BF00089F724E630E041E150E06DED73E0812F8C
:102C00000E94552E6096C039D105F1F6DF91CF9123
:102C10001F91FF90EF9008958091F103882329F090
:102C200063EF73E084E70E94DA151092F10380915C
:102C3000F203882329F063E874E087E70E94DA153D
:102C40001092F2030895EDEDF3E06083418324E6F2
:102C500030E042E050E0BF01880F0C94552EFF9207
:102C60000F931F93CF93DF93E62FF0E0E95CFA4FC9
:102C700090819923B1F0F82E82E1689FE001112440
:102C800000E010E0F801EC0FFD1FED5EFA4F40810F
:102C9000602F8F2D0E9423160F5F1F4F02311105E9
:102CA00089F7DF91CF911F910F91FF900895CF93F6
:102CB000DF93C82F4BE06DEF0E94231640E06AE0DF
:102CC0008C2F0E9423168FE39CE90197F1F700C037
:102CD000000040E060E08C2F0E94231640E061E09D
:102CE0008C2F0E94231640E066E08C2F0E94231652
:102CF00040E06DEF8C2F0E942316D0E040E06D2F56
:102D00008C2F0E942316DF5FD231C1F740E06D2F78
:102D10008C2F0E942316DF5FD432C1F740E06D2F65
:102D20008C2F0E942316DF5FD43BC1F74BE06DEF81
:102D30008C2F0E94231641E06AE08C2F0E942316FC
:102D400040E06DEF8C2FDF91CF910C9423166F92A2
:102D50007F928F929F92AF92BF92CF92DF92EF922B
:102D6000FF920F931F93CF93DF930E94A32D84E7CD
:102D70000E94571687E70E945716E5E5EE2EE1E020
:102D8000FE2EC12CD12CF2E17F2EA8E08A2E912CB0
:102D9000AA24A394B12C66246394F701329760812E
:102DA00070E0CB0184973196C081D0E0A497D70121
:102DB000EC91F0E0B497D601AA0FBB1FAA0FBB1F7E
:102DC000AE5ABE4F2C91237030E0AC0197FF02C089
:102DD000495F5F4F63E0559547956A95E1F7729EAD
:102DE0008001739E100D1124040F111D0D5E1A4FEA
:102DF000B4010E948830A50102C0440F551F8A9576
:102E0000E2F7CA01D8019C91892B8C93CE01D7FDA2
:102E1000079653E0959587955A95E1F7729E800144
:102E2000739E100D1124080F111D0D5E1A4FCE0157
:102E3000B4010E948830A50102C0440F551F8A9535
:102E4000E2F7CA01D8019C91892B8C93CF01F7FD41
:102E5000079643E0959587954A95E1F7729EE001C4
:102E6000739ED00D1124C80FD11DCD5EDA4FCF0156
:102E7000B4010E948830A50102C0440F551F8A95F5
:102E8000E2F7CA019881892B8883F901E95CFA4F3E
:102E900060825FEFC51AD50A84E0E80EF11CA0E35A
:102EA000CA16D10409F079CF60E084E70E942F169A
:102EB00061E087E7DF91CF911F910F91FF90EF9035
:102EC000DF90CF90BF90AF909F908F907F906F904A
:102ED0000C942F16EF92FF920F931F93CF93DF93D3
:102EE000CDB7DEB767970FB6F894DEBF0FBECDBF84
:102EF0004B8B5C8B6D8B7E8B8F8B0E891F890115A5
:102F00001105C1F15F3F11F44F3FA1F1E42EF12C07
:102F1000A1E0B0E0042E01C0AA0F0A94EAF7852FC1
:102F200090E0662319F02091700606C09C01215C98
:102F30003A4FF90120812A232223A9F046E0489F35
:102F40009001499F300D1124F701E20FF31FEE0F9E
:102F5000FF1FEE5EFD4F40815181FC01E15CFA4FA5
:102F60009081A92B06C0FC01E15CFA4FA0958081FD
:102F7000A823A08386E0FE013D96DF01982F1D92D5
:102F80009A95E9F74D875E876F87198B088BDE016D
:102F9000179601900D928A95E1F7CE0107960E944F
:102FA000782A811137C086E0FE013796DE0111963E
:102FB00001900D928A95E1F7FF81E8856A857B850E
:102FC0006115710539F1EF3F11F4FF3F19F12091BF
:102FD000B90530E0C9010196877099274091EA054B
:102FE00050E08417950779F1F983EA837D836C8338
:102FF00096E0929FD001939FB00D1124A654BA4F32
:10300000FE01319601900D929A95E1F78093B905F2
:103010000E945F2516E08091EA059091B905891715
:1030200001F1189FC001112486549A4F0E94782AFA
:103030008823B9F08091EA0590E00196877099277E
:103040008093EA05E8CF0E945D2C1092B90510929A
:10305000EA05E3EBF5E086E0DF011D928A95E9F7EA
:10306000D9CF67960FB6F894DEBF0FBECDBFDF9104
:10307000CF911F910F91FF90EF90089520913D0502
:1030800030913E058217930771F090933E0580932F
:103090003D05E0916705F0916805309721F00084C7
:1030A000F185E02D0994089520913B0530913C0570
:1030B0008217930771F090933C0580933B05E09154
:1030C0006705F0916805309721F00680F781E02DC3
:1030D00009940895E0916705F0916805309721F013
:1030E0000190F081E02D099480E00895882311F08B
:1030F000FA0101C0FB01099480916A06837011F402
:103100001092060180916A068C7F816080936A0626
:1031100008950C94C1130C94951345E050E06CE1B4
:1031200070E08AE696E00C94A42EEAE6F6E0880FBA
:10313000880F90819370892B8083109206010C94E4
:103140008D18EAE6F6E0248130E1231B08F420E044
:1031500024830C948D18EAE6F6E0248130E1230FF5
:1031600008F42FEF24830C948D18EAE6F6E023810F
:1031700030E1231B08F420E023830C948D18EAE649
:10318000F6E0238130E1230F08F42FEF23830C9422
:103190008D18EAE6F6E0228130E1231B08F420E0F6
:1031A00022830C948D18EAE6F6E0228130E1230FA9
:1031B00008F42FEF22830C948D18EAE6F6E0818163
:1031C000885081830C948D18EAE6F6E08181885F4F
:1031D00081830C948D1890916A06892F8695869527
:1031E000815C8F739370882321F0880F880F892B5F
:1031F00002C0892F846580936A06109206010C94A0
:103200008D1890916A06892F869586958F5F8F73AA
:103210009370863120F4880F880F892B02C0892F84
:10322000846080936A06109206010C948D18909128
:103230006A0696959695981720F0961710F40C94B8
:1032400001190C949518EAE6F6E081E38083118277
:103250008FEF828383838FE784830C948D180E9481
:10326000A71680E090E00E949E2E8F3E9E4F21F098
:103270000E9431230E94231945E050E06CE170E088
:103280008AE696E00E94802E80916A068C7F11F477
:103290000C9423190895482F982F46FD9095E92FF7
:1032A000EF739F7046FD9F5FE295EF70EE0FF0E0C9
:1032B000E65BFE4F2181299F802D212D11248295CF
:1032C0008F702295207F822B3081982F930F892F2A
:1032D00047FD819580580895BC018230910508F41E
:1032E0000895613E8EE1780748F49B0195E036959C
:1032F00027959A95E1F748E0420F01C04FEF91E022
:10330000242F30E0290F311D35952795229FF0019C
:10331000239FF00DF00D11246E177F0718F44FEF67
:10332000420F05C02F3F310539F091E0920F491748
:1033300038F78FEF890F08958FEF08950F931F933C
:10334000CF93DF931F92CDB7DEB7182F47FD41957E
:10335000E8E3F0E0CF01841B910947FD9395889F36
:10336000F001899FF00DF00D1124229FC001239FD1
:10337000900D900D11248E0F9F1F79830E946C1960
:10338000982F880F980F692F600F7981812F0F90E8
:10339000DF91CF911F910F91089520E030E0A901B6
:1033A000869F412D969F400D511D1124CA010895FD
:1033B000AF92BF92CF92DF92FF920F931F93CF9362
:1033C000DF93D62E372FE82FF0E0711106C0EC5BAB
:1033D000F94F6491762F862F75C0C72FD0E0EC5B34
:1033E000F94F2491F22E022F10E046E0649FC001B5
:1033F0001124EFEFF0E0BF010E947430AB016BEAE3
:103400006403C001659F900D11248D0D911D8D0DDC
:10341000911D982F990F890FDF01AC1BBD0B0A9FDF
:10342000B0010B9F700D1A9F700D1124972F839F71
:10343000D0011124AB2FBB276F01CA1ADB0A0C9DE8
:10344000D0010D9DB00D1C9DB00D11245F01A81A77
:10345000B108AC9E6001AD9ED00CBC9ED00C112476
:10346000CD2DDD27EC1BFD0B0E9FE0010F9FD00D36
:103470001E9FD00D1124ED2F4230510591F04CF4D8
:1034800041155105E1F041305105B9F4E22F2B2FE0
:1034900016C04430510569F044F04630510579F0CA
:1034A0000CC0E22F272F9D2F0AC0272F9F2DEB2F17
:1034B00006C0E72F922F2D2F02C0E72F9B2F6E2FD4
:1034C000722F892FDF91CF911F910F91FF90DF9085
:1034D000CF90BF90AF90089560914F058CE090E041
:1034E0000C94B42E9091650592FF0DC0282F287181
:1034F000283019F4877F846006C0282F2471243077
:1035000011F48B7F886093FF0DC0282F287128311C
:1035100019F4877E846106C0282F2471243111F4A8
:103520008B7E88612091660520FF0DC0382F387191
:10353000383019F4877F816006C0382F31713130FF
:1035400011F48E7F886021FF0DC0282F287128314B
:1035500019F4877E816106C0282F2171213111F471
:103560008E7E886194FD877E08950F931F93CF937D
:10357000DF93C62FD42F022FFC0182818823C9F04C
:103580006093D1030E94722290933A05809339058B
:1035900080E28C0F883008F050C0C77081E001C015
:1035A000880FCA95EAF7DF91CF911F910F910C9484
:1035B000922C1091D103161330C08091390590914F
:1035C0003A050E944822883C910538F5C0E2CD0FAB
:1035D0001D17B9F080E2810F883040F4177081E048
:1035E00001C0880F1A95EAF70E94872CC83048F46A
:1035F00081E09D2F977001C0880F9A95EAF70E948D
:10360000922C802F0E94032DC830B8F4D77081E02F
:1036100001C0880FDA95EAF70AC080E28C0F883083
:1036200060F4C77081E001C0880FCA95EAF7DF91A6
:10363000CF911F910F910C94872CDF91CF911F9107
:103640000F910895E8EDF0E080818E7F80831092E5
:10365000E2001092DA001092E100A0EEB0E08C914E
:1036600081608C9380818F77808319BCA7EDB0E057
:103670008C918E7F8C9380818F7E808310929105B8
:1036800008951F920F920FB60F9211242F933F931C
:103690004F935F936F937F938F939F93AF93BF935A
:1036A000CF93DF93EF93FF93C091E900CF708091A8
:1036B000EC00D82FD17080FDD0E81092E900809105
:1036C000F000877F8093F00078940E942327109267
:1036D000E9008091F00088608093F000CD2BCF70DE
:1036E000C093E900FF91EF91DF91CF91BF91AF912E
:1036F0009F918F917F916F915F914F913F912F910A
:103700000F900FBE0F901F9018952091E4003091FC
:10371000E50095E64091EC00842F817040FF22C0C7
:103720008091E80080FD1CC080915806882391F0AC
:10373000853091F08091EB0085FD10C04091E40050
:103740005091E5004217530729F39A01915011F760
:1037500084E0089582E0089583E0089581E008956B
:1037600080E008954091E80042FFDECF0895809107
:103770005A0687FF11C08091E80082FD05C0809144
:1037800058068111F8CF11C08091E8008B770BC0EB
:1037900080915806882349F08091E80080FFF8CF97
:1037A0008091E8008E778093E8000895982F9730F5
:1037B00058F59093E900981739F07091EC0020913A
:1037C000ED005091F00003C0242F762F50E021FF30
:1037D00019C03091EB003E7F3093EB003091ED004B
:1037E0003D7F3093ED003091EB0031603093EB0082
:1037F0007093EC002093ED005093F0002091EE00C8
:1038000027FF07C09F5FD3CF8F708093E90081E0CF
:10381000089580E00895CF92DF92EF92FF920F9388
:103820001F93CF93DF93C8EDD0E088818F7E88838C
:10383000E7EDF0E080818160808384E082BF81E0F9
:103840008093910588818E7F888302EE10E0F801D5
:1038500010821092DA0081EEC82ED12CF60110826F
:1038600088818F77888388818068888388818F7D2D
:10387000888319BC10925806109259061092570668
:103880001092560690EEE92EF12CF70180818B7F85
:10389000808388818160888342E060E080E00E94CC
:1038A000D61BF60180818E7F8083F8018081816044
:1038B0008083808188608083F70180818E7F808310
:1038C000888180618883DF91CF911F910F91FF9054
:1038D000EF90DF90CF9008951F920F920FB60F9246
:1038E00011242F933F934F935F936F937F938F9305
:1038F0009F93AF93BF93EF93FF938091E10082FF7B
:1039000009C08091E20082FF05C08091E1008B7FB9
:103910008093E1008091DA0080FF2AC08091D80076
:1039200080FF26C08091DA008E7F8093DA0080913C
:10393000D90080FF18C080E189BD82E189BD09B44A
:1039400000FEFDCF81E080935806809191058111A2
:103950000FC00E94221B0E940B1C8091E200846019
:103960008093E20005C019BC109258061092910590
:103970008091E10080FF17C08091E20080FF13C0BA
:103980008091E2008E7F8093E2008091E20080616E
:103990008093E2008091D80080628093D80019BCA7
:1039A00085E0809358068091E10084FF34C08091C7
:1039B000E20084FF30C080E189BD82E189BD09B4A5
:1039C00000FEFDCF8091D8008F7D8093D80080913C
:1039D000E1008F7E8093E1008091E2008F7E8093F2
:1039E000E2008091E20081608093E20080915906BC
:1039F000882311F084E007C08091E30087FD02C0B6
:103A000081E001C083E0809358060E945D2C0E94F3
:103A10006A18109292058091E10083FF27C080917F
:103A2000E20083FF23C08091E100877F8093E10063
:103A300082E080935806109259068091E1008E7FB3
:103A40008093E1008091E2008E7F8093E20080917C
:103A5000E20080618093E20042E060E080E00E944A
:103A6000D61B8091F00088608093F000FF91EF9169
:103A7000BF91AF919F918F917F916F915F914F9186
:103A80003F912F910F900FBE0F901F90189520918E
:103A90006006309161062617370748F061157105F9
:103AA00039F42091E8002E772093E80001C0B90195
:103AB00040E061157105A9F120915806222309F40F
:103AC00043C0253009F442C02091E80023FD40C0E6
:103AD0002091E80022FD32C02091E80020FFE9CFCC
:103AE0004091F3002091F20030E0342BFC01CF0133
:103AF0006115710559F02830310540F481918093AA
:103B0000F100615071092F5F3F4FF1CF41E0283044
:103B1000310509F040E02091E8002E772093E8007D
:103B2000C8CF4111C9CF0AC080915806882361F0DF
:103B3000853061F08091E80083FD0AC08091E80043
:103B400082FFF2CF80E0089582E0089583E0089537
:103B500081E0089580915806843011F081E0089545
:103B600082E00895CF93DF93CDB7DEB72A970FB6E3
:103B7000F894DEBF0FBECDBF84B7877F84BF0FB67A
:103B8000F894A895809160008861809360001092FD
:103B900060000FBE90E080E80FB6F894809361005B
:103BA000909361000FBE85B7806885BF85B7806838
:103BB00085BF0E94221B0E940B1C8091E200846042
:103BC0008093E2007894809158068823A1F01091A8
:103BD000E9001F709091EC00892F817090FD80E8C2
:103BE000182B1092E9008091E80083FD0E942327A2
:103BF0001F701093E90082E084BD93E095BD9AEFB9
:103C000097BD80936E000E94770F90E090930A0119
:103C1000809309010E945E100E946D10A7E5B5E037
:103C2000EAE6F5E01EE0F12EFE0E11921D92FE1264
:103C3000FCCF8EE090E00E94A23080934D059093DF
:103C40004E05FC010E962BEF2193E817F907E1F7DB
:103C500080E090E00E949E2E8F3E9E4F11F00E94C9
:103C600031230E942F198CE090E00E94902E90E06A
:103C7000A0E0B0E080934F0590935005A0935105CC
:103C8000B093520589EA8093800089E08093810097
:103C900024982C983F988AB18F7C8AB96E98479A5D
:103CA0008BB180638BB9769A8FE090E00E94982E5A
:103CB0006093530570935405809355059093560572
:103CC00067708FEF869FB001112475956795759584
:103CD00067957727709389006093880070938B00B5
:103CE00060938A0070938D0060938C0090915305CF
:103CF00094FF03C08093170102C0109217010E9425
:103D0000EE0F80E090E00E949E2E8F3E9E4F11F0BD
:103D10000E94312382E090E00E94902E80938205E1
:103D20000E942023909366058093650583E090E0D0
:103D30000E94902E682F70E080E090E00E94552550
:103D40000E947C180E947C180E948D188BE091E0E4
:103D50009093680580936705EE24E394BB24BA949E
:103D600040E1A42E52E1952E68E1C62ED12C70E4DC
:103D7000872E80915806853009F052C040E060E0FF
:103D800080E00E948918E092920580915806843064
:103D900041F1109269050FB6F894A895C0926000A1
:103DA0000FBE8092600040E060E080E00E948918D1
:103DB000E092920583B7817F846083BF83B781607F
:103DC00083BF7894889583B78E7F83BF0FB6F894AE
:103DD000A8958091600088618093600010926000D7
:103DE0000FBE80915706882309F4C3CF0E94770F36
:103DF00090E090930A01809309010E945E100E9456
:103E00006D10EAE6F5E01192FE12FDCF0E947410EB
:103E1000EAE6F5E081918111DFC0FE12FBCFA9CF68
:103E20000E947410E3E8F5E0AAE6B5E000E010E0D7
:103E3000302F9D912191292721F180E077247394DF
:103E4000472D4223D1F089833A83972181E009F4F9
:103E500080E08B830E9472228160782F9D838C8307
:103E600049815A816B818D810E946A17F801ED5753
:103E7000FA4F80817826708218C08F5F770C863069
:103E8000F9F60F5F1F4F0E30110591F6BE82BF820B
:103E900018860E9472228160782F9A8789874E81C6
:103EA0005F8168858A850E946A1780917F0590915D
:103EB00080050E9448229C0190917E05992321F063
:103EC0002431310508F47CC080917A0510917B057E
:103ED00081110BC0111194C020917C05211190C05B
:103EE00020917D0521118CC06BC09F3F19F09F5F11
:103EF00090937E05181624F40E946B2180937A0516
:103F000080917A0587FF05C00E946B21819580937F
:103F10007A05111624F40E946B2180937B05809111
:103F20007B0587FF05C00E946B21819580937B05EF
:103F300030917A05332301F120917B052223E1F0B2
:103F400045EB3403C0011124892F990F990B009779
:103F500019F080937A0502C0E0927A0535EB2303CD
:103F6000C0011124892F990F990B009719F08093A4
:103F70007B0502C0E0927B0580917C05181624F435
:103F80000E94492180937C0580917C0587FF05C0B4
:103F90000E944921819580937C0580917D051816AA
:103FA00024F40E94492180937D0580917D0587FF3F
:103FB00005C00E944921819580937D050E947E2243
:103FC000109181050E946A18181709F4D2CE0E9438
:103FD0006A1880938105CDCEA9BC99BC09B400FEB6
:103FE000FDCF8091D8008F7D8093D8008091E00034
:103FF00082608093E0008091E00081FDFCCFB9CE2B
:104000009F3F09F074CF7CCF809135060895CF9300
:10401000DF9300D01F92CDB7DEB790915806943051
:1040200019F589837B836A8382E08093E9008FEFAF
:104030009091E800815095FD06C095ED9A95F1F7B5
:1040400000008111F5CF8091E80085FF0DC040E0B0
:1040500050E063E070E0CE0101960E94EC26809172
:10406000E8008E778093E8000F900F900F90DF911B
:10407000CF910895CF93DF93EC010E94AA1D823067
:1040800011F0843031F4BE0184E0DF91CF910C94C3
:104090000720DF91CF910895BC016058710983E03A
:1040A0000C940720CF93DF93EC010E94AA1D82306D
:1040B00011F08430F9F482E08093E9009FEF809161
:1040C000E800915085FD06C085ED8A95F1F7000066
:1040D0009111F5CF8091E80085FF0CC040E050E0E1
:1040E00066E070E0CE010E94EC268091E8008E77B9
:1040F0008093E800DF91CF910895CF93DF93EC0197
:104100000E94AA1D823011F08430D9F580911501EA
:10411000882339F08091650587FF03C060E282E063
:1041200002C068E081E08093E9008FEF9091E800A1
:10413000815095FD06C095ED9A95F1F7000081112B
:10414000F5CF8091E80085FF1CC080911501811199
:1041500005C040E050E068E070E003C070E040E07F
:1041600050E0CE010E94EC268091E8008E7780938B
:10417000E80080E2FE01A6E3B6E001900D928A9588
:10418000E1F7DF91CF910895803F39F480917B056D
:1041900087FF6CC010927B0569C0813F29F4809134
:1041A0007B051816BCF362C090917A05823F29F412
:1041B00097FF5CC010927A0559C0833F19F4191615
:1041C000CCF354C0893F41F480917C0518160CF063
:1041D0004DC010927C054AC08A3F29F480917C052D
:1041E00087FF44C0F6CF8B3F39F480917D0587FF70
:1041F0003DC010927D053AC08C3F29F480917D0529
:104200001816BCF333C0843F21F4809179058E7F6A
:1042100017C0853F21F4809179058D7F11C0863FBD
:1042200021F4809179058B7F0BC0873F21F4809129
:104230007905877F05C0883F31F4809179058F7EAD
:104240008093790513C08D3F21F4809133068E7FD2
:104250000BC08E3F21F4809133068D7F05C08F3FC8
:1042600029F4809133068B7F8093330680917A0501
:1042700081110EC080917B0581110AC080917C055F
:10428000811106C080917D05811102C010927E05CA
:1042900008958091330680FD16C081FD16C082FD11
:1042A00018C080917E05882391F0883290F428E030
:1042B000829FC001112468E270E00E948830862F3E
:1042C000672B29F007C082E0089584E0089581E01B
:1042D000089588E008958091330680FD17C081FD20
:1042E00017C082FD19C080917E05882399F08C3318
:1042F00098F423E2829FC00111246CE370E00E94D5
:104300008830862F672B49F481E0089588E008956E
:1043100081E1089585E0089583E20895803F21F4C6
:104320000E946B21819504C0813F29F40E946B217A
:1043300080937B050895823F21F40E946B21819533
:1043400004C0833F29F40E946B2180937A0508956D
:10435000893F19F40E94492105C08A3F31F40E9427
:104360004921819580937C0508958B3F21F40E941B
:104370004921819504C08C3F29F40E9449218093F2
:104380007D050895843F21F480917905816017C0EF
:10439000853F21F480917905826011C0863F21F428
:1043A0008091790584600BC0873F21F48091790565
:1043B000886005C0883F31F48091790580618093E1
:1043C000790508958D3F21F48091330681600BC0FB
:1043D0008E3F21F480913306826005C08F3F29F41F
:1043E00080913306846080933306089578941F92F9
:1043F0000F920FB60F9211248F939F93AF93BF9399
:1044000080912F0690913006A0913106B09132062E
:104410000196A11DB11D80932F0690933006A093A5
:104420003106B0933206BF91AF919F918F910F905B
:104430000FBE0F901F901895CF92DF92EF92FF92D0
:104440000F931F932FB7F894C0902F06D09030068B
:10445000E0903106F09032062FBF97018601061BCF
:10446000170B280B390BC616D706E806F90618F005
:10447000C901B80106C0C901B801615071098109BB
:1044800091091F910F91FF90EF90DF90CF900895C9
:10449000CF92DF92EF92FF920F931F932FB7F89472
:1044A00040912F065091300660913106709132068E
:1044B0002FBF6A017B01EE24FF248C0120E030E055
:1044C000C016D106E206F30610F4415051099A01D4
:1044D000281B390BC9011F910F91FF90EF90DF90BE
:1044E000CF9008952FB7F89480912F0690913006C1
:1044F000A0913106B09132062FBF0895E091670573
:10450000F0916805309749F082E080937805048047
:10451000F581E02D88E795E009950E94722290933D
:10452000800580937F0508951F920F920FB60F921A
:1045300011248F939F93AF93BF938091690581114D
:1045400013C080912F0690913006A0913106B09152
:1045500032064196A11DB11D80932F06909330061F
:10456000A0933106B0933206BF91AF919F918F9186
:104570000F900FBE0F901F901895209115012223C8
:1045800021F02091650527FD04C0FC0132960896B4
:1045900019C0262F2695269526952E31C0F4FC01AC
:1045A000E20FF11D677081E090E001C0880F6A950D
:1045B000EAF7809592818923828308953196E817DE
:1045C000F90729F020812613F9CF1082F7CF08953B
:1045D00020911501222321F02091650527FD05C0BA
:1045E000FC0132962FEF30E019C0262F2695269534
:1045F00026952E3120F5FC01E20FF11D677081E058
:1046000090E001C0880F6A95EAF79281892B828336
:1046100008952F3F39F03F5F363041F04191461306
:10462000F8CF0DC04111F7CF232FF5CF2F3F39F031
:10463000FC01E20FF11D27FDFA95628308950895AC
:10464000CF9384E090E00E94902EC82F81E290E00A
:104650000E94902E2C2F30E0A901582BCA01CF9137
:1046600008956FEE7EEF80E090E00E94D22E60E031
:1046700082E090E00E94B42E60E083E090E00E942F
:10468000B42E10922B0610922C0610922D0610922A
:104690002E0660E084E090E00E94B42E60E081E2AB
:1046A00090E00E94B42E60E085E090E00E94B42E7D
:1046B00060E086E090E00E94B42E6FEF87E090E02B
:1046C0000E94B42E40E050E0BA0188E090E00E94E1
:1046D000C62E60E08DE090E00E94B42E40E050E0F5
:1046E000BA0188E190E00E94C62E60E087E190E088
:1046F0000E94B42E40E050E0BA018CE190E00E94AC
:10470000C62E60E080E290E00E94B42E1092530525
:1047100010925405109255051092560584E0806160
:104720008093530540915305509154056091550570
:10473000709156058FE090E00E94C62E40E050E058
:10474000BA0183E190E00C94C62ECF92DF92EF92F3
:10475000FF926C01EE24FF24C114D104E104F104A2
:1047600021F0C701B60120E101C020E0C72ED82EFC
:10477000E92EFF24C114D104E104F10419F0285FEB
:10478000C701B6016B017C0154E0F694E794D7941D
:10479000C7945A95D1F7C114D104E104F10419F07A
:1047A0002C5FC701B6016B017C0142E0F694E794EF
:1047B000D794C7944A95D1F7C114D104E104F10408
:1047C00019F02E5FC701B601DC01CB01B695A795A4
:1047D00097958795892B8A2B8B2B09F02F5F822F3A
:1047E000FF90EF90DF90CF90089580912A0681117D
:1047F00010922A0608959091280680912906892B07
:1048000020912706982F922B9093930580912A064A
:104810008823D9F0892B80939305809115018823F3
:1048200031F08091650587FF02C08EE101C086E00E
:10483000E5E9F5E090E0815028F021912223D9F3B9
:104840009F5FF9CF91110E94F523E0916705F091E8
:1048500068053097A9F080911501882359F080915F
:10486000650587FF07C0809193058093940585E0D7
:10487000809393050280F381E02D83E995E009940C
:104880000895BF92CF92DF92EF92FF920F931F9302
:10489000CF93DF938C01C0902B06D0902C06E09034
:1048A0002D06F0902E068091220690912306A0916D
:1048B0002406B0912506C82AD92AEA2AFB2ACFE184
:1048C000D0E0D701C6010C2E04C0B695A7959795E8
:1048D00087950A94D2F780FF07C0BC2EB8018C2FB1
:1048E0000E949B0D019719F4219758F7B12C8B2D3D
:1048F000DF91CF911F910F91FF90EF90DF90CF90BC
:10490000BF900895CF93DF93EC010E944124BE0134
:104910000E949B0DDF91CF910895292F220F920FB6
:10492000990F890F682F669566956695982F9770F1
:1049300085E0689FB001112440E050E080E0FA017A
:10494000E60FF71FE551FA4F208130E0092E02C033
:10495000369527950A94E2F721703327042E01C07B
:10496000220F0A94EAF7822B4F5F5F4F45305105C3
:1049700031F70895292F220F920F990F890FA82F31
:10498000A695A695A695877051E001C0550F8A950A
:10499000EAF785E0A89FD001112420E030E070E024
:1049A000F901EA0FFB1FE551FA4F4081CB01022EBE
:1049B00002C0969587950A94E2F7817099278195B0
:1049C00084278523842780832F5F3F4F253031053F
:1049D00039F708950E94450F6093220670932306CD
:1049E00080932406909325060C94422C0F931F93DA
:1049F00041E050E060E070E004C0440F551F661FC6
:104A0000771F8A95D2F74095509560957095809163
:104A1000220690912306A0912406B09125068A01D2
:104A20009B01082319232A233B23C901B8011F91A5
:104A30000F910C94EA24209126068095822380937E
:104A40002606982F977079F430E0482F082E000C36
:104A5000550B2417350739F08595859585950E9466
:104A6000F6241092260608950F931F9341E050E01C
:104A700060E070E004C0440F551F661F771F8A95E1
:104A8000D2F78091220690912306A0912406B0913E
:104A900025068A019B01082B192B2A2B3B2BC901C8
:104AA000B8011F910F910C94EA2460932B06709328
:104AB0002C0680932D0690932E060C94422C809108
:104AC000EA059091B905891719F08F5F8770FBCFC0
:104AD00008959F92AF92BF92CF92DF92EF92FF9292
:104AE0000F931F93CF93DF936C0180911601C82F12
:104AF000CC0FCC0FC80FD5E0DC0FD13308F0D0E3DA
:104B000060916E0666956695809162069091630647
:104B10000E94CD19182F80E4810F0E944B1990E854
:104B2000F92EF80E812F0E944B1920E8922E980E34
:104B3000CD1700F5AC2EB12CF501E259FC4F808168
:104B4000909117019823A1F060916B0670916C060B
:104B500080916D06E12E0C2F292D4F2DF601099520
:104B60000E94D819462F282F672FC5010E948B1845
:104B7000CF5FDECF81E0D03308F080E0DF91CF91CE
:104B80001F910F91FF90EF90DF90CF90BF90AF906B
:104B90009F9008956F927F928F929F92AF92BF9253
:104BA000CF92DF92EF920F931F93CF93DF934C013D
:104BB00080911601C82FCC0FCC0FC80FD5E0DC0FA9
:104BC000D13308F0D0E360916E066695809162065D
:104BD000909163060E94CD19182FCD1708F044C09C
:104BE0006C2E712CF301E259FC4F908180911701DA
:104BF0008923C1F1F301EE0FFF1FE25FFC4FC0807C
:104C0000D12C80E7C81AD108F301EE0FFF1FE15F36
:104C1000FC4FA080B12CE0E2AE1AB108CC9C900110
:104C2000CD9C300D300D1124AA9CC001AB9C900D81
:104C3000900D1124820F931F0E946C19082F609110
:104C40006B0670916C0680916D06E12E9501A601B0
:104C5000F40109950E94D819462F282F672FC30108
:104C60000E948B18CF5FB9CF81E0D03308F080E08D
:104C7000DF91CF911F910F91EF90DF90CF90BF9078
:104C8000AF909F908F907F906F900895CF92DF921A
:104C9000EF92FF920F931F93CF93DF937C0180914C
:104CA0001601C82FCC0FCC0FC80FD5E0DC0FD133C5
:104CB00008F0D0E360916E0666958091620690914F
:104CC00063060E94CD19182FCD1778F5CC2ED12C64
:104CD000F601E259FC4F908180911701892319F167
:104CE000F601EE0FFF1FE15FFC4F208130E0205204
:104CF0003109F601EE0FFF1FE25FFC4F408150E0EB
:104D00004057510960916B0670916C0680916D0659
:104D1000012FF70109950E94D819462F282F672FD8
:104D2000C6010E948B18CF5FCFCF81E0D03308F04F
:104D300080E0DF91CF911F910F91FF90EF90DF9076
:104D4000CF900895DF92EF92FF920F931F93CF932E
:104D5000DF937C0190911601C92FCC0FCC0FC90FA6
:104D6000D5E0DC0FD13308F0D0E360916E06669594
:104D7000669580916206909163060E94CD19D82EA7
:104D8000CD17F0F40C2F10E0F801E259FC4F8081B0
:104D900090911701982391F060916B0670916C06C9
:104DA00080916D062D2D4C2FF70109950E94D81981
:104DB000462F282F672FC8010E948B18CF5FE0CFA6
:104DC00081E0D03308F080E0DF91CF911F910F9107
:104DD000FF90EF90DF900895CF92DF92FF920F93B4
:104DE0001F93CF93DF931F92CDB7DEB7F82E8B01C1
:104DF00099830E94851B998181111CC0CF2CD92ECB
:104E000001151105B1F08091E80085FD0AC080917F
:104E1000E8008E778093E8000E94851B882381F349
:104E200009C0F60181916F018093F10001501109D1
:104E3000E7CF80E00F90DF91CF911F910F91FF900E
:104E4000DF90CF9008951F93CF93DF93CDB7DEB758
:104E5000AA970FB6F894DEBF0FBECDBFEAE5F6E025
:104E600088E08E0F9091F10091938E13FBCF80918B
:104E70005B06833009F460C030F4813071F0823019
:104E800009F49AC0B1C08A3009F486C08B3009F4A5
:104E90006BC0893009F0A8C020C080915A06813AC1
:104EA00009F0A2C08091E800877F8093E80080919C
:104EB0005E0690915F06892B21F460E286E396E01E
:104EC00003C060E080E090E070E00E94471D8091A8
:104ED000E8008B778093E80087C080915A06813282
:104EE00009F082C080915E0690915F06029708F0FB
:104EF0007BC08091E800877F8093E8008091E80084
:104F000082FD05C0809158068111F8CF6DC02091B7
:104F1000F3008091F20090E0922B029729F48091A7
:104F2000F1008B7F813021F48091F1008093350670
:104F30008091E8008B7754C080915A06813A09F03D
:104F400053C080915E0690915F06892B09F04CC09A
:104F50008091E800877F8093E8008091E80080FFDF
:104F6000FCCF8091150137C080915A068132E1F55E
:104F700080915E0690915F06892BB1F58091E800E3
:104F8000877F8093E8000E94B71B80915C06809326
:104F900015010E945D2C28C080915A06813221F5AE
:104FA0008091E800877F8093E8000E94B71B809182
:104FB0005D068093340618C080915A06813AA1F4A8
:104FC0008091E800877F8093E8008091E80080FF6F
:104FD000FCCF809134068093F1008091E8008E77B9
:104FE0008093E8000E94B71B8091E80083FFD6C140
:104FF00080915A0690915B06492F50E04A30510546
:1050000008F0CCC1FA01E656FF4F0C949C30803872
:1050100021F0823809F0C2C108C0809156069091F3
:105020005706992389F082600FC080915E068F70C9
:10503000873008F0B3C18093E9008091EB0085FBD5
:10504000882780F91092E9009091E800977F90936B
:10505000E8008093F1001092F10074C1282F2D7F99
:1050600009F09CC1882319F0823061F097C18091CA
:105070005C06813009F092C1933009F080E08093A2
:1050800057062EC080915C0681112AC080915E0671
:105090008F702FEF280F263008F080C18093E90031
:1050A0002091EB0020FF1CC0933021F48091EB0095
:1050B000806214C09091EB0090619093EB0021E02E
:1050C00030E0A90102C0440F551F8A95E2F74093D2
:1050D000EA001092EA008091EB0088608093EB0078
:1050E0001092E9008091E800877F2FC1811156C19D
:1050F00010915C061F778091E3008078812B80936C
:10510000E3008091E800877F8093E8000E94B71B4E
:105110008091E80080FFFCCF8091E300806880935D
:10512000E300111102C082E001C083E080935806C1
:1051300035C18058823008F031C180915C06909171
:105140005D068C3D53E0950779F583E08A838AE21A
:1051500089834FB7F894DE01139620E03EE051E2D8
:10516000E32FF0E050935700E49120FF03C0E29555
:10517000EF703F5FEF708E2F90E0EA3010F0C7962F
:1051800001C0C0968D939D932F5F243149F74FBF87
:105190008091E800877F8093E8006AE270E0CE01AA
:1051A00001960E94471DBDC040915E0650915F066A
:1051B000292F332723303105B9F06CF42130310524
:1051C00009F4FBC02230310509F0E8C08BE390E020
:1051D000E4E4F8E054C02132310509F433C022324E
:1051E000310509F43CC0DAC0992781309105D1F02E
:1051F0005CF4892B09F0D2C0E9EBF8E0E4918E2F42
:1052000090E0E9EBF8E038C08230910599F003971F
:1052100009F0C4C0E1E9F8E0E4918E2F90E0E1E903
:10522000F8E02AC0EFEAF8E0E4918E2F90E0EFEA90
:10523000F8E022C0E7E9F8E0E4918E2F90E0E7E99A
:10524000F8E01AC04115510509F4BCC041305105C0
:1052500009F0A4C089E090E0EFE6F8E010C0411545
:10526000510509F4B4C04130510509F097C080ECF4
:1052700090E0E4E4F7E003C0009709F48FC02091C8
:10528000E800277F2093E8002091600630916106B6
:105290002817390708F4C90140E0009789F12091E7
:1052A0005806222309F43DC02530D9F12091E800A9
:1052B00023FD37C02091E80022FD2FC02091E80097
:1052C00020FFEBCF4091F3002091F20030E0342B2F
:1052D000009759F02830310540F444914093F10093
:1052E000319601972F5F3F4FF3CF41E028303105D2
:1052F00009F040E02091E8002E772093E800CDCF20
:105300004111CDCF0AC080915806882351F08530D5
:1053100041F08091E80083FD04C08091E80082FFA5
:10532000F2CF8091E8008B778093E80037C0803817
:10533000A9F58091E800877F8093E8008091590665
:105340008093F1008091E8008E778093E8000E94BE
:10535000B71B24C0811122C010915C061230F0F4FA
:105360008091E800877F8093E800109359060E949F
:10537000B71B111106C08091E30087FD02C081E0D8
:1053800001C084E08093580642E061EC81E00E9415
:10539000D61B42E261EC82E00E94D61B8091E800BD
:1053A00083FF1AC08091E800877F8093E800809196
:1053B000EB0080628093EB000FC082E190E0EFE7AA
:1053C000F8E05DCF89E090E0E6E5F8E058CF80E4D2
:1053D00090E0E4E0F8E053CFAA960FB6F894DEBF71
:1053E0000FBECDBFDF91CF911F9108958091B80579
:1053F00082958F7009F054C08091B505882309F417
:105400004FC08091EA05A091B9056091B3057091F4
:10541000B4054091B6055091B705B6E08A1709F476
:105420003FC090E041155105C1F17F3F11F46F3F3E
:10543000A1F1B89FF001B99FF00D1124E654FA4F85
:10544000218172132AC02081621327C02281211179
:1054500024C0238134812417350710F421503109E9
:10546000241B350B283C3105C0F42091B8052F7062
:1054700020612093B80526E0289FF001299FF00DB8
:105480001124E154FA4F80818F708061808383EB17
:1054900095E00E947E040C945F2501968770BECF34
:1054A00008950E948224292F2F7092959F70E92FD2
:1054B000F0E03297EE30F105B8F4EC55FF4F0C9464
:1054C0009C30803F99F018F4883E70F40FC0843F00
:1054D00059F40CC0883E50F0813F31F407C0822F50
:1054E000869586958695089580E0089581E00895D3
:1054F000BF92CF92DF92EF92FF920F931F93CF93C1
:10550000DF93CDB7DEB761970FB6F894DEBF0FBE5D
:10551000CDBF8C0185E0F801DE011D9601900D9252
:105520008A95E1F7D8013C9111962C91119712962A
:10553000EC9012971396CD90DC9014975091B30590
:105540006091B4058091B6059091B705009709F474
:105550004FC16F3F19F45F3F09F44AC1B090B505E0
:10556000BB2009F4ECC04091B805C816D90628F054
:10557000F601E81BF90BCF0104C0809590958C0DC6
:105580009D1DFF24F394883C910548F0F12C407F49
:1055900009F09FC083EB95E00E947E0421C1842F17
:1055A000807F09F044C0621312C0531310C0E11091
:1055B0000EC04F7040614093B80583EB95E00E94A8
:1055C0007E048091B805D80115968C932EC0CD2805
:1055D00019F12F3F11F43F3FF9F0FE2CE1101CC0F0
:1055E0008091EA054091B90556E0841709F458C046
:1055F00090E0589FF001599FF00D1124E654FA4FA6
:105600006181261306C06081361303C06281611177
:1056100003C001968770E9CFFE2CEE2009F421C16A
:105620008091B80581608093B805F12C1AC162138E
:105630000AC0531308C0E11006C08091B805D80114
:1056400015968C93B0C03D872E878D859E850E94D0
:10565000512A8823D1F1EE20C1F12091B805822F83
:1056600082958F7090E0029774F08091B3059091CD
:10567000B40598878F831986DB86CA862C87CE016E
:1056800007960E947E0486E0F801A3EBB5E0019046
:105690000D928A95E1F70E94F629FF24F394E1C068
:1056A0003D872E878D859E850E948224292F2295F5
:1056B0002F7030E0223031050CF0C7C09F7009F028
:1056C000C1C0805E883008F4CCC0C8010E947E044E
:1056D000E4CF621314C0531312C0E11010C08091C4
:1056E000B805F8018583C8010E947E0486E0E3EBDB
:1056F000F5E0DF011D928A95E9F7FB2CB2C03D87EA
:105700002E878D859E850E94512A8823F1F2EE20F6
:10571000E1F22091B805822F82958F7090E0029778
:105720000CF4B1CF8091B3059091B4059A8389832D
:105730001B82DD82CC822E83CE010196A2CFC816B9
:10574000D90638F0C81AD90AB8ECCB16D10450F0F3
:1057500007C0809590958C0D9D1D883C910510F09B
:10576000F12C3EC0FE2CEE2009F4AFCF621327C00F
:10577000531325C02091B80520FD18C0822F8295B3
:105780008F70482F50E04115510581F0F8012583B5
:105790004F30510541F08F5F982F9295907F822F67
:1057A0008F70892B8583C8010E947E0486E0F801F2
:1057B000A3EBB5E001900D928A95E1F752C03D87C9
:1057C0002E878D859E850E94512A81115CCF809104
:1057D000B80581608093B805C8010E947E0441C06D
:1057E000E3EBF5E086E0DF011D928A95E9F739C029
:1057F000EE2009F46ACF3D872E878D859E850E9415
:10580000512AF82E882309F460CF86E0F801A3EB33
:10581000B5E001900D928A95E1F78091B3059091E2
:10582000B4050E94822492959F70963041F4809135
:10583000700691E089278093700690936F060E940E
:10584000F6290FC081113DCF0CC0243031050CF07A
:105850003CCF9F7009F435CFF8019581907F09F016
:1058600030CF8F2D61960FB6F894DEBF0FBECDBF3F
:10587000DF91CF911F910F91FF90EF90DF90CF902C
:10588000BF90089510922806109227060E94FB23CD
:10589000E8E7F5E086E0DF011D928A95E9F71092CE
:1058A0007E05109233060E947E2280E090E00E94E6
:1058B000541880E090E00C943E18109229068091D4
:1058C0001501882331F08091650587FF02C08EE1C4
:1058D00001C086E0E5E9F5E0DF011D928A95E9F770
:1058E0000C94422C882341F08095909128068923BE
:1058F000809328060C94FB230895882339F0909117
:105900002806892B809328060C94FB23089588236E
:1059100041F08095909129068923809329060C9463
:10592000FB230895882339F090912906892B8093D1
:1059300029060C94FB230895882309F463C0823858
:1059400069F40E946A1881FF5DC069E383E995E00C
:105950000E94E8220E94FB2369E30EC0833891F481
:105960000E946A1880FF4EC063E583E995E00E94BB
:10597000E8220E94FB2363E583E995E00E94BD22B3
:105980000C94FB23843869F40E946A1882FF3AC0A1
:1059900067E483E995E00E94E8220E94FB2367E424
:1059A000EBCF9CEF980F913A10F4682FE5CF90E27F
:1059B000980F983088F4877021E030E0A90102C088
:1059C000440F551F8A95E2F7CA01809590912906E8
:1059D000892380932906D4CF9BE5980F933020F438
:1059E00080E090E00C94541898E5980F973120F4DB
:1059F00080E090E00C943E18803F20F00E94C4208C
:105A00000C947E220895CF93C82F0E94162DC9337F
:105A100049F42FEF87EE93E0215080409040E1F76A
:105A200000C000008C2FCF910C949C2C882309F48B
:105A300089C08238B1F40E946A1881FD83C069E38D
:105A400083E995E00E94E8220E94FB232FEF41EEBC
:105A500054E0215040405040E1F700C0000069E3AD
:105A600017C08338D9F40E946A1880FD6BC063E5C3
:105A700083E995E00E94E8220E94FB238FEF91EEDC
:105A800024E0815090402040E1F700C0000063E531
:105A900083E995E00E94BD220C94FB238438B1F485
:105AA0000E946A1882FD4EC067E483E995E00E9477
:105AB000E8220E94FB234FEF51EE84E0415050401A
:105AC0008040E1F700C0000067E4E2CF9CEF980F50
:105AD000913A30F4682F83E995E00E94E822DCCF08
