:100000000C94E6040C9403050C9403050C9403056E
:100010000C9403050C9403050C9403050C94030540
:100020000C9403050C9403050C947E170C94531642
:100030000C9407250C9403050C9403050C940305FC
:100040000C9403050C9403050C9403050C94030510
:100050000C9403050C9469240C9403050C9403057B
:100060000C9403050C9403050C9403050C940305F0
:100070000C9403050C9403050C9403050C940305E0
:100080000C9403050C9403050C9403050C940305D0
:100090000C9403050C9403050C9403050C940305C0
:1000A0000C9403050C9403050C940305930A930A1E
:1000B000D10AD10A1A0B3A0B0E0D670D7C0B680C96
:1000C0007A0C7A0C470F4A0F4D0F500F530F560FF3
:1000D000590F3F1244124E12421247124C124A124A
:1000E000B514CF14FB1438158315861589158C1596
:1000F0008F159215951598159B159E15A315A61588
:10010000A915AE15B315B615B915852AAC2A4C2C10
:10011000AC2A4C2CF42A172B4C2C152C282CDF2C19
:10012000DF2CF22CF22CE82CF22CF22CF22CDF2C0F
:10013000DF2CED2CF22CF22CED2C29002B002900C9
:10014000E100004100001E00144304001D61004452
:10015000E0001F001A0016001B00E200E300200070
:1001600008000700060050002C002100150009437C
:1001700019004F004A00220017000A000500000085
:1001800000443500000F00002E0000004B00A600C8
:10019000000700004C0000004E0023001C000B0074
:1001A000110000000453240018000D4210005200FA
:1001B0004D0025000C000E00360051002A002600DC
:1001C00012000F0037002F002800270013003344CF
:1001D00038003000E2002D0031003400E5002E0030
:1001E00000000100010001000100010000003A00D0
:1001F000010001000100010001003B0001000100BD
:1002000001000100C95C3C00010001000100010087
:10021000CA5C3D000100010001000100055D3E00D7
:1002200001000100010000000100010001000000C8
:1002300001000000045D0100010000000100000059
:10024000C25C3F000100010001000000010040000D
:10025000240021001E006200065D410025002200EE
:100260001F000100C55C420026002300200063003F
:10027000C65C430025022E0231002E00010044001E
:100280004500010001000100000001000100010023
:100290000100010000000100010001000100010057
:1002A00001000100010001000100A800010001009F
:1002B0000100AC000100AA00AE0001000100AB008B
:1002C0000100A9000100010001000100010000007F
:1002D0000100010001000000010000000100010018
:1002E0000100000001000000010001000100010008
:1002F0000100000001000100010001000100A9004F
:10030000010001000100AC000100AA00AE000100E4
:100310000100AB000100A800010001000100010084
:1003200001000100010001000100010001000100C5
:1003300000000100010001000100010000000100B7
:1003400001000100010001000100010001000100A5
:10035000010001002D000100010001000100010069
:10036000570001000100010001000100010001002F
:100370000100010001000000010001000100000077
:100380000100000001000100010000000100000068
:10039000010001000100010001000000010026022F
:1003A00036022F022F00F900010027023702300227
:1003B0003000FA002E0001002F00010001000100B2
:1003C00001000100300001000100010001000100F6
:1003D0000100010001000100000001000100010016
:1003E0000100010000000100010001000100010006
:1003F00001000100F400F20001000100F50001001D
:10040000F000F1000100F900F4000100F500F30034
:100410000100FA00010001000100010001000000DC
:1004200001000100010000000100000001000100C6
:1004300001000000010000000100010001000100B6
:100440000100000001000100010050000100F9005E
:1004500001000100520051000100FA00FA00010001
:1004600001004F0001000100F9000100010001003E
:100470000100010001000100010001000100010074
:10048000000000000000000000000000000000006C
:10049000000000000000000000000000000000005C
:1004A000000000000000000000000000000000004C
:1004B000000000000000000000000000000000003C
:1004C000000000000000000000000000000000002C
:1004D000000000000000000000000000000000001C
:1004E000000000000000000000000000000000000C
:1004F00000000000000000000000000000000000FC
:1005000000000000000000000000000000000000EB
:1005100000000000FF0000FF0000FF0000FF0000DF
:10052000FF000000F3DEEAF3DEEAF3DEEA86FFD541
:10053000000000F3DEEAF3DEEAF3DEEA86FFD50030
:100540000000F3DEEAF3DEEAF3DEEA86FFD5F3DE4F
:10055000EA00000086FFD586FFD50000FF0000FFFF
:100560000000FF0000FF0000FF000000000000008E
:10057000000000000000000000000000000000007B
:10058000000000000000000000000000000000006B
:10059000000000000000000000000000000000005B
:1005A000000000000000000000000000000000004B
:1005B000000000000000000000000000000000003B
:1005C000000000000000F3DEEAF3DEEA00000000B5
:1005D000000000000000000000000000000086FF96
:1005E000D586FFD50000FF000000000000000000DD
:1005F00000000000000000000000000000000000FB
:100600000000000000000000000000F3DEEAF3DE5E
:10061000EA000000000000000000000000000000F0
:1006200000000000000086FFD586FFD50000FF0017
:100630000000000000F3DEEAF3DEEA000000000044
:100640000000000086FFD586FFD5000000000000F6
:10065000000000F3DEEAF3DEEA0000000000000024
:10066000000086FFD586FFD50000000000000000D6
:10067000FF0000FF0000000000000000000000007C
:10068000000000000000000000000000000000006A
:10069000000000000000000000000000000000005A
:1006A000000000000000000000000000000000004A
:1006B0000000000000000000FF0000FF000000003C
:1006C000000000000000000000000000000000002A
:1006D00000000000000000F3DEEA0000000000005F
:1006E000000000F3DEEAF3DEEAF3DEEA00000000D9
:1006F000000000000000000000000000000086FF75
:10070000D586FFD5000000000000000000000000BA
:1007100000000000000000000000000086FFD5F38C
:10072000DEEA86FFD5000000000000F3DEEAF3DE1B
:10073000EAF3DEEA00000000000000000000000014
:1007400000000000000000000000000000000000A9
:100750000000000101010101010101010202020288
:10076000020202020203030303030303030404045B
:100770000404040405050505050606060606070724
:1007800007070708080808090909090A0A0A0B0BDC
:100790000B0C0C0C0D0D0D0E0E0E0F0F0F1010117B
:1007A0001111121213131414151516161717181801
:1007B00019191A1A1B1B1C1D1D1E1E1F2020212269
:1007C00022232424252626272829292A2B2C2D2DAF
:1007D0002E2F30313232333435363738393A3B3CCC
:1007E0003D3E3F404142434445464748494A4C4DBF
:1007F0004E4F50515354555658595A5B5D5E5F6188
:100800006264656668696B6C6D6F7072737577781A
:100810007A7B7D7E8082838587888A8C8E8F919378
:100820009596989A9C9EA0A2A3A5A7A9ABADAFB19F
:10083000B3B5B7BABCBEC0C2C4C6C9CBCDCFD1D484
:10084000D6D8DBDDDFE2E4E7E9EBEEF0F3F5F8FA2A
:10085000FDFF05010902A10185020901A1000509A9
:1008600019012905150025019505750181029501DC
:10087000750381010501093009311581257F950234
:100880007508810609381581257F9501750881064F
:10089000050C0A38021581257F950175088106C06F
:1008A000C005010980A10185031A81002A83001671
:1008B0000100260300950175108100C0050C090197
:1008C000A10185041A01002A9C02160100269C023F
:1008D000950175108100C005010906A10185050576
:1008E0000719E029E7150025019508750181020522
:1008F00007190029EF1500250195F0750181020502
:100900000819012905950575019102950175039155
:1009100001C005010906A101050719E029E7150035
:10092000250195087501810295017508810105076A
:10093000190029FF150026FF00950675088100059E
:100940000819012905950575019102950175039115
:1009500001C009023B00020100A0FA0904000001E5
:100960000301010009211101000122400007058156
:100970000308000A09040100010300000009211115
:1009800001000122C0000705820320000A120110A5
:100990000100000008EDFE0713010001020301043D
:1009A000033000000016034500720067006F00640A
:1009B000006F007800200045005A00000008035A2C
:1009C00000530041000000040309040011241FBE6D
:1009D000CFEFDAE0DEBFCDBF13E0A0E0B1E0E8EB9F
:1009E000F9E602C005900D92AE36B107D9F726E0C0
:1009F000AEE6B3E001C01D92A431B207E1F70E9458
:100A0000C8180C94DA340C9400008F929F92AF9225
:100A1000BF92CF92DF92EF92FF920F931F93CF93EB
:100A2000DF93CDB7DEB728970FB6F894DEBF0FBEC1
:100A3000CDBFFC01F080118183819481892B11F459
:100A40000C945A0E1F3F29F40FEFF01611F40C947A
:100A50005A0E6F0185E0DE01119601900D928A9584
:100A6000E1F7F601228189819A81222349F00E94CF
:100A7000BF26082F682F89819A810E94382703C0DA
:100A80000E940B27082F26E0129FF001112434E565
:100A9000039FE00DF11D1124EF0DF11DEE0FFF1F5F
:100AA000E65CFE4F05911491F60182810230FDE56E
:100AB0001F0759F003302DE5120709F446C0023C28
:100AC0003CE5130709F09CC062C0882309F4D4C038
:100AD0009091810381E0890F8770987F853020F4A1
:100AE000892B8093810302C09093810380918103BD
:100AF0008770EFEF8E9FC00111249595879595958E
:100B000087959927909389008093880090938B0014
:100B100080938A0090938D0080938C004091810394
:100B20005091820360918303709184038FE090E081
:100B30000E94D1316091C1057091C2058091C305B9
:100B40009091C4050E94251297C0882309F494C08F
:100B50008091810383FB222720F991E0922790FB6B
:100B600083F980938103992329F040E060E080E0DD
:100B70000E942A2040918103509182036091830357
:100B8000709184038FE090E00E94D13175C088237A
:100B900011F40C945A0E90911701809181039F3F9C
:100BA00059F4109217018F7E8093810340E060E03A
:100BB00080E00E942A2006C09FEF90931701806179
:100BC000809381034091810350918203609183035C
:100BD000709184038FE090E028960FB6F894DEBF02
:100BE0000FBECDBFDF91CF911F910F91FF90EF907E
:100BF000DF90CF90BF90AF909F908F900C94D131A9
:100C00000530FDE51F0749F006302DE5120791F08C
:100C100004303DE5130781F564C0882311F40C947A
:100C20005A0E81E00E94362010920A0610920B069E
:100C30008FEF0CC0882311F40C945A0E81E00E94AF
:100C4000362010920A0610920B0681E880930C065B
:100C500028960FB6F894DEBF0FBECDBFDF91CF91BF
:100C60001F910F91FF90EF90DF90CF90BF90AF90CA
:100C70009F908F900C942E20F6018281882381F022
:100C8000033E8CE5180709F46CC008F05FC0013E14
:100C9000ECE51E0709F053C010927D030E949B21D2
:100CA00017FFD1C0F6018281811161C00B3CFCE5C8
:100CB0001F0709F41DC108F435C1033D9CE5190760
:100CC00009F465C308F06AC30F3CFCE51F0709F48B
:100CD0008EC708F09CC70D3C3CE5130741F4F601B4
:100CE0008281882311F40C945A0E81E014C00E3CCA
:100CF0001C4508F409C1F6018281882311F40C9483
:100D00005A0E8091090686958695825C8F73833092
:100D100008F444C182E028960FB6F894DEBF0FBEF7
:100D2000CDBFDF91CF911F910F91FF90EF90DF909A
:100D3000CF90BF90AF909F908F900C943620023E42
:100D4000FCE51F0709F0ACCF81E00EC0043E2CE5A6
:100D5000120749F0053E3CE5130709F0A1CF84E0F6
:100D600003C082E001C083E080937D0397CF809130
:100D7000C80580936E031092C80580917D03813071
:100D800071F048F08230C1F08430E1F486EE0E94C8
:100D9000812F88E115C082EE0E94942F13C083E05A
:100DA0000E94FB2E88E10E94942F88E10E941A2F56
:100DB00083E00E94F02E06C082EE0E94942F87E509
:100DC0000E94812F8FE39CE90197F1F700C000009A
:100DD0007801E894F7F85CE0A52EB12CC7010A2C45
:100DE00002C0969587950A94E2F7282F2F7041F05C
:100DF000822F90E02A3010F44D9604C0069702C06E
:100E000087E290E00E94812F94E0A91AB108ECEFEC
:100E1000AE16EFEFBE0611F780917D03813039F0F9
:100E200040F0823031F0843051F488E206C08CE228
:100E300004C082EE0E941A2F02C00E94812F80916E
:100E40006E038093C805033FFCE51F07B1F180F4F2
:100E5000083D3CE51307C9F0093D8CE51807C9F1C9
:100E6000073D9CE51907C1F526E241EE61EE10C091
:100E7000053FECE51E0749F120F1063F2CE512077E
:100E800059F527E245EE66EE03C027E245EE65EE32
:100E9000C60128960FB6F894DEBF0FBECDBFDF9116
:100EA000CF911F910F91FF90EF90DF90CF90BF9067
:100EB000AF909F908F900C94E42126E241EE60EE7B
:100EC000E7CF27E245EE64EEE3CF26E241EE62EEA5
:100ED000DFCF28E241E0DBCFF6018281882319F0E1
:100EE00010926F03E3CE0B3CFCE51F0709F045C2EF
:100EF000F6018281882309F4DDC620910D0630E1D8
:100F0000230F08F42FEF0BC0F6018281882309F428
:100F1000D1C620910D0630E1231B08F420E0209378
:100F20000D0696CE033C3CE51307E9F4F6018281F9
:100F3000882309F4BFC68091C805827279F128968A
:100F40000FB6F894DEBF0FBECDBFDF91CF911F91DA
:100F50000F91FF90EF90DF90CF90BF90AF909F9058
:100F60008F900C944220043C8CE5180758F1073C04
:100F70009CE5190709F4E8C508F0F2C5053CFCE555
:100F80001F0709F400C608F007C6F601828188230E
:100F900009F490C68091C805827289F228960FB62E
:100FA000F894DEBF0FBECDBFDF91CF911F910F919F
:100FB000FF90EF90DF90CF90BF90AF909F908F9079
:100FC0000C94582006319CE5190708F08BC10230BB
:100FD000ECE51E0708F42DC1F6018281882309F48F
:100FE0003BC20E94A425811102C00E94AF250E942D
:100FF000932590939403809393030F30FCE51F0790
:1010000009F4CFC008F042C008303CE5130709F4EA
:10101000A8C0F0F404309CE5190709F490C068F406
:101020000230FCE51F0709F486C003301C4509F0B7
:10103000DFC0809193038260D9C006303CE513077E
:1010400009F487C008F089C0809193038860CEC0FE
:101050000B309CE5190709F495C068F40930FCE5EC
:101060001F0709F482C00A301C4509F0C1C08091F5
:101070009303886080C00D303CE5130709F486C0F7
:1010800008F087C0809193038D7FB0C00A3F9CE534
:10109000190709F457C050F50231FCE51F0709F4A0
:1010A00088C068F400313CE5130709F47EC00131C3
:1010B0001C4509F09DC0809193038F7B97C004313C
:1010C0009CE5190709F487C008F479C005311C456F
:1010D00009F08EC08091930382FB222720F991E0D2
:1010E000922790FB82F990FB83F980C00D3F2CE59D
:1010F000120709F452C058F40B3F8CE5180729F188
:101100000C3F1C4509F074C08091940360C00F3FF0
:10111000ECE51E0709F458C080F101151D4509F0E2
:1011200067C080919403982F909591708E7F892B42
:1011300090FB81F94DC080919303816057C08091ED
:10114000930319C0809194031BC080919403826023
:101150003FC080919303806149C080919303806276
:1011600045C080919303806441C00E94DB2E809132
:10117000930380683BC0846039C08091940382608F
:10118000816026C0809193038E7F30C0809193034D
:1011900019C080919303877F29C0809194038D7F2C
:1011A00017C0809193038F7E21C0809193038F7D20
:1011B0001DC00E94DB2E809193038F7717C0809112
:1011C0009303877F8B7F12C0809194038D7F8E7FE6
:1011D000809394030DC00E94DB2E8091930387FBC4
:1011E000222720F991E0922790FB87F980939303BF
:1011F000609193031091940384E090E00E94BF31CA
:10120000612F81E290E00E94BF3128960FB6F894DA
:10121000DEBF0FBECDBFDF91CF911F910F91FF9029
:10122000EF90DF90CF90BF90AF909F908F900C94F5
:10123000DB2E0115FCE51F0709F042C0F601828193
:10124000882309F437C50E94DB2EFFEF04E31CE07E
:10125000F15000401040E1F700C00000F89481E038
:101260008093E00080E28093D8001092C9008FE163
:101270009EE40197F1F700C000001DBA10926800CB
:101280001CBC10BE1FBA10927A0010926E00109211
:101290006F0010927100109272001092C9001092AB
:1012A000BC0014B817B81AB81DB810BA1092BC0018
:1012B00015B818B81BB81EB811BA0C94003FFAC480
:1012C00001301C4509F0C8C0F6018281882309F469
:1012D000F1C48091B003982F909590FB80F9809392
:1012E000B003E8C406313CE51307A9F59091C805A1
:1012F000F6018281882381F09A7A81E009F480E006
:1013000080937003811102C069E201C065E382E34A
:1013100095E00E945B250BC080917003811102C093
:1013200069E201C065E382E395E00E9430252896DA
:101330000FB6F894DEBF0FBECDBFDF91CF911F91E6
:101340000F91FF90EF90DF90CF90BF90AF909F9064
:101350008F900C947926023C1C4509F07DC0F60163
:101360008281882309F4A6C49091090681E0892727
:1013700080930906109206016BCC0C3C2CE51207F9
:1013800008F479C0033D9CE5190709F02AC4F60169
:101390008281882309F48EC488E1BDCC0D3DFCE533
:1013A0001F0749F4F6018281882309F483C482E08F
:1013B0008093BF037FC40E3D2CE5120750F5053D19
:1013C0003CE5130739F4F6018281882309F472C4DD
:1013D00083E2A1CC053D8CE5180780F4F6018281FB
:1013E000882309F467C48091090686958695895DEE
:1013F0008F73893008F4D2CD89E18DCC0C3D1C452A
:1014000059F5F6018281882309F454C41092BF0370
:1014100051C40E3DECE51E07C9F4F6018281882314
:1014200009F448C428960FB6F894DEBF0FBECDBFAE
:10143000DF91CF911F910F91FF90EF90DF90CF90B0
:10144000BF90AF909F908F900C94AF25C8018A5F9A
:101450009C45079708F4C0CDF60182810081118177
:10146000882331F1C8010E94BF26F82E682FC801D9
:101470000E94382721C0033C3CE5130709F456CDF0
:1014800008F075CD06319CE5190708F053C302300A
:10149000ECE51E0708F0A0CD0115FCE51F0709F4D7
:1014A000CDCE01301C4509F40FCFF601008111812A
:1014B000C8010E940B27F82EB8018F2D0E94AC0F97
:1014C000182F382FF601258122952F7002810111E6
:1014D0001092C7058091C5058770A9F0002399F087
:1014E00080E2810F883078F082E02F8338879E83F6
:1014F0000E9499278091C5058770EE24E3942F817F
:1015000038859E818111E12CA92EA2944FE0A4225E
:10151000B12CFCE0AF16B10408F0D9C2F501EA5ACB
:10152000FF4F0C94A733892F807F9F70F92E88235B
:1015300019F0F29480EFF8220023B9F0FF2009F4AB
:1015400057C280E2810F883010F0311106C09091AF
:10155000C805F92AF092C80505C09091C705F92A77
:10156000F092C7050E94792643C2812F38870E94D6
:101570001A2F3885FF2009F4AAC2105EF0941830A3
:1015800010F0311106C09091C805F922F092C805FB
:1015900005C09091C705F922F092C7050E947926EF
:1015A00096C2492F407F892F8F70403211F082956B
:1015B000807F332319F03130E9F025C0002381F01A
:1015C0003091C905222351F0213041F4982F932BFB
:1015D000391709F47CC29093C90579C2832B17C0CF
:1015E000222319F0213009F472C28E830E947326DF
:1015F0008E811DC0002321F0223008F068C207C090
:10160000211165C214C0002329F02111F1C10E94EB
:10161000102F5DC2222359F0193309F0FBC10FEFDF
:1016200027EE33E0015020403040E1F7F1C10E9445
:10163000052F4DC2292F26952695237030E02115C0
:10164000310521F02130310559F041C2002319F054
:10165000812F937002C080E090E00E94FB1F40C287
:10166000002319F0812F937002C080E090E00E9467
:10167000E51F36C20023F9F0153F51F0163F71F017
:10168000143FA9F4809171039091720381600BC0A3
:101690008091710390917203826005C08091710303
:1016A0009091720384609093720380937103812FF1
:1016B0000E9401241EC0153F51F0163F71F0143FE7
:1016C000A9F480917103909172038E7F0BC0809179
:1016D0007103909172038D7F05C080917103909189
:1016E00072038B7F9093720380937103812F0E940A
:1016F00037230E94F124F4C1892F837009F070C050
:101700000111ECC1812F829586958770880F880F13
:10171000412F4F7050E060E070E04A015B01082EFD
:1017200004C0880C991CAA1CBB1C0A94D2F714FF95
:1017300012C00FE010E020E030E004C0000F111FE5
:10174000221F331F8A95D2F7B901A8014095509501
:101750006095709503C040E050E0BA01969596956B
:101760009370892F90E08230910529F183309105A3
:10177000C9F00091CA051091CB052091CC0530919C
:10178000CD05019759F0482959296A297B29CB01B0
:10179000BA0160237123822393230AC0802A912AED
:1017A000A22AB32ACB01BA01682979298A299B295F
:1017B0000E94D32793C1482959296A297B298091FE
:1017C000CA059091CB05A091CC05B091CD058A01B9
:1017D0009B01082719272A273B27C901B801E8CF11
:1017E000002319F0892F817001C08695882309F4A0
:1017F00075C1812F829586958770880F880F412F3C
:101800004F7050E060E070E04A015B01082E04C0B8
:10181000880C991CAA1CBB1C0A94D2F714FF12C096
:101820000FE010E020E030E004C0000F111F221F85
:10183000331F8A95D2F7B901A8014095509560955C
:10184000709503C040E050E0BA019695969593706C
:10185000892F90E082309105E9F08330910579F18C
:101860000091C1051091C2052091C3053091C405B6
:10187000019759F0482959296A297B29CB01BA01D6
:10188000602371238223932320C0802A912AA22AD5
:10189000B32A15C0482959296A297B298091C10595
:1018A0009091C205A091C305B091C4058A019B0126
:1018B000082719272A273B27C901B80106C0CB01F1
:1018C000BA01682979298A299B290E94682706C1BB
:1018D0009F70F92E002339F0892F0E94B227812FA3
:1018E0000E94102FFBC0812F0E94052F8F2D0E9478
:1018F0007427F4C0812F323FC9F128F4303F49F0FA
:10190000313F79F170C0333FC1F1343F09F44DC02C
:101910006AC0002311F12111DAC0292F2F7181E053
:1019200090E0A0E0B0E0AC01BD0104C0440F551F41
:10193000661F771F2A95D2F78091C1059091C20545
:10194000A091C305B091C4058A019B0108271927FE
:101950002A273B27C901B80125C0223008F0B7C0AB
:10196000DCCF002329F0892F8F712EC00023D9F3FB
:10197000892F8F710E947427AAC0002381F0292F1C
:101980002F7181E090E0A0E0B0E0BC01CD0104C087
:10199000660F771F881F991F2A95D2F703C060E052
:1019A00070E0CB010E94682792C0002381F0192FBC
:1019B0001F71812F0E94B22728E0129FC0011124BD
:1019C00083608093C505812F0E94B22780C081E08B
:1019D0002F830E9499272F81223008F478C082E05B
:1019E0000E94992774C0002339F0222309F4BBCF49
:1019F000812F0E94942F6BC0222309F4B9CF893321
:101A000049F43FEF87EE93E0315080409040E1F79A
:101A100000C00000812F0E941A2F59C0323FB1F040
:101A200028F4303F49F0313FF9F028C0343FB9F095
:101A300058F0353F71F022C0002309F451C0909155
:101A40000F0681E0892708C081E0082700930F0670
:101A500047C0011145C081E080930F0641C00111CC
:101A60003FC010920F063CC0002329F080910E0663
:101A7000882329F329C0222311F332C080910E0656
:101A80002223C1F0882341F090910F0681E089273D
:101A900080930F0610920E06812F002319F00E94EA
:101AA000942F1EC00E941A2F86E0F60111928A958B
:101AB000E9F716C08823A1F0011112C090910F061A
:101AC00081E0892780930F0610920E0609C0F8E086
:101AD000AF1AB10804E0A016B10410F40E9411205E
:101AE000EE2009F4E7C08091C50580FDE3C0F60152
:101AF00012828595859585950E94B227C6010E9420
:101B000005058091C50585958595859528960FB61F
:101B1000F894DEBF0FBECDBFDF91CF911F910F9123
:101B2000FF90EF90DF90CF90BF90AF909F908F90FD
:101B30000C94742706313CE5130709F4D7CB023C1B
:101B40001C4509F40CCCB1CCF6018281882309F440
:101B5000B1C020910B0630E1230F08F42FEF10C025
:101B6000093C3CE5130719F170F5F60182818823E1
:101B700009F4A0C020910B0630E1231B08F420E0FB
:101B800020930B0665C8F6018281882309F492C070
:101B900080910A06885F08C0F6018281882309F4D3
:101BA00089C080910A06885080930A0651C8F601C0
:101BB0008281882309F47EC020910C0630E1230F36
:101BC00008F42FEF0BC0F6018281882309F472C05C
:101BD00020910C0630E1231B08F420E020930C0632
:101BE00037C8043DECE51E0708F46EC845C0F60191
:101BF0008281882309F45EC08091090686958695C6
:101C0000865C8F73823008F4C9C986E084C8013DC0
:101C10009CE5190781F4F6018281882309F44AC002
:101C200080910906869586958F5C8F73853008F4C0
:101C3000B5C98FE070C8023D1C4578F4F601828179
:101C40008823C1F18091090686958695895C8F73FA
:101C5000853008F4A3C989E05EC8F6018281882333
:101C600049F18091090686958695855D8F7382304E
:101C700008F494C985E14FC80D3DFCE51F0709F440
:101C800091CB60F4053D3CE5130709F49CCB08F4C7
:101C9000A5CB0C3D1C4509F4B4CB07CC0E3DECE5BF
:101CA0001E0709F4BACBC8018A5F9C45079708F460
:101CB00093C9FBCB28960FB6F894DEBF0FBECDBFFD
:101CC000DF91CF911F910F91FF90EF90DF90CF9018
:101CD000BF90AF909F908F9008953F924F925F92E8
:101CE0006F927F928F929F92AF92BF92CF92DF922C
:101CF000EF92FF920F931F93CF93DF9320E9289FDA
:101D00007001299FF00C1124C0E0D0E000E010E049
:101D100067018FEFC81AD80A570182E0A80EB11CDC
:101D2000FE01EE0DFF1DEE57FB4F6491F601EC0F27
:101D3000FD1FEE57FB4F7491F501EC0FFD1FEE57A1
:101D4000FB4F8491611107C0711105C0811103C05F
:101D500020E040E042C00E940721962E372E882EB8
:101D600060910C0670E080E090E00E94843220E0F8
:101D700030E04FE753E40E94E3312B013C01682D32
:101D800070E080E090E00E9486329B01AC01C301CC
:101D9000B2010E9412330E945532862E692D70E0E6
:101DA00080E090E00E9486329B01AC01C301B20149
:101DB0000E9412330E945532962E632D70E080E00F
:101DC00090E00E9486329B01AC01C301B2010E94E7
:101DD00012330E945532282D492DC8010E942C2013
:101DE0000F5F1F4F2396C039D10509F099CFDF91BE
:101DF000CF911F910F91FF90EF90DF90CF90BF9008
:101E0000AF909F908F907F906F905F904F903F909A
:101E10000895CF93E82F873080F580910901909144
:101E20000A01892B09F047C0CE2F64E670E080E4F8
:101E30000E94B43090930A0180930901892BD1F458
:101E400064E670E082E10E940B3190930A01809376
:101E50000901892B79F481E090E001C0880FCA95CF
:101E6000EAF764E670E080950E940B3190930A01D6
:101E700080930901CF910C94873190E0FC01379752
:101E8000E730F105C0F4EE59FF4F0C94A733209AC8
:101E9000289811C0219A29980EC0229A2A980BC01E
:101EA000239A2B9808C0529A5A9805C0539A5B9867
:101EB00002C03E9A4698CF910895CF93873008F09C
:101EC0003FC08091090190910A01892B09F041C01E
:101ED00064E670E080E40E94B43090930A0180933D
:101EE0000901892B11F0C0E027C064E670E083E1AE
:101EF0000E940B3190930A0180930901892B99F775
:101F000064E670E081E40E94B43090930A0180930B
:101F10000901892B41F784E690E00E943B3197FF4D
:101F200005C090930A0180930901DDCFC82FC095A9
:101F300010920A01109209010E9487318C2F0AC069
:101F40009FB18FB1807F869586959370892B809500
:101F500001C080E0CF910895CF93DF9326E0729F78
:101F6000F001112434E5839FE00DF11D1124E60FEB
:101F7000F11DEE0FFF1FE65CFE4FC591D491CE011F
:101F8000C238D10569F1B0F4C133D10509F475C087
:101F900048F4C932D10509F469C0CA32D10509F43F
:101FA00073C079C0C533D10509F459C0C933D1050F
:101FB000B9F071C0C33ED10571F138F4C03ED1050E
:101FC000B1F0C23ED10511F166C0C63ED105B9F1EE
:101FD000C73ED105C9F1C43ED10509F05CC024C09B
:101FE0002091930320FD29C221FD27C22BC22091FD
:101FF000930320FD1CC22091940320FF23C28091F3
:10200000930384FDC6C183EE90E01CC2209193032C
:1020100022FF18C2F4CF8091930382FD0BC28091FE
:10202000940380FD0AC2EBCF2091940321FF0AC2E2
:102030008091930384FDADC187EE90E003C22091AF
:10204000930323FFFFC1F4CF8091930383FDF8C175
:102050008091940381FFECCF84EE90E0F3C1209156
:10206000930325FFEFC189E290E0ECC12091930337
:1020700025FFE8C185E390E0E5C12091930326FFA9
:10208000E1C18AE290E0DEC12091930326FFDAC12C
:1020900081E390E0D7C1C11540E5D40708F047C0FF
:1020A000C11520E4D20708F034C1C83ED10518F5A7
:1020B000C03ED10508F0C6C1C83AD10570F4C53A92
:1020C000D10508F0B1C0C130D10509F4BBC108F495
:1020D00060C1249708F45DC1B5C1CF3BD10508F4B8
:1020E000AEC0C03CD10508F454C1FE01EE0FFF1F85
:1020F000EE52FA4F03C1C11530E2D30760F4C115A7
:1021000041E0D40708F09EC1C03FD10508F441C1A9
:10211000CE01906597C1C11580E3D80708F0F1C0E2
:10212000FE01FF70EE0FFF1FEE5AF84FE7C0C1151A
:1021300095E5D90708F044C0C11524E5D20708F099
:1021400002C1C11532E5D30710F5C11541E5D40729
:1021500008F0E4C08C2F837021E030E002C0220F31
:10216000331F8A95E2F73C68CE0174E09695879517
:102170007A95E1F78370382BEC2FEF70E695E695B2
:1021800040E2E49FC0011124822B932B5BC12C2FD2
:1021900026952695AE0143705527C115D34508F005
:1021A000C3C080E2289F9001112481E090E002C02A
:1021B000880F991F4A95E2F7822B932B9C6842C1A6
:1021C000C1159AE5D907A8F4C11529E5D20708F089
:1021D000C9C0C11536E5D30708F4BBC0C11548E531
:1021E000D40708F4D6C0FC2FEE27CF01806F906A89
:1021F00029C1C1158BE5D80708F4CBC0C1159CE5F2
:10220000D90708F4C2C0CE0190568115904208F05B
:10221000C0C08D2F8F710E94A121FE01FF27F062A7
:102220008F719F01382BAFC0C53AD10509F4B4C0F6
:10223000C63AD10509F0B3C082E890E403C1C83AB8
:10224000D10509F4AFC0C93AD10509F4AEC0CA3A04
:10225000D10509F4ADC0CB3AD10509F4ACC0CC3AF4
:10226000D10509F4ABC0CB3BD10509F4AAC0CC3BE6
:10227000D10509F4A9C0CD3AD10509F4A8C0C03BE5
:10228000D10509F4A7C0CE3AD10509F4A6C0CF3ACA
:10229000D10509F4A5C0C13BD10509F4A4C0C23BD6
:1022A000D10509F4A3C0C33BD10509F4A2C0C43BC6
:1022B000D10509F4A1C0C53BD10509F4A0C0C63BB6
:1022C000D10509F49FC0C73BD10509F49EC0C83BA6
:1022D000D10509F49DC0C93BD10509F49CC0CD3B93
:1022E000D10509F49BC0CE3BD10509F49AC0CA3B85
:1022F000D10509F499C080E094E4A4C0859194913B
:10230000A1C0CE019927D3FF02C0986C9BC0906CEE
:1023100099C0FE01FF70CF01906A94C0FC2FEE2798
:10232000CF01816F906A8EC090E2299F90011124A5
:1023300081E090E002C0880F991F4A95E2F7822B56
:10234000932B9A687FC0FC2FEE27CF01846F906A91
:1023500079C08C2F0E94A1218F7190E0982F88273F
:10236000906270C08C2F8F700E94A121FE0194E0BA
:10237000F695E7959A95E1F7EF70F0E0FE2FEE27DE
:10238000F0699F01282BC9015DC0CE019927906695
:1023900059C080E090E056C081E890E453C083E8E3
:1023A00090E450C082EE94E44DC089EE94E44AC0BB
:1023B0008AEE94E447C085EB94E444C086EB94E451
:1023C00041C083EB94E43EC084EB94E43BC087EBD4
:1023D00094E438C08CEC94E435C08DEC94E432C0C5
:1023E00083E895E42FC08AE895E42CC082E995E45F
:1023F00029C084E995E426C081E296E423C083E203
:1024000096E420C084E296E41DC085E296E41AC0FA
:1024100086E296E417C087E296E414C08FE694E45F
:1024200011C080E794E40EC08AE296E40BC089E311
:1024300090E008C082EE90E005C080EE90E002C01F
:1024400086EE90E0DF91CF910895CF92DF92EF92E8
:10245000FF926B017C010E94232656985E98259876
:102460002D9826982E9827982F9890E0FC01319768
:10247000E730F105A8F4E759FF4F0C94A733259AEC
:102480002D9A0EC0259A2D9A269A2E9A09C0259A21
:102490002D9A04C0259A2D9A269A2E9A279A2F9A19
:1024A000C701B601FF90EF90DF90CF90089580E2D2
:1024B00090E090930A018093090180917A03811141
:1024C0000EC00E94AE3081E080937A032FEF83ED3F
:1024D00090E3215080409040E1F700C0000064E6A6
:1024E00070E080E40E94B43090930A018093090167
:1024F000892B09F04EC064E670E080E00E940B3149
:1025000090930A0180930901892B09F042C064E687
:1025100070E080E00E940B3190930A0180930901E2
:10252000892BB9F564E670E08FE30E940B3190933C
:102530000A0180930901892B61F50E94873164E6C5
:1025400070E080E40E94B43090930A018093090106
:10255000892BF9F464E670E08CE00E940B319093D3
:102560000A0180930901892BA1F464E670E080E000
:102570000E940B3190930A0180930901892B49F441
:1025800064E670E08FE30E940B3190930A01809320
:1025900009010E948731809109010895CF93DF934B
:1025A00056985E9825982D9826982E9827982F98BB
:1025B000C8E8D0E08FEF90E099838883AAE8B0E084
:1025C00011969C938E93ECE8F0E091838083259A9A
:1025D0002D9A2FEF80E792E0215080409040E1F764
:1025E00000C00000269A2E9A2FEF80E792E021503B
:1025F00080409040E1F700C00000279A2F9A2FEF0B
:1026000080E792E0215080409040E1F700C0000058
:1026100025982D982FEF80E792E021508040904040
:10262000E1F700C0000026982E982FEF80E792E097
:10263000215080409040E1F700C0000027982F987B
:102640008091810387702FEF829FC001112495959F
:1026500087959595879599279983888311969C935B
:102660008E939183808356985E9825982D9826980E
:102670002E9827982F98DF91CF91089584B1807F6D
:1026800084B985B1807F85B98AB1837F8AB98BB1DE
:10269000837F8BB93E984698089580B38C7080BB39
:1026A00081B3836F81BB08954F925F926F927F9247
:1026B0008F929F92AF92BF92CF92DF92EF92FF9252
:1026C0000F931F93CF93DF931F92CDB7DEB7809107
:1026D000090190910A01892B91F0809179038F5F14
:1026E0008093790381110BC00E94571290E0909360
:1026F0000A0180930901892B11F40E94CE1235E85A
:10270000E32E33E0F32E4CE8C42E43E0D42E5701E1
:10271000912C10E007E0090D892D0E94090F802FF0
:102720000E94090F892D0E945D0FD5019C91981779
:1027300021F08C938824839401C0812C802F0E94E7
:102740005D0FF6019081981719F0808381E001C038
:1027500080E08829182B0E943E139394FFEFAF1A54
:10276000BF0A2FEFC21AD20A37E09312D3CF0E94CA
:10277000E5246AEF70E00E947F33BC01482F80910E
:1027800074038823D9F110927403E0917B03F091D4
:102790007C03DF011E9690E08BEF2AEFA22EB12C76
:1027A00020812B3F99F0C22ED12C421720F09B01A3
:1027B0002C193D0905C095012C193D09260F371F1D
:1027C0002E31310514F0808301C091E03196EA1773
:1027D000FB0731F790937403111102C0911110C0DF
:1027E0001092730360917B0370917C03909174034A
:1027F000E8E9F3E080E03EE03E0F32C01111F0CF97
:10280000809173038111ECCF609175037091760311
:1028100080917703909178030E948F242FB7F894CA
:10282000C090CE05D090CF05E090D005F090D105B6
:102830002FBFC0927503D0927603E0927703F09297
:102840007803409005065090060660900706709049
:102850000806AFEF4A165A066A067A06D1F43AC05D
:10286000D7012D917D015081521749F0DB015C9118
:102870005B3F21F44C93208391E001C081E06F5FC6
:102880007F4F31963E13ECCF909374038093730384
:10289000BBCFAB01BC01662777274A015B0180945F
:1028A0009094A094B09484149504A604B70420F4E2
:1028B0008FEF9FEFDC0106C0DB01CA01840D951D7F
:1028C000A61DB71D8093050690930606A0930706E4
:1028D000B0930806B090C103B11009C090910906E9
:1028E000892F837021F0A92EA694A69401C0A12C53
:1028F000809106018130A1F038F0823009F450C196
:10290000833009F45AC16AC110921601C0920106BF
:10291000D0920206E0920306F092040681E04AC1DA
:1029200080910801A81210C080910906837090E080
:102930002091070130E051E040E08217930709F44D
:1029400050E0252F342F02C021E030E0822F81702B
:10295000809318018A2D90E08531910508F00EC111
:10296000FC01E059FF4F0C94A73390911601232BE3
:1029700009F404C1F92EFF0CFF0CF90E05E00F0D50
:10298000013308F000E3F01608F0B9C020E040E0A1
:1029900060E08F2D90E00E942C20F394F4CF909172
:1029A0001601D92EDD0CDD0CD90E05E00D0D01331D
:1029B00008F000E360910A0670910B0680910C0606
:1029C0000E940721F62EE82ED01608F098C0ED2DB3
:1029D000F0E0DF01A35CBC4F8C919091170198232C
:1029E00041F02E2D4F2D672FCF0179830E942C208F
:1029F0007981D394E9CF80911601982E990C990C86
:102A0000980E05E0090D013308F000E3D0900B06A5
:102A1000C0900C0620910D0630E4329F312D112418
:102A2000901608F06CC0E92CF12CF701E35CFC4F28
:102A30008081909117019823C9F0F701EE0FFF1FD5
:102A4000E252FD4F908192959F7060910A06399FE6
:102A5000600D11247D2D8C2D39830E940721462F76
:102A6000282F672FC7010E942C2039819394D8CF3B
:102A700080911601D82EDD0CDD0CD80E05E00D0D71
:102A8000013308F000E3F0900A0670910B06E09025
:102A90000C0680910D06682F669566956695809167
:102AA00001069091020679830E94FC200E947A2000
:102AB0008058982F97FD9195990F292F3E2D239F90
:102AC000212D11246F2D7981822F0E940721F62E4E
:102AD000E82ED016A0F4ED2DF0E0DF01A35CBC4F92
:102AE0008C9190911701982341F02E2D4F2D672F37
:102AF000CF0179830E942C207981D394EACF81E0A1
:102B00000033E8F13BC08AE89CE11AC08EE59CE105
:102B100017C083E69DE11FC084E49DE11CC089E2EB
:102B20009DE11EC08EE09DE11BC08CE59CE108C0CC
:102B300083E59CE105C08AE49CE102C08FE29CE150
:102B40000E9420291CC080E29CE10AC08DEC90E22A
:102B500002C08DEF9CE10E94C42811C089EE9CE167
:102B60000E9448280CC082EF9BE105C080EC9BE1ED
:102B700002C082E89BE10E94E72701C080E09091BB
:102B800016019F5F90931601811128C082E0809307
:102B9000060180911801811121C0AA2051F01EC0A8
:102BA000A0920801809109068370809307010E941A
:102BB000B31D83E08093060111C0609101067091FE
:102BC000020680910306909104060E948F246A31C8
:102BD00071058105910510F010920601B11031C008
:102BE0008091C10381112DC08091810383FD29C093
:102BF0006091C1057091C2058091C3059091C40593
:102C00000E942326823069F028F4813091F481E01B
:102C100090E00CC0833041F0843059F484E090E0BF
:102C200005C082E090E002C083E090E00E946D0E5B
:102C300008C080911701811104C040E060E00E944B
:102C40002A20812F0F90DF91CF911F910F91FF903C
:102C5000EF90DF90CF90BF90AF909F908F907F903C
:102C60006F905F904F900895E8EDF0E080818E7F47
:102C700080831092E2001092DA001092E100A0EE40
:102C8000B0E08C9181608C9380818F77808319BCB8
:102C9000A7EDB0E08C918E7F8C9380818F7E8083B6
:102CA0001092C00308951F920F920FB60F92112435
:102CB0002F933F934F935F936F937F938F939F9344
:102CC000AF93BF93CF93DF93EF93FF93C091E9004E
:102CD000CF708091EC00D82FD17080FDD0E8109299
:102CE000E9008091F000877F8093F00078940E9443
:102CF000A1291092E9008091F00088608093F00093
:102D0000CD2BCF70C093E900FF91EF91DF91CF9170
:102D1000BF91AF919F918F917F916F915F914F91F3
:102D20003F912F910F900FBE0F901F9018952091FB
:102D3000E4003091E50095E64091EC00842F81702D
:102D400040FF22C08091E80080FD1CC08091F70503
:102D5000882391F0853091F08091EB0085FD10C0C3
:102D60004091E4005091E5004217530729F39A017E
:102D7000915011F784E0089582E0089583E008956A
:102D800081E0089580E008954091E80042FFDECFA1
:102D900008958091F90587FF11C08091E80082FDB8
:102DA00005C08091F7058111F8CF11C08091E8002E
:102DB0008B770BC08091F705882349F08091E8005C
:102DC00080FFF8CF8091E8008E778093E800089527
:102DD000982F973058F59093E900981739F0709133
:102DE000EC002091ED005091F00003C0242F762FCD
:102DF00050E021FF19C03091EB003E7F3093EB0093
:102E00003091ED003D7F3093ED003091EB0031606B
:102E10003093EB007093EC002093ED005093F000A2
:102E20002091EE0027FF07C09F5FD3CF8F70809364
:102E3000E90081E0089580E00895CF92DF92EF925B
:102E4000FF920F931F93CF93DF93C8EDD0E088815B
:102E50008F7E8883E7EDF0E080818160808384E06D
:102E600082BF81E08093C00388818E7F888302EED9
:102E700010E0F80110821092DA0081EEC82ED12CF9
:102E8000F601108288818F778883888180688883A3
:102E900088818F7D888319BC1092F7051092F80500
:102EA0001092F6051092F50590EEE92EF12CF7013F
:102EB00080818B7F808388818160888342E060E0AD
:102EC00080E00E94E816F60180818E7F8083F80101
:102ED000808181608083808188608083F701808128
:102EE0008E7F8083888180618883DF91CF911F915D
:102EF0000F91FF90EF90DF90CF9008951F920F9267
:102F00000FB60F9211242F933F934F935F936F93BC
:102F10007F938F939F93AF93BF93EF93FF93809192
:102F2000E10082FF09C08091E20082FF05C080912C
:102F3000E1008B7F8093E1008091DA0080FF2AC05E
:102F40008091D80080FF26C08091DA008E7F809328
:102F5000DA008091D90080FF18C080E189BD82E14C
:102F600089BD09B400FEFDCF81E08093F705809113
:102F7000C00381110FC00E9434160E941D1780915A
:102F8000E20084608093E20005C019BC1092F7054E
:102F90001092C0038091E10080FF17C08091E20091
:102FA00080FF13C08091E2008E7F8093E2008091C9
:102FB000E20080618093E2008091D800806280937B
:102FC000D80019BC85E08093F7058091E10084FF6B
:102FD00034C08091E20084FF30C080E189BD82E18D
:102FE00089BD09B400FEFDCF8091D8008F7D80930C
:102FF000D8008091E1008F7E8093E1008091E20013
:103000008F7E8093E2008091E20081608093E200F5
:103010008091F805882311F084E007C08091E300D7
:1030200087FD02C081E001C083E08093F7050E9424
:10303000DB2E0E9411201092C1038091E10083FFDA
:1030400027C08091E20083FF23C08091E100877F49
:103050008093E10082E08093F7051092F80580915B
:10306000E1008E7F8093E1008091E2008E7F80936B
:10307000E2008091E20080618093E20042E060E043
:1030800080E00E94E8168091F00088608093F00054
:10309000FF91EF91BF91AF919F918F917F916F9130
:1030A0005F914F913F912F910F900FBE0F901F9006
:1030B00018952091FF05309100062617370748F034
:1030C0006115710539F42091E8002E772093E8000E
:1030D00001C0B90140E061157105A9F12091F70522
:1030E000222309F443C0253009F442C02091E800AE
:1030F00023FD40C02091E80022FD32C02091E8006D
:1031000020FFE9CF4091F3002091F20030E0342B12
:10311000FC01CF016115710559F02830310540F4EB
:1031200081918093F100615071092F5F3F4FF1CF82
:1031300041E02830310509F040E02091E8002E7789
:103140002093E800C8CF4111C9CF0AC08091F7058C
:10315000882361F0853061F08091E80083FD0AC02A
:103160008091E80082FFF2CF80E0089582E0089528
:1031700083E0089581E008958091BF03811107C025
:103180008091F705843011F081E0089582E0089580
:10319000CF93DF93CDB7DEB72A970FB6F894DEBF93
:1031A0000FBECDBF84B7877F84BF0FB6F894A895B4
:1031B00080916000886180936000109260000FBE73
:1031C00080E8809361001092610085B7806885BFB8
:1031D00085B7806885BF0E9434160E941D178091B4
:1031E000E20084608093E20078948091F705882360
:1031F000A1F01091E9001F709091EC00892F81706F
:1032000090FD80E8182B1092E9008091E80083FD82
:103210000E94A1291F701093E90082E084BD93E011
:1032200095BD9AEF97BD80936E000E94571290E073
:1032300090930A01809309010E943E130E944D134E
:10324000A5E8B3E0E8E9F3E01EE0E12EEE0E11920E
:103250001D92EE12FCCF8EE090E00E94AD33809381
:103260007B0390937C03FC010E962BEF2193E817D0
:10327000F907E1F70E94A425811102C00E94AF2541
:103280000E944E1E0E94A425811104C00E94AF25F9
:103290000E946E2045E050E06CE170E089E096E02D
:1032A0000E948B31809109068C7F11F40E946E2060
:1032B0008CE090E00E949B3190E0A0E0B0E0809331
:1032C0007D0390937E03A0937F03B093800389EAEC
:1032D0008093800089E08093810024982C983F9807
:1032E0008AB18F7C8AB96E98479A8BB180638BB90B
:1032F000769A8FE090E00E94A331609381037093EF
:103300008203809383039093840367708FEF869F7B
:10331000B00111247595679575956795772770931A
:1033200089006093880070938B0060938A0070938B
:103330008D0060938C009091810394FF03C0809373
:10334000170102C0109217010E94CE120E94A425FC
:10335000811102C00E94AF2582E090E00E949B3163
:103360008093B0030E9493259093940380939303DA
:1033700083E090E00E949B31682F70E080E090E055
:103380000E94D3270E941D200E941D200E942E20F3
:103390008BE091E09093960380939503FF24F39440
:1033A00099249A94CC24C394D12C50E1452E62E107
:1033B000562E78E1A72EB12CE0E48E2E8091F705F1
:1033C000853009F052C040E060E080E00E942A2091
:1033D000F092C1038091F705843041F11092970378
:1033E0000FB6F894A895A09260000FBE809260007E
:1033F00040E060E080E00E942A20F092C10383B7A1
:10340000817F846083BF83B7816083BF7894889510
:1034100083B78E7F83BF0FB6F894A8958091600024
:10342000886180936000109260000FBE8091F60565
:10343000882309F4C3CF0E94571290E090930A01A9
:10344000809309010E943E130E944D13E8E9F3E0C6
:103450001192EE12FDCF0E945413E8E9F3E081913E
:103460008111F2C0EE12FBCFA9CF0E945413E1EB01
:10347000F3E0A8E9B3E000E010E0702F6D91219136
:103480002627B1F180E090E030E0782EA901082EE7
:1034900002C0559547950A94E2F740FF25C08983FD
:1034A0007A83C60102C0880F991F7A94E2F73C0123
:1034B000862F90E08621972121E0892B09F420E0D6
:1034C0002B830E94E5248160782F9D838C83498122
:1034D0005A816B818D810E94111FF801EF54FC4FBE
:1034E00080816826608219C001968630910569F650
:1034F0000F5F1F4F0E30110509F0BFCF9E829F82D4
:1035000018860E94E5248160782F9A8789874E81EA
:103510005F8168858A850E94111F8091AD0390911B
:10352000AE030E94BB249C019091AC03992321F02F
:103530002431310508F47CC08091A8031091A903BF
:1035400081110BC0111194C02091AA03211190C0C8
:103550002091AB0321118CC06BC09F3F19F09F5F7E
:103560009093AC03181624F40E94DE238093A803E2
:103570008091A80387FF05C00E94DE238195809378
:10358000A803111624F40E94DE238093A9038091DE
:10359000A90387FF05C00E94DE2381958093A903BC
:1035A0003091A803332301F12091A9032223E1F0F4
:1035B00045EB3403C0011124892F990F990B009713
:1035C00019F08093A80302C0F092A80335EB2303FF
:1035D000C0011124892F990F990B009719F080933E
:1035E000A90302C0F092A9038091AA03181624F43B
:1035F0000E94BC238093AA038091AA0387FF05C081
:103600000E94BC2381958093AA038091AB03181676
:1036100024F40E94BC238093AB038091AB0387FF0B
:1036200005C00E94BC2381958093AB030E94F124C6
:103630001091AF030E941120181709F4BFCE0E9409
:1036400011208093AF03BACE49BC59BC09B400FE27
:10365000FDCF8091D8008F7D8093D8008091E000CD
:1036600082608093E0008091E00081FDFCCFA6CED7
:103670009F3F09F074CF7CCF8033910540F5880FD0
:10368000991F880F991FFC01EF5DFE4F5281338116
:10369000808183707181A82FB0E0E0E98E9FC00126
:1036A000112488529C4FFC01E70FF11DB4976083F1
:1036B000FC01E50FF11DB4974083830F911DFC01C0
:1036C000B4972083FD01EA52FC4F81E08083089586
:1036D000FF920F931F93CF93DF93182F062FF42E93
:1036E000C0E0D0E02F2D402F612FCE010E943C1B67
:1036F0002196C033D105B1F7DF91CF911F910F9182
:10370000FF9008950F931F9310E0F801EE0FFF1F35
:10371000E352FD4F9081905797FD9195000F111F37
:10372000F801E252FD4FE081F0E0B097DF01AA0F0F
:10373000BB1F8D010E0F1F1F2003D001219FB00D55
:103740001124E8E3F0E0E91BF10997FDF3959F01EF
:10375000220F331F89010E0F1F1F40039001419F4D
:10376000300D11242A0F3B1F37FF02C021583F4F55
:10377000220F232F221F330B620F1F910F910895E9
:103780000F931F93522F10E0F801EE0FFF1FE2522C
:10379000FD4FE081F0E0B097EE0FFF1F9F01520355
:1037A000D001539FB00D1124000F111FF801E352F7
:1037B000FD4F008110E000571109000F111F400359
:1037C0009001419F300D11242A0F3B1F37FF02C08B
:1037D00021583F4F220F232F221F330B620F1F91BF
:1037E0000F9108950F931F93522F10E0F801EE0FE1
:1037F000FF1FE252FD4FE081F0E0B0979F015203BE
:10380000D001539FB00D1124000F111FF801E35296
:10381000FD4F008110E00057110940039001419FC6
:10382000300D11242A0F3B1F37FF02C021583F4F94
:10383000220F232F221F330B620F1F910F91089528
:10384000EF920F931F9393E0099F80011124159528
:1038500007956E2D600F1F910F91EF90089550E026
:10386000FA01EE0FFF1FE252FD4F9081905297FD3B
:103870009195440F551FFA01E352FD4F408150E0EE
:10388000FA01E21BF1099F01290F311D97FD3A95BD
:10389000620F0895E42FF0E0EE0FFF1FE252FD4F9C
:1038A0006081621B0895E42FF0E0EE0FFF1FE352EA
:1038B000FD4F6081621B0895622F0895E42FF0E0B0
:1038C000EE0FFF1FE352FD4F408134EE439F412D29
:1038D0001124E82FF0E050E0445E5F4FDA01A21BB4
:1038E000B1099D01B7FF03C031952195310993E0DE
:1038F000220F331F9A95E1F7AF01421B530B9A0138
:1039000057FF02C020E030E0582F259F212D1124C1
:10391000822F0895E42FF0E0EE0FFF1FE352FD4FDA
:10392000408134EE439F412D1124E72FF0E050E019
:10393000445E5F4FDA01A21BB1099D01B7FF03C0CE
:1039400031952195310993E0220F331F9A95E1F7C4
:10395000AF01421B530B9A0157FF02C020E030E039
:10396000279F212D1124722F0895FC01CB01309740
:1039700021F477FF2CC080E808959F01F7FF04C071
:10398000222733272E1B3F0BBC01621B730B280F12
:10399000391F97FD0DC0CB0145E0880F991F4A954F
:1039A000E1F7B9010E94933380E2861B682F09C0BA
:1039B000C90125E0880F991F2A95E1F70E949333EA
:1039C000605A862FF7FF02C081950895089580E020
:1039D0000895EF920F93CF93DF93D72FC82FC9018C
:1039E0000E19BA010E94B51C602F681B7D2F8C2F09
:1039F000DF91CF910F91EF9008950F93CF93DF93C5
:103A0000D72FC82FC901BA010E94B51C682F600FBB
:103A10007D2F8C2FDF91CF910F910895EF920F930F
:103A20001F93CF93DF93D62FC72F182FC9010E19DD
:103A3000010FBA010E94B51C081B019F012D112422
:103A40006D2F7C2F802FDF91CF911F910F91EF90E1
:103A50000895EF920F931F93CF93DF93D62F172FD5
:103A6000C82FC9010E19070FBA010E94B51C081B07
:103A7000702F719F712D11246D2F8C2FDF91CF919D
:103A80001F910F91EF900895FF920F931F93CF9383
:103A9000DF93F62ED72F182FC901C12FC01BBA01F3
:103AA0000E94B51C982F880F980F2C2F291B219F3F
:103AB000212D11246F2D7D2F822FDF91CF911F910A
:103AC0000F91FF900895FF920F931F93CF93DF9371
:103AD000F62E172FD82FC901C72FC01BBA010E947D
:103AE000B51C982F880F980FC91B7C2F719F712DC3
:103AF00011246F2D8D2FDF91CF911F910F91FF908A
:103B00000895EF92FF921F93CF93DF937B01182FBD
:103B1000110FC0E0D0E08C2F8C5D8093C20320E0B9
:103B200030E0F901EC0FFD1FEE0DFF1D8081F90162
:103B3000EE53FC4F81832F5F3F4F2031310589F7D2
:103B400024E630E041E150E062EC73E0812F0E9416
:103B500060316096C039D105F1F6DF91CF911F91A8
:103B6000FF90EF9008958091D603882329F068EDA7
:103B700073E084E70E94811D1092D6038091D703E1
:103B8000882329F068E674E087E70E94811D10927F
:103B9000D7030895E2ECF3E06083418324E630E04C
:103BA00042E050E0BF01880F0C946031FF920F9308
:103BB0001F93CF93DF93E62FF0E0E45EFA4F9081FE
:103BC0009923B1F0F82E82E1689FE001112400E012
:103BD00010E0F801EC0FFD1FE850FB4F4081602F13
:103BE0008F2D0E94CA1D0F5F1F4F0231110589F7EB
:103BF000DF91CF911F910F91FF900895CF93DF93A5
:103C0000C82F4BE06DEF0E94CA1D40E06AE08C2F88
:103C10000E94CA1D8FE39CE90197F1F700C00000E4
:103C200040E060E08C2F0E94CA1D40E061E08C2FD4
:103C30000E94CA1D40E066E08C2F0E94CA1D40E031
:103C40006DEF8C2F0E94CA1DD0E040E06D2F8C2FAD
:103C50000E94CA1DDF5FD231C1F740E06D2F8C2F6B
:103C60000E94CA1DDF5FD432C1F740E06D2F8C2F58
:103C70000E94CA1DDF5FD43BC1F74BE06DEF8C2F74
:103C80000E94CA1D41E06AE08C2F0E94CA1D40E0DC
:103C90006DEF8C2FDF91CF910C94CA1D6F927F92A4
:103CA0008F929F92AF92BF92CF92DF92EF92FF924C
:103CB0000F931F93CF93DF930E94AE3084E70E944F
:103CC000FE1D87E70E94FE1DE4E2EE2EE1E0FE2EDF
:103CD000C12CD12CF2E17F2EA8E08A2E912CAA24AF
:103CE000A394B12C66246394F7013297608170E04D
:103CF000CB0184973196C081D0E0A497D701EC9195
:103D0000F0E0B497D601AA0FBB1FAA0FBB1FAF5D8F
:103D1000BE4F2C91237030E0AC0197FF02C0495F89
:103D20005F4F63E0559547956A95E1F7729E800174
:103D3000739E100D1124040F111D08501B4FB40168
:103D40000E949333A50102C0440F551F8A95E2F7E4
:103D5000CA01D8019C91892B8C93CE01D7FD07967F
:103D600053E0959587955A95E1F7729E8001739E71
:103D7000100D1124080F111D08501B4FCE01B40166
:103D80000E949333A50102C0440F551F8A95E2F7A4
:103D9000CA01D8019C91892B8C93CF01F7FD07961E
:103DA00043E0959587954A95E1F7729EE001739EF1
:103DB000D00D1124C80FD11DC850DB4FCF01B40165
:103DC0000E949333A50102C0440F551F8A95E2F764
:103DD000CA019881892B8883F901E45EFA4F6082D9
:103DE0005FEFC51AD50A84E0E80EF11CA0E3CA16FD
:103DF000D10409F079CF60E084E70E94D61D61E02C
:103E000087E7DF91CF911F910F91FF90EF90DF90A7
:103E1000CF90BF90AF909F908F907F906F900C94B9
:103E2000D61DEF92FF920F931F93CF93DF93CDB7E1
:103E3000DEB767970FB6F894DEBF0FBECDBF4B8BD2
:103E40005C8B6D8B7E8B8F8B0E891F890115110505
:103E5000C1F15F3F11F44F3FA1F1E42EF12CA1E03D
:103E6000B0E0042E01C0AA0F0A94EAF7852F90E073
:103E7000662319F020910F0606C09C012C5D3A4F75
:103E8000F90120812A232223A9F046E0489F9001CE
:103E9000499F300D1124F701E20FF31FEE0FFF1FB2
:103EA000EF51FE4F40815181FC01EC5DFA4F908152
:103EB000A92B06C0FC01EC5DFA4FA0958081A823D8
:103EC000A08386E0FE013D96DF01982F1D929A9512
:103ED000E9F74D875E876F87198B088BDE01179690
:103EE00001900D928A95E1F7CE0107960E94F62C7B
:103EF000811137C086E0FE013796DE0111960190F0
:103F00000D928A95E1F7FF81E8856A857B856115C9
:103F1000710539F1EF3F11F4FF3F19F12091580578
:103F200030E0C9010196877099274091890550E0DA
:103F30008417950779F1F983EA837D836C8396E092
:103F4000929FD001939FB00D1124A75ABA4FFE0142
:103F5000319601900D929A95E1F7809358050E9451
:103F6000DD2716E08091890590915805891701F1A8
:103F7000189FC0011124875A9A4F0E94F62C88235B
:103F8000B9F08091890590E0019687709927809318
:103F90008905E8CF0E94DB2E109258051092890502
:103FA000E2E5F5E086E0DF011D928A95E9F7D9CFD9
:103FB00067960FB6F894DEBF0FBECDBFDF91CF91ED
:103FC0001F910F91FF90EF9008952091220530915D
:103FD00023058217930771F09093230580932205A0
:103FE000E0919503F0919603309721F00084F185DC
:103FF000E02D099408952091200530912105821724
:10400000930771F09093210580932005E09195032B
:10401000F0919603309721F00680F781E02D099406
:104020000895E0919503F0919603309721F0019067
:10403000F081E02D099480E0089580910906837055
:1040400011F410920601809109068C7F81608093A3
:10405000090608950C94681B0C943C1B45E050E045
:104060006CE170E089E096E00C94AF31E9E0F6E0B5
:10407000880F880F90819370892B8083109206019E
:104080000C942E2090910906892F86958695815C47
:104090008F739370882321F0880F880F892B02C0BB
:1040A000892F806580930906109206010C942E20BA
:1040B00090910906892F869586958F5F8F739370EF
:1040C000853120F4880F880F892B02C0892F8460E6
:1040D00080930906109206010C942E20E9E0F6E088
:1040E0008DE2808311828FEF828383838FE78483C5
:1040F0000C942E20482F982F46FD9095E92FEF73B2
:104100009F7046FD9F5FE295EF70EE0FF0E0E75E77
:10411000FE4F2181299F802D212D112482958F70A2
:104120002295207F822B3081982F930F892F47FD76
:10413000819580580895BC018230910508F4089556
:10414000613E8EE1780748F49B0195E0369527950E
:104150009A95E1F748E0420F01C04FEF91E0242F1C
:1041600030E0290F311D35952795229FF001239FBF
:10417000F00DF00D11246E177F0718F44FEF420F6A
:1041800005C02F3F310539F091E0920F491738F7FC
:104190008FEF890F08958FEF08950F931F93CF939B
:1041A000DF931F92CDB7DEB7182F47FD4195E8E3A7
:1041B000F0E0CF01841B910947FD9395889FF001A2
:1041C000899FF00DF00D1124229FC001239F900DB7
:1041D000900D11248E0F9F1F79830E949B20982F92
:1041E000880F980F692F600F7981812F0F90DF91D1
:1041F000CF911F910F91089520E030E0A901869F93
:10420000412D969F400D511D1124CA010895AF9272
:10421000BF92CF92DF92FF920F931F93CF93DF93C2
:10422000D62E372FE82FF0E0711106C0EE5AF84F66
:104230006491762F862F75C0C72FD0E0EE5AF84FC5
:104240002491F22E022F10E046E0649FC001112459
:10425000EFEFF0E0BF010E947F33AB016BEA640334
:10426000C001659F900D11248D0D911D8D0D911D27
:10427000982F990F890FDF01AC1BBD0B0A9FB0016E
:104280000B9F700D1A9F700D1124972F839FD001E3
:104290001124AB2FBB276F01CA1ADB0A0C9DD0017A
:1042A0000D9DB00D1C9DB00D11245F01A81AB10821
:1042B000AC9E6001AD9ED00CBC9ED00C1124CD2DC7
:1042C000DD27EC1BFD0B0E9FE0010F9FD00D1E9F05
:1042D000D00D1124ED2F4230510591F04CF44115D1
:1042E0005105E1F041305105B9F4E22F2B2F16C0F2
:1042F0004430510569F044F04630510579F00CC066
:10430000E22F272F9D2F0AC0272F9F2DEB2F06C0AE
:10431000E72F922F2D2F02C0E72F9B2F6E2F722F8A
:10432000892FDF91CF911F910F91FF90DF90CF9058
:10433000BF90AF90089560917D038CE090E00C9465
:10434000BF319091930392FF0DC0282F2871283020
:1043500019F4877F846006C0282F2471243011F45B
:104360008B7F886093FF0DC0282F2871283119F4A6
:10437000877E846106C0282F2471243111F48B7E3E
:1043800088612091940320FF0DC0382F3871383098
:1043900019F4877F816006C0382F3171313011F4F4
:1043A0008E7F886021FF0DC0282F2871283119F4D5
:1043B000877E816106C0282F2171213111F48E7E04
:1043C000886194FD877E08950F931F93CF93DF93A9
:1043D000C62FD42F022FFC0182818823C9F060935D
:1043E0006F030E94E52490931F0580931E0580E2D1
:1043F0008C0F883008F050C0C77081E001C0880F72
:10440000CA95EAF7DF91CF911F910F910C94102F6D
:1044100010916F03161330C080911E0590911F05F7
:104420000E94BB24883C910538F5C0E2CD0F1D17D2
:10443000B9F080E2810F883040F4177081E001C04C
:10444000880F1A95EAF70E94052FC83048F481E0DA
:104450009D2F977001C0880F9A95EAF70E94102F40
:10446000802F0E94812FC830B8F4D77081E001C03E
:10447000880FDA95EAF70AC080E28C0F883060F482
:10448000C77081E001C0880FCA95EAF7DF91CF912C
:104490001F910F910C94052FDF91CF911F910F91D8
:1044A00008958091D4050895CF93DF9300D01F9293
:1044B000CDB7DEB72091F705243031F523E029830D
:1044C000805891099B838A8382E08093E9008FEF73
:1044D0009091E800815095FD06C095ED9A95F1F711
:1044E00000008111F5CF8091E80085FF0DC040E00C
:1044F00050E063E070E0CE0101960E946A2980914D
:10450000E8008E778093E8000F900F900F90DF9176
:10451000CF9108950F931F93CF93DF9300D01F92F5
:10452000CDB7DEB78C010E94BC18823011F0843008
:1045300021F584E089831B830A8382E08093E9006C
:104540008FEF9091E800815095FD06C095ED9A950A
:10455000F1F700008111F5CF8091E80085FF0DC0D3
:1045600040E050E063E070E0CE0101960E946A29CD
:104570008091E8008E778093E8000F900F900F9065
:10458000DF91CF911F910F910895CF93DF93EC01AD
:104590000E94BC18823011F08430F9F482E08093DC
:1045A000E9009FEF8091E800915085FD06C085ED00
:1045B0008A95F1F700009111F5CF8091E80085FF11
:1045C0000CC040E050E066E070E0CE010E946A2935
:1045D0008091E8008E778093E800DF91CF91089575
:1045E000CF93DF93EC010E94BC18823011F084302D
:1045F000D9F580911501882339F08091930387FFC5
:1046000003C060E282E002C068E081E08093E900DC
:104610008FEF9091E800815095FD06C095ED9A9539
:10462000F1F700008111F5CF8091E80085FF1CC0F3
:1046300080911501811105C040E050E068E070E014
:1046400003C070E040E050E0CE010E946A298091F2
:10465000E8008E778093E80080E2FE01A5EDB5E0EA
:1046600001900D928A95E1F7DF91CF910895803FF7
:1046700039F48091A90387FF6CC01092A90369C027
:10468000813F29F48091A9031816BCF362C0909170
:10469000A803823F29F497FF5CC01092A80359C079
:1046A000833F19F41916CCF354C0893F41F480912B
:1046B000AA0318160CF04DC01092AA034AC08A3FF4
:1046C00029F48091AA0387FF44C0F6CF8B3F39F4C9
:1046D0008091AB0387FF3DC01092AB033AC08C3F83
:1046E00029F48091AB031816BCF333C0843F21F446
:1046F0008091A7038E7F17C0853F21F48091A70387
:104700008D7F11C0863F21F48091A7038B7F0BC062
:10471000873F21F48091A703877F05C0883F31F44C
:104720008091A7038F7E8093A70313C08D3F21F450
:104730008091D2058E7F0BC08E3F21F48091D205EF
:104740008D7F05C08F3F29F48091D2058B7F8093A8
:10475000D2058091A80381110EC08091A903811117
:104760000AC08091AA03811106C08091AB03811118
:1047700002C01092AC0308958091D20580FD16C04E
:1047800081FD16C082FD18C08091AC03882391F092
:10479000883290F428E0829FC001112468E270E022
:1047A0000E949333862F672B29F007C082E008957B
:1047B00084E0089581E0089588E008958091D2050D
:1047C00080FD17C081FD17C082FD19C08091AC0328
:1047D000882399F08C3398F423E2829FC00111243E
:1047E0006CE370E00E949333862F672B49F481E0DD
:1047F000089588E0089581E1089585E0089583E2B1
:104800000895803F21F40E94DE23819504C0813FFA
:1048100029F40E94DE238093A9030895823F21F4A6
:104820000E94DE23819504C0833F29F40E94DE2389
:104830008093A8030895893F19F40E94BC2305C002
:104840008A3F31F40E94BC2381958093AA03089586
:104850008B3F21F40E94BC23819504C08C3F29F436
:104860000E94BC238093AB030895843F21F4809180
:10487000A703816017C0853F21F48091A703826060
:1048800011C0863F21F48091A70384600BC0873F4D
:1048900021F48091A703886005C0883F31F480919E
:1048A000A70380618093A70308958D3F21F4809131
:1048B000D20581600BC08E3F21F48091D2058260C9
:1048C00005C08F3F29F48091D20584608093D20582
:1048D000089578941F920F920FB60F9211248F9320
:1048E0009F93AF93BF938091CE059091CF05A091F8
:1048F000D005B091D1050196A11DB11D8093CE05C3
:104900009093CF05A093D005B093D105BF91AF91FF
:104910009F918F910F900FBE0F901F901895CF927F
:10492000DF92EF92FF920F931F932FB7F894C090EE
:10493000CE05D090CF05E090D005F090D1052FBFE7
:1049400097018601061B170B280B390BC616D706D5
:10495000E806F90618F0C901B80106C0C901B80196
:1049600061507109810991091F910F91FF90EF909A
:10497000DF90CF900895CF92DF92EF92FF920F9346
:104980001F932FB7F8944091CE055091CF056091B9
:10499000D0057091D1052FBF6A017B01EE24FF2461
:1049A0008C0120E030E0C016D106E206F30610F4D8
:1049B000415051099A01281B390BC9011F910F91D0
:1049C000FF90EF90DF90CF9008952FB7F8948091EB
:1049D000CE059091CF05A091D005B091D1052FBF04
:1049E0000895E0919503F0919603309749F082E0A5
:1049F0008093A6030480F581E02D86EA93E0099573
:104A00000E94E5249093AE038093AD0308951F9216
:104A10000F920FB60F9211248F939F93AF93BF9372
:104A200080919703811113C08091CE059091CF059D
:104A3000A091D005B091D1054196A11DB11D8093E3
:104A4000CE059093CF05A093D005B093D105BF912B
:104A5000AF919F918F910F900FBE0F901F9018955F
:104A600020911501222321F02091930327FD04C0FA
:104A7000FC013296089619C0262F26952695269574
:104A80002E31C0F4FC01E20FF11D677081E090E06F
:104A900001C0880F6A95EAF7809592818923828305
:104AA00008953196E817F90729F020812613F9CFE8
:104AB0001082F7CF089520911501222321F0209133
:104AC000930327FD05C0FC0132962FEF30E019C09B
:104AD000262F2695269526952E3120F5FC01E20FEE
:104AE000F11D677081E090E001C0880F6A95EAF7D8
:104AF0009281892B828308952F3F39F03F5F3630B2
:104B000041F041914613F8CF0DC04111F7CF232F4B
:104B1000F5CF2F3F39F0FC01E20FF11D27FDFA958B
:104B2000628308950895CF9384E090E00E949B31C2
:104B3000C82F81E290E00E949B312C2F30E0A90128
:104B4000582BCA01CF91089580E090E00E94A931CE
:104B500021E08F3E9E4F09F020E0822F08956FEEF6
:104B60007EEF80E090E00E94DD3160E082E090E046
:104B70000E94BF3160E083E090E00E94BF3110925C
:104B8000CA051092CB051092CC051092CD0560E0BD
:104B900084E090E00E94BF3160E081E290E00E94FA
:104BA000BF3160E085E090E00E94BF3160E086E0C8
:104BB00090E00E94BF316FEF87E090E00E94BF312C
:104BC00040E050E0BA0188E090E00E94D13160E01E
:104BD0008DE090E00E94BF3140E050E0BA0188E1F2
:104BE00090E00E94D13160E087E190E00E94BF3107
:104BF00040E050E0BA018CE190E00E94D13160E0E9
:104C000080E290E00E94BF311092810310928203F3
:104C1000109283031092840384E080618093810367
:104C200040918103509182036091830370918403CA
:104C30008FE090E00E94D13140E050E0BA0183E182
:104C400090E00C94D131CF92DF92EF92FF926C0101
:104C5000EE24FF24C114D104E104F10421F0C701C2
:104C6000B60120E101C020E0C72ED82EE92EFF2496
:104C7000C114D104E104F10419F0285FC701B601A1
:104C80006B017C0154E0F694E794D794C7945A954D
:104C9000D1F7C114D104E104F10419F02C5FC7016C
:104CA000B6016B017C0142E0F694E794D794C79477
:104CB0004A95D1F7C114D104E104F10419F02E5F33
:104CC000C701B601DC01CB01B695A79597958795ED
:104CD000892B8A2B8B2B09F02F5F822FFF90EF906F
:104CE000DF90CF9008958091C90581111092C90578
:104CF00008959091C7058091C805892B2091C6051C
:104D0000982F922B909332058091C9058823D9F072
:104D1000892B8093320580911501882331F0809191
:104D2000930387FF02C08EE101C086E0E4E3F5E073
:104D300090E0815028F021912223D9F39F5FF9CF91
:104D400091110E947326E0919503F091960330979C
:104D5000A9F080911501882359F08091930387FF72
:104D600007C0809132058093330585E0809332053A
:104D70000280F381E02D82E395E009940895BF92CB
:104D8000CF92DF92EF92FF920F931F93CF93DF9317
:104D90008C01C090CA05D090CB05E090CC05F09076
:104DA000CD058091C1059091C205A091C305B09138
:104DB000C405C82AD92AEA2AFB2ACFE1D0E0D701C4
:104DC000C6010C2E04C0B695A795979587950A94B1
:104DD000D2F780FF07C0BC2EB8018C2F0E94AC0F09
:104DE000019719F4219758F7B12C8B2DDF91CF91B2
:104DF0001F910F91FF90EF90DF90CF90BF9008959B
:104E0000CF93DF93EC010E94BF26BE010E94AC0F3E
:104E1000DF91CF910895292F220F920F990F890FBB
:104E2000682F669566956695982F977085E0689FC0
:104E3000B001112440E050E080E0FA01E60FF71FD6
:104E4000E657FA4F208130E0092E02C036952795AB
:104E50000A94E2F721703327042E01C0220F0A942E
:104E6000EAF7822B4F5F5F4F4530510531F70895C8
:104E7000292F220F920F990F890FA82FA695A6957B
:104E8000A695877051E001C0550F8A95EAF785E035
:104E9000A89FD001112420E030E070E0F901EA0F72
:104EA000FB1FE657FA4F4081CB01022E02C09695B8
:104EB00087950A94E2F78170992781958427852345
:104EC000842780832F5F3F4F2530310539F70895C0
:104ED0000E9425126093C1057093C2058093C3059B
:104EE0009093C4050C94C02E0F931F9341E050E0A3
:104EF00060E070E004C0440F551F661F771F8A955D
:104F0000D2F740955095609570958091C10590912C
:104F1000C205A091C305B091C4058A019B01082375
:104F200019232A233B23C901B8011F910F910C9427
:104F300068272091C505809582238093C505982F09
:104F4000977079F430E0482F082E000C550B241789
:104F5000350739F08595859585950E9474271092BF
:104F6000C50508950F931F9341E050E060E070E0A5
:104F700004C0440F551F661F771F8A95D2F7809192
:104F8000C1059091C205A091C305B091C4058A01E5
:104F90009B01082B192B2A2B3B2BC901B8011F9110
:104FA0000F910C9468276093CA057093CB0580938A
:104FB000CC059093CD050C94C02E809189059091DD
:104FC0005805891719F08F5F8770FBCF08959F925E
:104FD000AF92BF92CF92DF92EF92FF920F931F9307
:104FE000CF93DF936C0180911601C82FCC0FCC0FAB
:104FF000C80FD5E0DC0FD13308F0D0E360910D0687
:105000006695669580910106909102060E94FC20AB
:10501000182F80E4810F0E947A2090E8F92EF80E74
:10502000812F0E947A2020E8922E980ECD1700F54D
:10503000AC2EB12CF501E35CFC4F808190911701FF
:105040009823A1F060910A0670910B0680910C06DE
:10505000E12E0C2F292D4F2DF60109950E940721D5
:10506000462F282F672FC5010E942C20CF5FDECF4F
:1050700081E0D03308F080E0DF91CF911F910F9154
:10508000FF90EF90DF90CF90BF90AF909F900895EA
:105090006F927F928F929F92AF92BF92CF92DF9248
:1050A000EF920F931F93CF93DF934C0180911601E2
:1050B000C82FCC0FCC0FC80FD5E0DC0FD13308F0D0
:1050C000D0E360910D0666958091010690910206ED
:1050D0000E94FC20182FCD1708F044C06C2E712CB4
:1050E000F301E35CFC4F9081809117018923C1F1AA
:1050F000F301EE0FFF1FE352FD4FC080D12C80E77C
:10510000C81AD108F301EE0FFF1FE252FD4FA08035
:10511000B12CE0E2AE1AB108CC9C9001CD9C300DD0
:10512000300D1124AA9CC001AB9C900D900D112450
:10513000820F931F0E949B20082F60910A06709196
:105140000B0680910C06E12E9501A601F40109954C
:105150000E940721462F282F672FC3010E942C2071
:10516000CF5FB9CF81E0D03308F080E0DF91CF91FD
:105170001F910F91EF90DF90CF90BF90AF909F90D5
:105180008F907F906F900895CF92DF92EF92FF9271
:105190000F931F93CF93DF937C0180911601C82F4B
:1051A000CC0FCC0FC80FD5E0DC0FD13308F0D0E323
:1051B00060910D06669580910106909102060E940D
:1051C000FC20182FCD1778F5CC2ED12CF601E35CFE
:1051D000FC4F908180911701892319F1F601EE0FA0
:1051E000FF1FE252FD4F208130E020523109F601CD
:1051F000EE0FFF1FE352FD4F408150E04057510931
:1052000060910A0670910B0680910C06012FF70140
:1052100009950E940721462F282F672FC6010E945B
:105220002C20CF5FCFCF81E0D03308F080E0DF913A
:10523000CF911F910F91FF90EF90DF90CF90089545
:10524000DF92EF92FF920F931F93CF93DF937C0136
:1052500090911601C92FCC0FCC0FC90FD5E0DC0FF0
:10526000D13308F0D0E360910D0666956695809184
:105270000106909102060E94FC20D82ECD17F0F472
:105280000C2F10E0F801E35CFC4F80819091170136
:10529000982391F060910A0670910B0680910C069C
:1052A0002D2D4C2FF70109950E940721462F282FFD
:1052B000672FC8010E942C20CF5FE0CF81E0D03360
:1052C00008F080E0DF91CF911F910F91FF90EF9058
:1052D000DF900895CF92DF92FF920F931F93CF93A9
:1052E000DF931F92CDB7DEB7F82E8B0199830E9412
:1052F0009716998181111CC0CF2CD92E011511054B
:10530000B1F08091E80085FD0AC08091E8008E77B9
:105310008093E8000E949716882381F309C0F60164
:1053200081916F018093F10001501109E7CF80E076
:105330000F90DF91CF911F910F91FF90DF90CF9051
:1053400008951F93CF93DF93CDB7DEB7AA970FB61B
:10535000F894DEBF0FBECDBFE9EFF5E088E08E0F19
:105360009091F10091938E13FBCF8091FA058330D9
:1053700009F460C030F4813071F0823009F49AC0D1
:10538000B1C08A3009F486C08B3009F46BC0893013
:1053900009F0A8C020C08091F905813A09F0A2C0A7
:1053A0008091E800877F8093E8008091FD059091CF
:1053B000FE05892B21F460E285ED95E003C060E0F5
:1053C00080E090E070E00E9459188091E8008B77AF
:1053D0008093E80087C08091F905813209F082C08E
:1053E0008091FD059091FE05029708F07BC08091A9
:1053F000E800877F8093E8008091E80082FD05C087
:105400008091F7058111F8CF6DC02091F300809154
:10541000F20090E0922B029729F48091F1008B7FAB
:10542000813021F48091F1008093D4058091E800CF
:105430008B7754C08091F905813A09F053C080916F
:10544000FD059091FE05892B09F04CC08091E80084
:10545000877F8093E8008091E80080FFFCCF8091F7
:10546000150137C08091F9058132E1F58091FD0584
:105470009091FE05892BB1F58091E800877F80939C
:10548000E8000E94C9168091FB05809315010E94D7
:10549000DB2E28C08091F905813221F58091E8004A
:1054A000877F8093E8000E94C9168091FC05809355
:1054B000D30518C08091F905813AA1F48091E800E4
:1054C000877F8093E8008091E80080FFFCCF809187
:1054D000D3058093F1008091E8008E778093E800F7
:1054E0000E94C9168091E80083FFD6C18091F9051A
:1054F0009091FA05492F50E04A30510508F0CCC18F
:10550000FA01EB57FF4F0C94A733803821F0823813
:1055100009F0C2C108C08091F5059091F605992364
:1055200089F082600FC08091FD058F70873008F090
:10553000B3C18093E9008091EB0085FB882780F957
:105540001092E9009091E800977F9093E800809393
:10555000F1001092F10074C1282F2D7F09F09CC139
:10556000882319F0823061F097C18091FB0581306A
:1055700009F092C1933009F080E08093F6052EC0C7
:105580008091FB0581112AC08091FD058F702FEF5E
:10559000280F263008F080C18093E9002091EB00AD
:1055A00020FF1CC0933021F48091EB00806214C076
:1055B0009091EB0090619093EB0021E030E0A90125
:1055C00002C0440F551F8A95E2F74093EA001092FB
:1055D000EA008091EB0088608093EB001092E90074
:1055E0008091E800877F2FC1811156C11091FB0582
:1055F0001F778091E3008078812B8093E300809176
:10560000E800877F8093E8000E94C9168091E80037
:1056100080FFFCCF8091E30080688093E30011114C
:1056200002C082E001C083E08093F70535C1805855
:10563000823008F031C18091FB059091FC058C3DD2
:1056400053E0950779F583E08A838AE289834FB72F
:10565000F894DE01139620E03EE051E2E32FF0E003
:1056600050935700E49120FF03C0E295EF703F5F35
:10567000EF708E2F90E0EA3010F0C79601C0C09610
:105680008D939D932F5F243149F74FBF8091E800A0
:10569000877F8093E8006AE270E0CE0101960E9465
:1056A0005918BDC04091FD055091FE05292F3327A3
:1056B00023303105B9F06CF42130310509F4FBC019
:1056C0002230310509F0E8C08BE390E0E2E5F9E033
:1056D00054C02132310509F433C02232310509F4B6
:1056E0003CC0DAC0992781309105D1F05CF4892B58
:1056F00009F0D2C0E7ECF9E0E4918E2F90E0E7ECFE
:10570000F9E038C08230910599F0039709F0C4C0E0
:10571000EFE9F9E0E4918E2F90E0EFE9F9E02AC09B
:10572000EDEBF9E0E4918E2F90E0EDEBF9E022C093
:10573000E5EAF9E0E4918E2F90E0E5EAF9E01AC09D
:105740004115510509F4BCC04130510509F0A4C010
:1057500089E090E0EDE7F9E010C04115510509F44A
:10576000B4C04130510509F097C080EC90E0E2E50B
:10577000F8E003C0009709F48FC02091E800277F6C
:105780002093E8002091FF05309100062817390783
:1057900008F4C90140E0009789F12091F705222320
:1057A00009F43DC02530D9F12091E80023FD37C030
:1057B0002091E80022FD2FC02091E80020FFEBCFD0
:1057C0004091F3002091F20030E0342B009759F023
:1057D0002830310540F444914093F100319601970F
:1057E0002F5F3F4FF3CF41E02830310509F040E013
:1057F0002091E8002E772093E800CDCF4111CDCF46
:105800000AC08091F705882351F0853041F08091DE
:10581000E80083FD04C08091E80082FFF2CF809110
:10582000E8008B778093E80037C08038A9F5809135
:10583000E800877F8093E8008091F8058093F1006D
:105840008091E8008E778093E8000E94C91624C0FA
:10585000811122C01091FB051230F0F48091E80014
:10586000877F8093E8001093F8050E94C9161111F4
:1058700006C08091E30087FD02C081E001C084E0A2
:105880008093F70542E061EC81E00E94E81642E275
:1058900061EC82E00E94E8168091E80083FF1AC064
:1058A0008091E800877F8093E8008091EB00806220
:1058B0008093EB000FC082E190E0EDE8F9E05DCF6E
:1058C00089E090E0E4E6F9E058CF80E490E0E2E19E
:1058D000F9E053CFAA960FB6F894DEBF0FBECDBF46
:1058E000DF91CF911F9108958091570582958F7018
:1058F00009F054C080915405882309F44FC0809169
:105900008905A09158056091520570915305409109
:10591000550550915605B6E08A1709F43FC090E04E
:1059200041155105C1F17F3F11F46F3FA1F1B89FBF
:10593000F001B99FF00D1124E75AFA4F218172133B
:105940002AC02081621327C02281211124C0238113
:1059500034812417350710F421503109241B350BED
:10596000283C3105C0F4209157052F702061209309
:10597000570526E0289FF001299FF00D1124E25AD7
:10598000FA4F80818F708061808382E595E00E946C
:1059900005050C94DD2701968770BECF08950E94FF
:1059A0000027292F2F7092959F70E92FF0E03297F2
:1059B000EE30F105B8F4E157FF4F0C94A733803F68
:1059C00099F018F4883E70F40FC0843F59F40CC06D
:1059D000883E50F0813F31F407C0822F869586952E
:1059E0008695089580E0089581E00895BF92CF9252
:1059F000DF92EF92FF920F931F93CF93DF93CDB778
:105A0000DEB761970FB6F894DEBF0FBECDBF8C0135
:105A100085E0F801DE011D9601900D928A95E1F76F
:105A2000D8013C9111962C9111971296EC901297F7
:105A30001396CD90DC9014975091520560915305C8
:105A40008091550590915605009709F44FC16F3F1D
:105A500019F45F3F09F44AC1B0905405BB2009F422
:105A6000ECC040915705C816D90628F0F601E81B8E
:105A7000F90BCF0104C0809590958C0D9D1DFF24DE
:105A8000F394883C910548F0F12C407F09F09FC0C9
:105A900082E595E00E94050521C1842F807F09F0F1
:105AA00044C0621312C0531310C0E1100EC04F70F7
:105AB00040614093570582E595E00E94050580917D
:105AC0005705D80115968C932EC0CD2819F12F3F7C
:105AD00011F43F3FF9F0FE2CE1101CC080918905C4
