:100000000C94F6030C9413040C9413040C94130432
:100010000C9413040C9413040C9413040C94130404
:100020000C9413040C9413040C946F1A0C942B1A54
:100030000C94792D0C9413040C9413040C94130455
:100040000C9413040C9413040C9413040C941304D4
:100050000C9413040C9449160C9413040C9413047C
:100060000C9413040C9413040C9413040C941304B4
:100070000C9413040C9413040C9413040C941304A4
:100080000C9413040C9413040C9413040C94130494
:100090000C9413040C9413040C9413040C94130484
:1000A0000C9413040C9413040C941304DCA4D3DCFC
:1000B000A4D3DCA4D3DCA4D3DCA4D3DCA4D3DCA4FD
:1000C000D3DCA4D3DCA4D3DCA4D3DCA4D3DCA4D3BE
:1000D000DCA4D3DCA4D3DCA4D3DCA4D3DCA4D3DCA5
:1000E000A4D3DCA4D3DCA4D3DCA4D3DCA4D3DCA4CD
:1000F000D3DCA4D3DCA4D3DCA4D3DCA4D3DCA4D38E
:10010000DCA4D3DCA4D3DCA4D3DCA4D3DCA4D3DC74
:10011000A4D3DCA4D3DCA4D3DCA4D3DCA4D3DCA49C
:10012000D3DCA4D3DCA4D3DCA4D3DCA4D369FFFF49
:10013000DCA4D3DCA4D369FFFFDCA4D3000000005F
:1001400000000000000000000000000000000000AF
:10015000000000000000000000000000000000009F
:10016000000000000000000000000000000000008F
:10017000000000000000000000000000000000007F
:10018000000000000000000000000000000000006F
:10019000000000000000000000000000000000005F
:1001A000000000000000000000000000000000004F
:1001B000000000000000000000000000000000003F
:1001C000000000000000000000000000000000002F
:1001D000000000000000000000000000000000001F
:1001E000000000000000000000000000000000000F
:1001F000000000000000000000000000000000F906
:10020000E4FFF9E4FF000000000000F9E4FFF9E476
:10021000FF000000000000000000000000000000DF
:100220000000000000000000009AFFFF0000000036
:1002300000000000009AFFFF9AFFFF9AFFFF0000F6
:1002400000000000000000000000000000000000AE
:100250009AFFFF9AFFFF000000000000000101016B
:100260000101010101010202020202020202020373
:100270000303030303030304040404040404050543
:100280000505050606060606070707070708080806
:1002900008090909090A0A0A0B0B0B0C0C0C0D0DB5
:1002A0000D0E0E0E0F0F0F1010111111121213134D
:1002B0001414151516161717181819191A1A1B1BC6
:1002C0001C1D1D1E1E1F2020212222232424252622
:1002D00026272829292A2B2C2D2D2E2F303132325A
:1002E000333435363738393A3B3C3D3E3F40414266
:1002F000434445464748494A4C4D4E4F505153544C
:10030000555658595A5B5D5E5F61626465666869FF
:100310006B6C6D6F7072737577787A7B7D7E80827F
:10032000838587888A8C8E8F91939596989A9C9EC8
:10033000A0A2A3A5A7A9ABADAFB1B3B5B7BABCBED8
:10034000C0C2C4C6C9CBCDCFD1D4D6D8DBDDDFE2A5
:10035000E4E7E9EBEEF0F3F5F8FAFDFF2E004C00D0
:100360002A00E100354100001E00140004001D6158
:10037000085D4D001F001A0016001B00E1042A0052
:10038000200008000700060050002C002100150086
:10039000090019004F004A00220017000A0005005A
:1003A00000006564500001530000000F0000E300EE
:1003B0004F000253000000070000E20023001C0071
:1003C0000B00110000002961240018000D0010002E
:1003D00052004B0025000C000E0036005100280092
:1003E000260012000F0037002F002B0027001300FB
:1003F0003342387130004E002D0031003468E50082
:10040000015100002900010001000100010000006D
:100410003A001E02200222022E000E5D3B001F0247
:10042000210223020100C95C3C002F0226022F009A
:100430000100CA5C3D0030022702300001000D5D62
:100440003E003102350035020000C35C01000100AE
:100450000000010000000C5D01000100000001002F
:100460000000C25C3F0052005100240200000B5DFE
:100470004000240021001E00010001004100250071
:1004800022001F003700C55C420026002300200028
:100490002700C65C430025022E0231002E00010019
:1004A00044004500010001000100000001000100BE
:1004B0000100010001000000010001000100010035
:1004C0000100010001000100F20001000100010033
:1004D0000100F000F1000100F40001000100010042
:1004E000F3000100F500010001000100010001001E
:1004F00000000100010001000000010000000100F7
:1005000001000100000001000000010001000100E5
:1005100001000100000001000100010001000100D4
:10052000A9000100010001000100AC00AA00B60012
:10053000010001000100AB00A80001000100010062
:100540000100010001000100005C0100AE0001009B
:10055000010000000A00000000000306B2000800CD
:1005600001000000A800080002000200A000140022
:10057000030057494E5553420000000000000000A0
:1005800000008400040007002A0044006500760093
:1005900069006300650049006E0074006500720028
:1005A0006600610063006500470055004900440093
:1005B0007300000050007B00390044004200370007
:1005C00046003100460044002D003700450037004A
:1005D00041002D0034003000300038002D0039007B
:1005E0003300360042002D00360042004100360044
:1005F000430031003900410033003000380063000F
:100600007D00000000001B0301636F6E6669677563
:1006100072652E6572676F646F782D657A2E636FD1
:100620006D0005010902A10185020901A10005096A
:10063000190129051500250195057501810295010E
:10064000750381010501093009311581257F950266
:100650007508810609381581257F95017508810681
:10066000050C0A38021581257F950175088106C0A1
:10067000C005010980A10185031A81002A830016A3
:100680000100260300950175108100C0050C0901C9
:10069000A10185041A01002A9C02160100269C0271
:1006A000950175108100C005010906A101850505A8
:1006B0000719E029E7150025019508750181020554
:1006C00007190029EF1500250195F0750181020534
:1006D0000819012905950575019102950175039188
:1006E00001C005010906A101050719E029E7150068
:1006F000250195087501810295017508810105079D
:10070000190029FF150026FF0095067508810005D0
:100710000819012905950575019102950175039147
:1007200001C009025200030100A0FA0904000001FF
:100730000301010009211101000122400007058188
:100740000308000A09040100010300000009211147
:1007500001000122C0000705820320000A090402EB
:100760000002FF00000007058303400005070504A1
:10077000034000051201100200000008EDFE0713FF
:1007800001000102030104033000000016034500CC
:10079000720067006F0064006F0078002000450061
:1007A0005A00000008035A005300410000000403EF
:1007B0000904050F3900021C100500DF60DDD8892F
:1007C00045C74C9CD2659D9E648A9F00000306B27B
:1007D0000045001810050038B60834A909A0478B59
:1007E000FDA0768815B665000142000011241FBEE9
:1007F000CFEFDAE0DEBFCDBF13E0A0E0B1E0E8E488
:10080000F4E602C005900D92AE3AB107D9F726E0A2
:10081000AEEAB3E001C01D92A935B207E1F70E942C
:100820005A2A0C94CD310C940000E8EDF0E0808160
:100830008E7F80831092E2001092DA001092E10025
:10084000A0EEB0E08C9181608C9380818F77808363
:1008500019BCA7EDB0E08C918E7F8C9380818F7E48
:1008600080831092180608952091E4003091E500ED
:1008700095E6A9012091EC00822F817020FF06C02F
:100880008091E80080FF06C080E008952091E80094
:1008900022FD1AC080913E06882389F0853089F0B8
:1008A0008091EB0085FD0FC02091E4003091E500C0
:1008B00042175307F9F29150E1F684E0089582E07F
:1008C000089583E0089581E00895EF92FF920F93D9
:1008D0001F93CF937C018B010E943404C82F88237F
:1008E00071F08C2FCF911F910F91FF90EF90089591
:1008F000F70181917F018093F100015011090115E9
:10090000110579F38091E80085FDF2CF8091E80030
:100910008E778093E8000E943404882381F3C82FE7
:10092000E0CF8091400687FF13C08091E80082FFEE
:1009300006C08091E8008B778093E80004C0809126
:100940003E068111F2CF089580913E068823D9F3A7
:100950008091E80080FFF8CF8091E8008E77ECCF9F
:10096000982F9093E900242F762F50E0891731F0CB
:100970007091EC002091ED005091F00021FD07C036
:100980009F5F973071F78093E90081E0089530917F
:10099000EB003E7F3093EB003091ED003D7F3093D4
:1009A000ED003091EB0031603093EB007093EC0080
:1009B0002093ED005093F0002091EE0027FDE0CF52
:1009C00080E00895CF92DF92EF92FF920F931F93F2
:1009D000CF93DF93C8EDD0E088818F7E8883E7EDE9
:1009E000F0E080818160808384E082BF81E0809339
:1009F000180688818E7F888302EE10E0F80110824D
:100A00001092DA0081EEC82ED12CF6011082888176
:100A10008F77888388818068888388818F7D8883A9
:100A200019BC10923E0610923F0610923D0610929D
:100A30003C0690EEE92EF12CF70180818B7F8083BC
:100A400088818160888342E060E080E00E94B00499
:100A5000F60180818E7F8083F801808181608083B0
:100A6000808188608083F70180818E7F8083888188
:100A700080618883DF91CF911F910F91FF90EF905C
:100A8000DF90CF900895FC01809146069091470633
:100A900086179707A0F06115710529F48091E80089
:100AA0008E778093E80090E06115710551F4911103
:100AB00008C08091E80082FF35C080E00895BC0145
:100AC000F2CF80913E068823C9F18530C9F180912B
:100AD000E80083FD31C08091E80082FDEACF80917B
:100AE000E80080FFE1CF8091F3002091F200382FE1
:100AF0006115710519F02830310558F091E0283062
:100B0000310509F090E08091E8008E778093E8004D
:100B1000CBCF84918093F1003196615071092F5FA2
:100B20003F4FE6CF80913E06882341F0853041F06B
:100B30008091E80083FFBDCF81E0089582E00895B1
:100B400083E00895FC018091460690914706861740
:100B50009707A0F06115710529F49091E8009E7740
:100B60009093E80090E06115710551F4911108C06F
:100B70008091E80082FF34C080E00895BC01F2CF8C
:100B800080913E068823C1F18530C1F18091E80053
:100B900083FD30C08091E80082FDEACF8091E800BB
:100BA00080FFE1CF8091F3002091F200382F611592
:100BB000710519F02830310558F091E028303105E1
:100BC00009F090E02091E8002E772093E800CBCF49
:100BD00081918093F100615071092F5F3F4FE7CF02
:100BE00080913E06882341F0853041F08091E800F5
:100BF00083FFBECF81E0089582E0089583E00895E9
:100C000080913E06843011F482E0089581E00895D9
:100C100080911B06089520913E06243099F423E02C
:100C20002093E90070E050E040E00E9465048823D2
:100C300021F010921606109217068091E8008E7728
:100C40008093E80008959091FA05803F41F48091E7
:100C5000FB0587FD1092FB05992371F00895813FF4
:100C600029F48091FB051816ACF3F6CF823F81F48E
:100C700097FFF2CF1092FA058091FB059091FC0549
:100C8000892B9091FD05892B49F71092FE05089557
:100C9000833F19F4191674F3DFCF893F39F480913B
:100CA000FC051816CCF61092FC05D6CF8A3F29F425
:100CB0008091FC0587FFD0CFF6CF8B3F39F4809130
:100CC000FD0587FFC9CF1092FD05C6CF8C3F29F4E3
:100CD0008091FD051816BCF3BFCF843F31F480919D
:100CE000F9058E7F8093F905B7CF853F21F4809178
:100CF000F9058D7FF7CF863F21F48091F9058B7F31
:100D0000F1CF873F21F48091F905877FEBCF883FB2
:100D100021F48091F9058F7EE5CF8D3F31F48091EC
:100D2000CC058E7F8093CC0597CF8E3F21F48091A8
:100D3000CC058D7FF7CF8F3F09F08ECF8091CC050A
:100D40008B7FF0CF8091CC0580FD16C081FD16C051
:100D500082FD16C08091FE058823A1F0883280F4C0
:100D600028E0829FC001112468E270E00E94942E66
:100D7000862F672B39F0089582E0089584E0089566
:100D800088E0089581E008958091CC0580FD16C02B
:100D900081FD16C082FD18C08091FE05882391F068
:100DA0008C3390F423E2829FC00111246CE370E045
:100DB0000E94942E862F672B49F0089588E00895AD
:100DC00081E1089585E0089583E2089581E0089522
:100DD000803F31F40E94C40681958093FB050895FD
:100DE000813F19F40E94C406F8CF823F31F40E947B
:100DF000C40681958093FA050895833F19F40E94F3
:100E0000C406F8CF893F29F40E94A2068093FC050E
:100E100008958A3F21F40E94A2068195F7CF8B3F67
:100E200031F40E94A20681958093FD0508958C3FC0
:100E300019F40E94A206F8CF843F31F48091F9059D
:100E400081608093F9050895853F21F48091F9052B
:100E50008260F7CF863F21F48091F9058460F1CF5D
:100E6000873F21F48091F9058860EBCF883F21F41A
:100E70008091F9058061E5CF8D3F31F48091CC05FB
:100E800081608093CC0508958E3F21F48091CC053C
:100E90008260F7CF8F3FB9F78091CC058460F1CFA6
:100EA000CF92DF92EF92FF920F931F932FB7F89498
:100EB0004091C8055091C9056091CA057091CB0554
:100EC0002FBF6A017B01EE24FF248C0130E020E07B
:100ED000C016D106E206F30650F0481B590BCA01B2
:100EE0001F910F91FF90EF90DF90CF9008954150A8
:100EF0005109F3CFCF92DF92EF92FF926C01EE2473
:100F0000FF2420E0C114D104E104F10419F0C70169
:100F1000B60120E1C72ED82EE92EFF24C114D1043A
:100F2000E104F10419F0285FC701B6016B017C01EF
:100F300054E0F694E794D794C7945A95D1F7C11426
:100F4000D104E104F10419F02C5FC701B6016B0173
:100F50007C0142E0F694E794D794C7944A95D1F780
:100F6000C114D104E104F10419F02E5FC701B601E8
:100F70009695879577956795672B682B692B09F070
:100F80002F5F822FFF90EF90DF90CF900895809198
:100F9000C30581111092C30508958091C2059091F7
:100FA000C105892B9091C005892B8093AE03909148
:100FB000C3059923A1F0892B8093AE03809115017D
:100FC000882341F18091E50587FF24C08EE1E0EBA5
:100FD000F3E090E0815000F591110E94C707E09185
:100FE000E705F091E8053097E1F08091150188233D
:100FF00059F08091E50587FF07C08091AE0380938B
:10100000AF0385E08093AE030280F381E02D8EEA8A
:1010100093E0099486E0DBCF21912223D9F29F5FF0
:10102000D9CF0895909115019923D1F09091E505BC
:1010300097FF16C0E82FE695E695E695EE31E0F4C9
:10104000F0E0E255FC4F282F277081E090E001C0CE
:10105000880F2A95EAF780959281892382830895E3
:10106000E0EBF3E09191891303C0DF0111971C922B
:1010700093E0E63BF907B1F70895909115019923A4
:10108000C1F09091E50597FF14C0E82FE695E6952D
:10109000E695EE31F8F4F0E0E255FC4F877021E080
:1010A00030E001C0220F8A95EAF78281822B828389
:1010B0000895A0EBB3E0EFEF90E02D91821751F08F
:1010C000EF3F19F4211101C0E92F9F5F9630A9F776
:1010D000EF3F09F408950E2E000CFF0BE255FC4F74
:1010E000E6CFE92FEE0FE90FEE0F8E0F982F9770D6
:1010F00086958695869525E0829FF0011124E85714
:10110000FA4F50E040E080E0219130E0092E02C02B
:10111000369527950A94E2F721703327042E01C0F3
:10112000220F0A94EAF7822B4F5F5F4F453051053B
:1011300059F70895E92FEE0FE90FEE0F8E0F982F54
:10114000977041E001C0440F9A95EAF7869586951D
:10115000869595E0899FF0011124E857FA4F30E019
:1011600020E070E05191DF011197CB01022E02C007
:10117000969587950A94E2F7817081958527842357
:1011800085278C932F5F3F4F2530310559F7089500
:101190008091870590915605981301C008958F5F3F
:1011A0008770FACF882341F080959091C1058923FB
:1011B0008093C1050C94CD070895882339F0909150
:1011C000C105982B9093C1050C94CD0708958823F1
:1011D00041F080959091C20589238093C2050C94BB
:1011E000CD070895882339F09091C205982B9093EC
:1011F000C2050C94CD0708952091390530913A0528
:101200002817390771F090933A0580933905E091DA
:10121000E705F091E805309721F00084F185E02D95
:10122000099408952091370530913805281739071A
:1012300071F09093380580933705E091E705F091C0
:10124000E805309721F00680F781E02D0994089594
:10125000E091E705F091E805309721F00190F081E9
:10126000E02D099480E00895FA01811101C0FB018D
:1012700009948033910538F5880F991F880F991FBD
:10128000FC01E05DFE4F5281338180818370E181FA
:10129000A82FB0E070E9879FC001112481519C4FB5
:1012A000E80FF92FF11DB4976083FC01E50FF11DE4
:1012B000B4974083830F911DFC01B4972083A35101
:1012C000BC4F81E08C930895FF920F931F93CF93AF
:1012D000DF93182F062FF42ED0E0C0E02F2D402FE3
:1012E000612FCE010E9439092196C033D105B1F793
:1012F000DF91CF911F910F91FF900895809150063B
:10130000837011F410920801809150068C7F8160E7
:101310008093500608950C9464090C9439090F9336
:101320001F9310E0F801EE0FFF1FE35EFC4F90816A
:10133000905797FD9195000F111FF801E25EFC4F49
:1013400000810052110B2003F001219FF00D1124A8
:1013500008E310E0091B110997FD13954003900164
:10136000419F300D1124E20FF31F9F01220F331F05
:101370002E0F3F1F37FF02C021583F4F220F232F50
:10138000221F330B620F1F910F9108950F931F932C
:10139000522F10E0F801EE0FFF1FE25EFC4FA0811C
:1013A000A052BB0B9D015203F001539FF00D11247D
:1013B000000F111FD801A35EBC4F0C910057110BF9
:1013C00040039001419F300D11242E0F3F1F37FF26
:1013D00002C0215C3F4F96E0359527959A95E1F73D
:1013E000620F1F910F9108950F931F93522F10E0DA
:1013F000F801EE0FFF1FE25EFC4FA081A052BB0B75
:101400009D015203F001539FF00D1124000F111F95
:10141000D801A35EBC4F0C910057110B4003900103
:10142000419F300D11242E0F3F1F37FF02C021585E
:101430003F4F220F232F221F330B620F1F910F915B
:101440000895EF920F93972F23E0029FB00111248C
:10145000759567956E0D792F0F91EF900895322F46
:1014600050E0FA01EE0FFF1FE25EFC4F90819052B8
:1014700097FD9195440F551FFA01E35EFC4F2081C3
:10148000231B330B290F311D97FD3A95620F0895E9
:10149000E42FF0E0EE0FFF1FE25EFC4F6081621B65
:1014A0000895E42FF0E0EE0FFF1FE35EFC4F608134
:1014B000621B0895622F0895E42FF0E0EE0FFF1FE6
:1014C000E35EFC4F408134EE439F412D1124E82F11
:1014D000F0E050E0445E5F4FDA01A21BB1099D01CC
:1014E000B7FF03C031952195310993E0220F331FD7
:1014F0009A95E1F7AF01421B530B9A0157FD20E08B
:10150000582F259F212D1124822F0895E42FF0E0DC
:10151000EE0FFF1FE35EFC4F408134EE439F412DF1
:101520001124E72FF0E050E0445E5F4FDA01A21B88
:10153000B1099D01B7FF03C031952195310993E0B1
:10154000220F331F9A95E1F7AF01421B530B9A010B
:1015500057FD20E0279F212D1124722F0895FC01B3
:101560009B01009729F480E077FF2BC080E8089565
:10157000AC0197FF04C044275527481B590BB901FC
:10158000640F751F37FD10C0241B350BC901A5E082
:10159000880F991FAA95E1F70E94942E80E2861B7E
:1015A000F7FF0FC081950895CB0165E0880F991F63
:1015B0006A95E1F7BA01621B730B0E94942E80E6D4
:1015C000EECF0895EF920F93CF93DF93D72FC82FCD
:1015D000C9010E19BA010E94AF0A602F681B7D2F46
:1015E0008C2FDF91CF910F91EF9008950F93CF93B0
:1015F000DF93D72FC82FC901BA010E94AF0A682F05
:10160000600F7D2F8C2FDF91CF910F910895EF9276
:101610000F931F93CF93DF93D62FC72F182FC90196
:101620000E19010FBA010E94AF0A081B202F219F3B
:10163000212D1124822F6D2F7C2FDF91CF911F91AF
:101640000F91EF900895EF920F931F93CF93DF9335
:10165000D62F172FC82FC9010E19070FBA010E94E4
:10166000AF0A702F781B719F712D11246D2F8C2F55
:10167000DF91CF911F910F91EF9008950F931F93DA
:10168000CF93DF93D62FC72F182FC901212F201BEF
:10169000022FBA010E94AF0A982F990F990F891B48
:1016A000800F282F219F212D1124822F6D2F7C2F19
:1016B000DF91CF911F910F9108950F931F93CF93B7
:1016C000DF93D62F172FC82FC901272F201B022FDA
:1016D000BA010E94AF0A982F990F990F782F791BA2
:1016E000700F719F712D11246D2F8C2FDF91CF9171
:1016F0001F910F910895E82F86FDE0952E2F2F70F2
:1017000086FD2F5FE695E695E695E670F0E0E85DEC
:10171000FE4F9181929F902D212D112492959F70C3
:101720002295207F922B2081920F87FD919580E852
:10173000890F0895AC018230910508F408959FEF58
:10174000413E8EE1580740F49A0195E03695279581
:101750009A95E1F798E0920F61E0E62FE90FFF27F5
:10176000FF1F9F0135952795822F229FF001239F10
:10177000F00DF00D11244E175F0738F49FEF920F14
:10178000961758F78FEF860F08952F3FE9F361E022
:10179000620FF6CF0F93CF93DF93D72FC82F47FD5C
:1017A000419588E390E0841B910947FD9395889FBC
:1017B000B001899F700D700D1124229FC001239FDD
:1017C000900D900D1124860F971F0E949A0B982F51
:1017D000990F890F682F600F7D2F8C2FDF91CF918C
:1017E0000F91089530E020E0869F212D969F200DD7
:1017F000311D1124C9010895AF92BF92CF92DF929B
:10180000FF920F931F93CF93DF93362F472FE82F2D
:10181000F0E0E45AFD4F71110DC06491762F862FD0
:10182000DF91CF911F910F91FF90DF90CF90BF90EC
:10183000AF900895C72FD0E02491F22E022F10E030
:1018400056E0659FC0011124EFEFF0E0BF010E9458
:10185000802E832F90E0880F991F35E5369FD001A9
:10186000379FB00D11248A1B9B0B982F990F980F4F
:101870006F01CC1ADD0AC09ED001C19EB00DD09E72
:10188000B00D11248B2F949FA0011124452F5527B3
:101890006F01C41AD50AC09EA001C19E500DD09EF2
:1018A000500D11245F01A91AB108AC9E6001AD9ED4
:1018B000D00CBC9ED00C1124CD2CDD24EC19FD09DC
:1018C000E09FE001E19FD00DF09FD00D1124ED2F9E
:1018D00062307105A1F048F46115710569F061305D
:1018E000710589F0EB2F852F07C06430710571F009
:1018F00088F066307105B1F76E2F722F91CFE22F0D
:101900002B2F8D2FF9CFE22F252FF6CFEB2F822F04
:101910002D2FF2CF2B2F8F2DE52FEECF9F92AF9251
:10192000BF92CF92DF92EF92FF920F931F93CF93CC
:10193000DF936C0180911601C82FCC0FCC0FC80F1C
:1019400015E01C0FB12E113310F030E3B32E60916F
:1019500054066695669580914806909149060E94C6
:10196000F20BF82E80E48F0D0E947B0B90E8A92EDD
:10197000A80E8F2D0E947B0B20E8922E980ED0E0AF
:10198000CB1580F081E0103308F080E0DF91CF913B
:101990001F910F91FF90EF90DF90CF90BF90AF908D
:1019A0009F900895FE01E358FC4F808190911701AC
:1019B0008923A1F0609151067091520680915306DF
:1019C000EF2C0C2F292D4A2DF60109950E94FC0BB6
:1019D000462F282F672FCE010E948D092196D0CF48
:1019E0007F928F929F92AF92BF92CF92DF92EF92AF
:1019F000FF920F931F93CF93DF935C0180911601A9
:101A0000C82FCC0FCC0FC80F15E01C0FF12E1133CF
:101A100010F030E3F32E60915406669580914806ED
:101A2000909149060E94F20B782ED0E0CF1590F0ED
:101A300081E0103308F080E0DF91CF911F910F918A
:101A4000FF90EF90DF90CF90BF90AF909F908F90DE
:101A50007F900895FE01E358FC4F8081909117011B
:101A60008923C9F1CE01880F991F87539D4FFC012F
:101A7000EC5AFF4F2081422F4057550B6A018B5A79
:101A80009F4FFC018081282F2052330B4901449F36
:101A90009001459F300D300D1124889CC001899C18
:101AA000900D900D1124820F931F0E949A0B082F06
:101AB000609151067091520680915306E72C940173
:101AC000A601F50109950E94FC0B462F282F672FD0
:101AD000CE010E948D092196A9CFCF92DF92EF927D
:101AE000FF920F931F93CF93DF937C018091160198
:101AF000C82FCC0FCC0FC80F15E01C0FD12E1133FF
:101B000010F030E3D32E609154066695809148061C
:101B1000909149060E94F20BC82ED0E0CD1568F0D6
:101B200081E0103308F080E0DF91CF911F910F9199
:101B3000FF90EF90DF90CF900895FE01E358FC4FA7
:101B4000808190911701892311F1CE01880F991F8F
:101B500087539D4FFC01EB5AFF4F20812052330BDE
:101B60008C5A9F4FFC0140814057550B60915106A4
:101B700070915206809153060C2DF70109950E9431
:101B8000FC0B462F282F672FCE010E948D0921962E
:101B9000C5CFDF92EF92FF920F931F93CF93DF9306
:101BA0007C0180911601C82FCC0FCC0FC80F15E017
:101BB0001C0F012F113308F000E360915406669565
:101BC000669580914806909149060E94F20BD82EA6
:101BD000D0E0C01760F081E0103308F080E0DF91C2
:101BE000CF911F910F91FF90EF90DF900895FE012C
:101BF000E358FC4F808190911701892391F0609107
:101C0000510670915206809153062D2D4C2FF701ED
:101C100009950E94FC0B462F282F672FCE010E94AA
:101C20008D092196D6CF9091E50592FF06C0282F09
:101C300028712830F9F4877F846093FF06C0282F2D
:101C400028712831F1F4877E84612091E60520FF18
:101C500006C0382F38713830D9F4877F816021FF72
:101C600006C0282F28712831D1F4877E816194FD28
:101C7000877E0895282F24712430F9F68B7F8860A1
:101C8000DCCF282F2471243101F78B7E8861DDCFD2
:101C9000382F3171313019F78E7F8860E0CF282FCF
:101CA0002171213121F78E7E8861E1CFCF93DF93BF
:101CB000972F70E026E0929F600D711D1124FB01AB
:101CC00034E5839FE00DF11D1124EE0FFF1FE45A50
:101CD000FC4FC591D491CE01C238D105B9F1E8F5D8
:101CE000C133D10509F499C050F5C932D10509F4C1
:101CF0008DC0CA32D10509F497C0C11542E5D40799
:101D000008F0C4C0C11521E5D20708F038C1C83EAB
:101D1000D10508F09DC0C03ED10568F5C83AD1058F
:101D200008F089C0C53AD10508F005C1C130D10518
:101D300011F1209709F443C02497E8F440C0C5335B
:101D4000D10509F45CC0C933D105B9F62091E50588
:101D5000237089F080EE90E00EC0C33ED10591F172
:101D600068F4C03ED105F9F0C23ED10531F62091AC
:101D7000E50522FD20C0DF91CF910895C63ED10533
:101D800061F1C73ED10581F1C43ED10509F0B5CF5F
:101D90002091E60521FFEFCF8091E50584FD0FC07E
:101DA00087EE90E0E8CF2091E50520FD19C1309144
:101DB000E60530FFE0CF83EE90E024FFDCCF90E03B
:101DC00080E0D9CF2091E50522FD0DC13091E605D7
:101DD00030FDC0CF24FFCFCFF2CF2091E50523FF08
:101DE000CACF24FDECCFDCCF2091E50523FDFEC05A
:101DF0003091E60531FFEECF84EE90E0BCCF20912C
:101E0000E50525FFB8CF89E290E0B5CF2091E50543
:101E100025FFB1CF85E390E0AECF2091E50526FF09
:101E2000AACF8AE290E0A7CF2091E50526FFA3CFB5
:101E300081E390E0A0CFCF3BD10508F6C85AD0E0AF
:101E4000CC0FDD1FC556DD4F88819981946493CFF7
:101E5000C11530E2D30760F4C11541E0D40708F0A2
:101E60008ACFCE019065C03FD10508F084CFA7CFBF
:101E7000C11580E4D80708F4A2CFC11590E5D907B1
:101E800008F061C0CE019F70906A75CFC11526E53C
:101E9000D20718F5C11535E5D30708F086C0C1157E
:101EA00044E5D40708F07CC09C2F96959695AE012A
:101EB00043705527C115D34508F466C021E030E0D2
:101EC00002C0220F331F4A95E2F740E2949FC001FF
:101ED0001124822B932B9A684ECFC1159AE5D9070E
:101EE00078F4C11529E5D20708F069C0C11538E5B5
:101EF000D30708F464CF9C2F8827806F906A3BCF6C
:101F0000C1154BE5D40708F45ACFC1158CE5D807A5
:101F100008F462C0CE0190568115904208F04FCF70
:101F20008D2F8F710E94130E90E0982F882788279D
:101F30009F718C2B42C0C55AD0E0C856DD4F8881B6
:101F400090E0906418CF9E01E4E036952795EA95DD
:101F5000E1F723708C2F86958695837030E2839FFE
:101F6000C0011124922BC37021E030E002C0220F87
:101F7000331FCA95E2F7822B932B9C68FCCE9C2FD3
:101F80008827816F906AF7CE21E030E002C0220FEF
:101F9000331F4A95E2F740E2949FC0011124EBCF32
:101FA0009C2F8827846F906AE6CE8C2F0E94130E98
:101FB00090E0982F882788279F719062DCCE8C2F25
:101FC0008F700E94130E34E0D695C7953A95E1F7CD
:101FD000CF709C2F9069CFCECE0199279066CBCE43
:101FE00089E390E0C8CE82EE90E0C5CE86EE90E028
:101FF000C2CEBF92CF92DF92EF92FF920F931F93C8
:10200000CF93DF938C01C0901106D0901206E09020
:102010001306F09014068091C4059091C505A09117
:10202000C605B091C705C82AD92AEA2AFB2ACFE1FA
:10203000D0E0BC2ED701C6010C2E04C0B695A795E2
:10204000979587950A94D2F780FD0EC0219788F75F
:10205000B12C8B2DDF91CF911F910F91FF90EF90BD
:10206000DF90CF90BF900895B8018C2F0E94560E3C
:10207000019761F3EECFCF93DF93EC010E94F90F4C
:10208000BE01DF91CF910C94560E0E943B10292F78
:102090002F7092959F7092509E3078F4E92FF0E067
:1020A000E153FE4C0C94A82E803F19F020F4883E9A
:1020B00020F481E00895843FE1F380E00895883EB4
:1020C000C0F3813FD1F7F5CF822F8695869586950F
:1020D00008959F92AF92BF92CF92DF92EF92FF92BC
:1020E0000F931F93CF93DF9320E9289FE001299F4F
:1020F000D00D1124C455DF4F10E000E0FE016491C3
:102100003196749131968491962F972B982BC1F428
:1021100020E040E060E0C8010E948D090F5F1F4F82
:1021200023960033110551F7DF91CF911F910F9145
:10213000FF90EF90DF90CF90BF90AF909F90089569
:102140000E94FC0B962EB72EA82E6091530670E0CD
:1021500090E080E00E94A72F20E030E04FE753E4BA
:102160000E94062F6B017C016A2D70E090E080E0F8
:102170000E94A92FA70196010E9435300E94782F56
:10218000A62E692D70E090E080E00E94A92FA701A3
:1021900096010E9435300E94782F962E6B2D70E0AC
:1021A00090E080E00E94A92FA70196010E9435309F
:1021B0000E94782F2A2D492DAECF40E060E080E0CC
:1021C0000E948B0981E080931906089527982F9823
:1021D000089526982E98089525982D980895569834
:1021E0005E980895279A2F9A0895269A2E9A089510
:1021F000259A2D9A0895CF92DF92EF92FF92CF9376
:102200006B017C010E947A07C82F0E94EF100E9488
:10221000EC100E94E9100E94E610C150C73040F453
:10222000EC2FF0E0E352FE4C0C94A82E0E94F81024
:10223000C701B601CF91FF90EF90DF90CF90089546
:102240000E94F8100E94F510F3CF0E94F8100E942F
:10225000F210EECF0E94F8100E94F510F8CF84B172
:10226000807F84B985B1807F85B98AB1837F8AB93F
:102270008BB1837F8BB93E984698089580B38C705C
:1022800080BB81B3836F81BB0895CF9384E090E0DE
:102290000E94BE2EC82F81E290E00E94BE2E982F91
:1022A0008C2FCF910895CF93DF9300D00F92CDB7AD
:1022B000DEB790913E06943019F589837B836A835B
:1022C00082E08093E9008FEF9091E800815095FDC6
:1022D00006C095ED9A95F1F700008111F5CF809138
:1022E000E80085FF0DC050E040E063E070E0CE0103
:1022F00001960E9465048091E8008E778093E80043
:102300000F900F900F90DF91CF910895CF93DF93AF
:10231000EC010E940006823011F0843031F4BE01DD
:1023200084E0DF91CF910C945311DF91CF91089508
:10233000BC016058710983E00C945311CF93DF9373
:10234000EC010E940006823011F08430F9F482E042
:102350008093E9008FEF9091E800815095FD06C0D1
:1023600095ED9A95F1F700008111F5CF8091E80085
:1023700085FF0CC050E040E066E070E0CE010E94B6
:1023800065048091E8008E778093E800DF91CF911B
:102390000895CF93DF93EC010E940006823011F084
:1023A0008430B9F5809115018823B1F18091E5055C
:1023B00087FF32C060E282E08093E9008FEF909166
:1023C000E800815095FD06C095ED9A95F1F7000063
:1023D0008111F5CF8091E80085FF1BC08091150128
:1023E00070E050E040E0811104C050E040E068E05F
:1023F00070E0CE010E9465048091E8008E778093A2
:10240000E80080E2FE01ACE1B6E001900D928A9511
:10241000E1F7DF91CF91089568E081E0CDCFEF92B1
:10242000FF920F931F93CF93DF930E94EF100E94B0
:10243000EC100E94E9100E94E61088E8E82EF12CCA
:102440008FEF90E0F701918380830AE810E0F801B4
:1024500091838083CCE8D0E0998388830E94F81030
:10246000FFEF20E782E0F15020408040E1F700C01C
:1024700000000E94F5109FEFE0E7F2E09150E0408D
:10248000F040E1F700C000000E94F2102FEF80E75B
:1024900092E0215080409040E1F700C000000E948F
:1024A000EC10EFEFF0E722E0E150F0402040E1F7E0
:1024B00000C000000E94E9108FEF90E7E2E0815039
:1024C0009040E040E1F700C000000E94E6108091DB
:1024D000D3058770FFEF8F9FC001112495958795D5
:1024E000959587959927F70191838083F8019183CA
:1024F0008083998388830E94EF100E94EC100E94D1
:10250000E910DF91CF911F910F91FF90EF900C9404
:10251000E6106091CF058CE090E00C94E22E6FEE17
:102520007EEF90E080E00E94002F60E082E090E08B
:102530000E94E22E60E083E090E00E94E22E109282
:10254000C4051092C5051092C6051092C70560E03B
:1025500084E090E00E94E22E60E081E290E00E9440
:10256000E22E60E085E090E00E94E22E60E086E0EE
:1025700090E00E94E22E6FEF87E090E00E94E22E52
:1025800040E050E0BA0188E090E00E94F42E60E064
:102590008DE090E00E94E22E40E050E0BA0188E138
:1025A00090E00E94F42E60E087E190E00E94E22E2D
:1025B00040E050E0BA018CE190E00E94F42E60E02F
:1025C00080E290E00E94E22E1092D3051092D40592
:1025D0001092D5051092D60584E080618093D305D2
:1025E0004091D3055091D4056091D5057091D605E1
:1025F0008FE090E00E94F42E40E050E0BA0183E1C9
:1026000090E00C94F42E0F931F93CF93DF93082F39
:10261000000FEB0114E21093D903EAEDF3E0DE01C1
:102620008D91819383E0EA3EF807D1F724E630E00C
:1026300041E150E069ED73E0802F0E94552E105F5C
:102640006096143B41F7DF91CF911F910F91089550
:102650008091ED03882329F06FEE73E084E70E94F8
:1026600003131092ED038091EE03882329F06FE7A6
:1026700074E087E70E9403131092EE030895E9EDDA
:10268000F3E06083418324E630E042E050E0BF01A4
:10269000880F0C94552E0F931F93CF93DF93082F21
:1026A000E62FF0E0ED5CFA4F8081882379F082E13B
:1026B000689FE0011124C15FDA4F10E04991612F5A
:1026C000802F0E943F131F5F1231C1F7DF91CF911E
:1026D0001F910F910895CF93DF93C82F4BE06DEFBB
:1026E0000E943F1340E06AE08C2F0E943F138FE36B
:1026F0009CE90197F1F700C0000040E060E08C2FFA
:102700000E943F1340E061E08C2F0E943F1340E0A5
:1027100066E08C2F0E943F1340E06DEF8C2F0E94EB
:102720003F13D0E040E06D2F8C2F0E943F13DF5FFE
:10273000D231C1F740E06D2F8C2F0E943F13DF5F35
:10274000D432C1F740E06D2F8C2F0E943F13DF5F22
:10275000D43BC1F74BE06DEF8C2F0E943F1341E05B
:102760006AE08C2F0E943F1340E06DEF8C2FDF91C9
:10277000CF910C943F136F927F928F929F92AF9262
:10278000BF92CF92DF92EF92FF920F931F93CF935E
:10279000DF930E94A02D84E70E946B1387E70E94BD
:1027A0006B1360E3E62E61E0F62ED12CC12C72E1B2
:1027B000772EE8E08E2E912CAA24A394B12C6624C7
:1027C0006394F701418150E0CA0184970281045269
:1027D000110BC381C452DD0BF601EE0FFF1FEE0F8C
:1027E000FF1FE05DFE4F2081237030E0FC0197FD6C
:1027F000379643E0F595E7954A95E1F7729EA0017B
:10280000739E500D1124415F5A4FE40FF52FF11DB7
:10281000B4010E94942EA50101C0440F8A95EAF7E5
:102820008081842B8083F80117FD379693E0F5951E
:10283000E7959A95E1F7729EC001739E900D112461
:10284000815F9A4FE80FF92FF11DC801B4010E9472
:10285000942EA50101C0440F8A95EAF78081842B4C
:102860008083FE01D7FD379683E0F595E7958A953D
:10287000E1F7729EC001739E900D1124815F9A4F03
:10288000E80FF92FF11DCE01B4010E94942EA5018D
:1028900001C0440F8A95EAF78081842B80832D5CE8
:1028A0003A4FF9016082FFEFCF1ADF0A84E0E80EA9
:1028B000F11CE0E3CE16D10409F083CF60E084E799
:1028C0000E944B1361E087E7DF91CF911F910F9139
:1028D000FF90EF90DF90CF90BF90AF909F908F9040
:1028E0007F906F900C944B1345E050E06CE170E0EA
:1028F00080E596E00C94D22E80915006982F969504
:1029000096959F5F9F738370963148F4990F990F46
:10291000892B80935006109208010C9474148460E3
:10292000F8CF80915006845080935006982F9C7F5A
:1029300021F48370846580935006109208010C94F2
:102940007414E0E5F6E08181885F81830C9474144F
:10295000E0E5F6E08181885081830C947414E0E511
:10296000F6E0228130E1230F08F42FEF22830C944C
:102970007414E0E5F6E0228130E1231B08F420E046
:1029800022830C947414E0E5F6E0238130E1230FF8
:1029900008F42FEF23830C947414E0E5F6E0238110
:1029A00030E1231B08F420E023830C947414E0E549
:1029B000F6E0248130E1230F08F42FEF24830C94F8
:1029C0007414E0E5F6E0248130E1231B08F420E0F4
:1029D00024830C947414E0E5F6E0880F880F90814E
:1029E0009370982B9083109208010C94741490911A
:1029F000500696959695981720F0961710F40C941B
:102A00007C140C94EB14E0E5F6E081E38083809184
:102A1000190190911A01A0911B0181839283A383D4
:102A20008FE784830C9474140E94BB1390E080E0C1
:102A30000E94CC2E8F3E9E4F21F00E948F120E944A
:102A4000031545E050E06CE170E080E596E00E94FF
:102A5000AE2E809150068C7F11F40C9403150895CE
:102A600080E290E090930A01809309018091D8035D
:102A700081110EC00E94A02D81E08093D8032FEF1A
:102A800083ED90E3215080409040E1F700C00000CA
:102A900064E670E080E40E94A62D90930A01809382
:102AA0000901892B09F04EC064E670E080E00E94C5
:102AB000022E90930A0180930901892B09F042C0EC
:102AC00064E670E080E00E94022E90930A018093F9
:102AD0000901892BB9F564E670E08FE30E94022EAC
:102AE00090930A0180930901892B61F50E947C2E45
:102AF00064E670E080E40E94A62D90930A01809322
:102B00000901892BF9F464E670E08CE00E94022E42
:102B100090930A0180930901892BA1F464E670E087
:102B200080E00E94022E90930A0180930901892B74
:102B300049F464E670E08FE30E94022E90930A014C
:102B4000809309010E947C2E809109010895CF9302
:102B5000C82F873070F58091090190910A01892B67
:102B600089F564E670E080E40E94A62D90930A0146
:102B700080930901892BD1F464E670E082E10E9420
:102B8000022E90930A0180930901892B79F481E048
:102B900090E001C0880FCA95EAF764E670E080957E
:102BA0000E94022E90930A0180930901CF910C9408
:102BB0007C2E8A30B9F040F4883071F0893079F099
:102BC000209A2898CF9108958C3091F070F08D3034
:102BD000B9F73E9A4698F6CF219A2998F3CF229AD0
:102BE0002A98F0CF239A2B98EDCF529A5A98EACF91
:102BF000539A5B98E7CFCF93873008F040C080911D
:102C0000090190910A01C0E0892B71F464E670E03B
:102C100080E40E94A62D90930A0180930901892BDC
:102C200031F0C0E00E947C2E8C2FCF91089564E695
:102C300070E083E10E94022E90930A0180930901C3
:102C4000892B79F764E670E081E40E94A62D9093C9
:102C50000A0180930901892B21F784E690E00E9404
:102C6000312E97FF05C090930A0180930901D9CFB7
:102C7000C82FC09510920A0110920901D3CFCFB18D
:102C80008FB1869586958C73C3708C2BC82FC09599
:102C9000CBCF78941F921FB61F9211248F939F93CE
:102CA000AF93BF938091C8059091C905A091CA05C3
:102CB000B091CB050196A11DB11D8093C8059093DD
:102CC000C905A093CA05B093CB05BF91AF919F9161
:102CD0008F911F901FBE1F9018952FB7F894809169
:102CE000C8059091C905A091CA05B091CB052FBF29
:102CF0000895E091E705F091E805309749F082E00A
:102D00008093F8050480F581E02D88EF95E0099522
:102D10000E946D16909300068093FF05089510920F
:102D2000C1051092C0050E94CD0786E0E8EFF5E0EE
:102D3000DF011D928A95E9F71092FE051092CC05ED
:102D40000E94791690E080E00E94120990E080E0F5
:102D50000C94FC08CF92DF92EF92FF92CF93DF9317
:102D600000D000D0CDB7DEB70E94FB106B017C0114
:102D700080911506882321F080911606811115C0D7
:102D8000C0921106D0921206E0921306F092140639
:102D90000E948F160F900F900F900F90DF91CF91A0
:102DA000FF90EF90DF90CF900895198282E08A83A0
:102DB000C701B6010E947A078B838EEF8C8364E093
:102DC000CE0101960E940B06DBCF0F931F9341E0CB
:102DD00050E060E070E004C0440F551F661F771F8D
:102DE0008A95D2F7CB01BA01609570958095909540
:102DF00000911106109112062091130630911406CD
:102E000060237123822393231F910F910C94AA16A0
:102E10009091BF05809589238093BF05282F277047
:102E200071F4282F082E000C330B9217130639F07B
:102E30008595859585950E94E5161092BF050895A4
:102E40000F931F9341E050E060E070E004C0440F36
:102E5000551F661F771F8A95D2F7809111069091B2
:102E60001206A0911306B09114068A019B01082B4B
:102E7000192B2A2B3B2BC901B8011F910F910C94E0
:102E8000AA166093C4057093C5058093C6059093F8
:102E9000C7050C948F161092C20580911501E0EBC6
:102EA000F3E0882359F08091E50587FF07C08EE1A4
:102EB000DF011D928A95E9F70C948F1686E0F8CF12
:102EC0001F93CF93DF93CDB7DEB7AA970FB6F894D1
:102ED000DEBF0FBECDBF80E496E02091F100FC0183
:102EE0002193CF01F6E088349F07B9F7809141061E
:102EF000893009F444C018F5823009F4B7C0833032
:102F000009F46CC0813031F580914006813A11F5A9
:102F10008091E800877F8093E8008091440690913B
:102F20004506892B41F560E28CE196E070E00E9455
:102F3000A2058091E8008B778093E8000BC08B306E
:102F400009F469C008F481C0823409F4A0C0853452
:102F500009F4BAC08091E80083FF65C28091400601
:102F6000909141069A3008F05EC2E92FF0E0EC51F2
:102F7000FE4C0C94A82E60E090E080E0D7CF8091CA
:102F80004006813239F780914406909145060297B8
:102F900008F78091E800877F8093E8008091E8003F
:102FA00082FF17C09091F3008091F200029729F4FC
:102FB0008091F1008B7F813021F48091F10080932A
:102FC0001B068091E8008B778093E8000E949104B3
:102FD000C1CF80913E068111E1CFBCCF80914006E8
:102FE000813A09F0B7CF8091440690914506892B2C
:102FF00009F0B0CF8091E800877F8093E80080914E
:10300000E80080FFFCCF809115018093F100809152
:10301000E8008E77D9CF80914006813209F09ACFAF
:103020008091440690914506892B09F093CF8091B9
:10303000E800877F8093E8000E9491048091420617
:10304000809315010E944B1785CF809140068132F5
:1030500009F080CF8091E800877F8093E8000E948C
:1030600091048091430680931A0674CF80914006A4
:10307000813A09F06FCF8091E800877F8093E80064
:103080008091E80080FFFCCF80911A06BECF80912E
:103090004006803C09F05ECF809144069091450641
:1030A000029739F58091420690914306892B09F5E4
:1030B0008091E800877F8093E8006BE170E086E014
:1030C00096E00E94430582CF80914006803C09F043
:1030D00041CF8091440690914506079751F4809125
:1030E000E800877F8093E80062EB70E084E595E07C
:1030F000E8CF8091EB0080628093EB002BCF80388B
:1031000099F0823809F08FC1809144068F70873022
:1031100008F089C18093E9008091EB0085FB882746
:1031200080F91092E90006C080913C0690913D061E
:10313000911182609091E800977F9093E8008093CE
:10314000F1001092F1008091E8008E7768C1882329
:1031500009F456C1823009F066C18091420681119E
:1031600059C1809144068F702FEF280F263008F048
:103170005AC18093E9002091EB0020FF4BC19330AE
:1031800031F48091EB0080628093EB0043C1909119
:10319000EB0090619093EB0021E030E001C0220F42
:1031A0008A95EAF72093EA001092EA008091EB00FA
:1031B0008860EACF811137C1109142061F77809154
:1031C000E3008078812B8093E3008091E800877F83
:1031D0008093E8000E9491048091E80080FFFCCF7A
:1031E0008091E30080688093E30082E0111183E026
:1031F00080933E0618C18058823008F014C1809137
:103200004206909143068C3D23E09207A1F583E0AE
:103210008A838AE289834FB7F894DE01139620E00F
:103220003EE051E2E32FF0E050935700E49120FF9D
:1032300003C0E295EF703F5FEF708E2F90E0EA30B1
:10324000C0F0C7968D939D932F5F243159F74FBFE0
:103250008091E800877F8093E8006AE270E0CE0109
:1032600001960E94A2058091E8008B778093E80088
:10327000DAC0C096E7CF4091440650914506292F09
:1032800033272330310569F1A0F42130310509F4E9
:103290006CC062E570E082E297E02230310509F00F
:1032A000C2C02091E800277F2093E8000E944305D8
:1032B000DACF2132310509F440C02232310509F458
:1032C00048C02F30310509F0AEC0E4EBF7E0E491DF
:1032D0006E2F70E082EB97E06115710509F4A3C0D1
:1032E000E0CF992781309105C1F0009771F08230CD
:1032F0009105D9F0039709F096C0E6E8F7E0E4916C
:103300006E2F70E086E897E0E7CFEEEAF7E0E49111
:103310006E2F70E08EEA97E0DFCFE4EAF7E0E49109
:103320006E2F70E084EA97E0D7CFECE8F7E0E49105
:103330006E2F70E08CE897E0CFCF41155105D1F0AA
:103340004130510509F06FC069E070E08DE497E00D
:10335000A8CF4115510599F04130510509F063C0DE
:1033600060EC70E082E296E09CCF62E170E084E77E
:1033700097E097CF69E070E084E397E092CF60E454
:1033800070E082EE96E08DCF803809F04CC08091DD
:10339000E800877F8093E80080913F068093F100EA
:1033A000D2CE811140C0109142061230E0F58091DA
:1033B000E800877F8093E80010933F060E94910405
:1033C000112311F084E005C08091E30087FDFACF5E
:1033D00081E080933E0642E061EC81E00E94B0040F
:1033E00042E261EC82E00E94B00442E361EC83E0DF
:1033F0000E94B00442E360EC84E00E94B00413C079
:1034000080914206813079F481E0933009F080E0C8
:1034100080933D061092E9008091E800877F8093B9
:10342000E8000E9491048091E80083FF0AC0809127
:10343000E800877F8093E8008091EB0080628093B2
:10344000EB00AA960FB6F894DEBF0FBECDBFDF919A
:10345000CF911F9108951F920F920FB60F921124D2
:103460002F933F934F935F936F937F938F939F938C
:10347000AF93BF93CF93DF93EF93FF93D091E90086
:10348000DF708091EC00C82FC17080FDC0E8109201
:10349000E9008091F000877F8093F00078940E948B
:1034A00060171092E9008091F00088608093F0002E
:1034B000CD2BCF70C093E900FF91EF91DF91CF91B9
:1034C000BF91AF919F918F917F916F915F914F913C
:1034D0003F912F910F900FBE0F901F9018951F9244
:1034E0000F920FB60F9211242F933F934F935F9338
:1034F0006F937F938F939F93AF93BF93EF93FF93BC
:103500008091E10082FF09C08091E20082FF05C046
:103510008091E1008B7F8093E1008091DA0080FF51
:1035200024C08091D80080FF20C08091DA008E7F77
:103530008093DA008091D90080FFA1C080E189BD2D
:1035400082E189BD09B400FEFDCF81E080933E0693
:1035500080911806811109C00E9415040E94E2049E
:103560008091E20084608093E2008091E10080FF1E
:1035700017C08091E20080FF13C08091E2008E7F2F
:103580008093E2008091E20080618093E20080916C
:10359000D80080628093D80019BC85E080933E06F5
:1035A0008091E10084FF2FC08091E20084FF2BC056
:1035B00080E189BD82E189BD89B5982F917080FF36
:1035C000FBCF8091D8008F7D8093D8008091E1005F
:1035D0008F7E8093E1008091E2008F7E8093E200F5
:1035E0008091E20081608093E20080913F06882311
:1035F00009F44BC084E080933E060E944B170E9462
:103600002809109219068091E10083FF27C080915C
:10361000E20083FF23C08091E100877F8093E10077
:1036200082E080933E0610923F068091E1008E7FFB
:103630008093E1008091E2008E7F8093E200809190
:10364000E20080618093E20042E060E080E00E945E
:10365000B0048091F00088608093F000FF91EF91BA
:10366000BF91AF919F918F917F916F915F914F919A
:103670003F912F910F900FBE0F901F90189519BC7E
:1036800010923E061092180670CF8091E30087FDDD
:1036900093E090933E06B1CF882309F459C0823855
:1036A00071F40E94280981FF53C089E30E943D08FC
:1036B0000E94CD0789E30E9412080C94CD0783383D
:1036C00059F40E94280980FF43C083E50E943D0809
:1036D0000E94CD0783E5EFCF843859F40E94280972
:1036E00082FF36C087E40E943D080E94CD0787E430
:1036F000E2CF9CEF980F913AF0F290E2980F983059
:1037000088F4877021E030E0A90102C0440F551F02
:103710008A95E2F7CA0180959091C205892380932A
:10372000C205CBCF9BE5980F933020F490E080E06A
:103730000C94120998E5980F973120F490E080E0FE
:103740000C94FC08803F20F00E9423060C9479160C
:103750000895882309F47BC08238B9F40E942809AF
:1037600081FD75C089E30E943D080E94CD072FEFBF
:1037700081EE94E0215080409040E1F700C00000CD
:1037800089E30E9412080C94CD078338A1F40E94AB
:10379000280980FD5CC083E50E943D080E94CD079A
:1037A0002FEF81EE94E0215080409040E1F700C07F
:1037B000000083E5E6CF8438A1F40E94280982FD49
:1037C00046C087E40E943D080E94CD072FEF81EE9E
:1037D00094E0215080409040E1F700C0000087E471
:1037E000D0CF9CEF980F913A18F40E943D08CBCFB0
:1037F00090E2980F983068F4877021E030E001C0C3
:10380000220F8A95EAF78091C205822B8093C20528
:10381000BACFEBE5E80FE33038F4F0E0E856FD4FBF
:10382000808190E00C941209E8E5E80FE73148F454
:10383000F0E0EE0FFF1FE556FD4F808191810C9463
:10384000FC08803F20F00E94E8060C947916089549
:10385000CF93C82F0E94A91BC93349F42FEF87EEDD
:1038600093E0215080409040E1F700C000008C2F91
:10387000CF910C944C1B0F931F93CF93DF93C62FC4
:10388000D42F022FFC0182818823A1F060934A0586
:103890000E946D169093360580933505C77081E0C0
:1038A00001C0880FCA95EAF7DF91CF911F910F9160
:1038B0000C94F20810914A05161335C08091350515
:1038C000909136050E945007883C910560F5C0E252
:1038D000CD0F1D17B9F080E2810F883040F41770CA
:1038E00081E001C0880F1A95EAF70E94E708C83006
:1038F00048F481E09D2F977001C0880F9A95EAF7F0
:103900000E94F208802F0E94281CC83098F4D770BB
:1039100081E001C0880FDA95EAF7DF91CF911F911E
:103920000F910C94E708C77081E001C0880FCA9519
:10393000EAF7F3CFDF91CF911F910F9108954F9246
:103940005F926F927F928F929F92AF92BF92CF922F
:10395000DF92EF92FF920F931F93CF93DF9300D0EC
:1039600000D00F92CDB7DEB76C01FC01838194814A
:10397000892B39F01081F180812F8F218F3F09F041
:10398000F2C60F900F900F900F900F90DF91CF9194
:103990001F910F91FF90EF90DF90CF90BF90AF906D
:1039A0009F908F907F906F905F904F9008950E94AE
:1039B000F90F082F682F89819A810E949A08E12FB8
:1039C000F0E026E0F29EE00DF11D112434E5039FA6
:1039D000E00DF11D1124EE0FFF1FE45AFC4F05917D
:1039E000149180911506882321F08091160681118B
:1039F000A6C6F60182810930FDE51F0769F10A308C
:103A00002DE5120709F417C1023C3CE5130709F044
:103A100038C1882309F4B5CF909117018091D3055F
:103A20009F3F09F027C1109217018F7E8093D30525
:103A300040E060E080E00E948B094091D305509106
:103A4000D4056091D5057091D6058FE090E00E9475
:103A5000F42E97CF81E179C68823C9F18091D305EF
:103A600091E0980F9770887F953008F4892B8093A8
:103A7000D3058091D3058770EFEF8E9FC00111248D
:103A8000959587959595879599279093890080932B
:103A9000880090938B0080938A0090938D00809390
:103AA0008C004091D3055091D4056091D50570915B
:103AB000D6058FE090E00E94F42E6091110670917F
:103AC000120680911306909114060E94FB10F601D5
:103AD0008281882389F0033EFCE51F0709F426C193
:103AE00008F010C1013E3CE5130709F418C1023E7D
:103AF0008CE5180709F418C117FF45C1F60182814A
:103B0000882309F44DC08091C20580934905109225
:103B1000C2058091CF05813009F410C1882309F4D2
:103B200009C1823009F417C1843009F41BC18FE345
:103B30009CE90197F1F700C000005801E894B7F83C
:103B40004CE0E42EF12C95010E2C02C03695279501
:103B50000A94E2F72F7087E290E031F0822F90E034
:103B60002A3008F004C14D960E94281C94E0E91AFE
:103B7000F108ECEFEE16EFEFFE0629F78091CF0586
:103B8000813009F4FAC0882309F4F3C0823009F4C3
:103B9000F0C0843009F4F5C0809149058093C205D6
:103BA000F6019281992309F404C610924A05023065
:103BB000FCE51F0708F4E8C506312CE5120738F0CC
:103BC00098012A5F3C452730310508F0DDC50E9489
:103BD00045119093E6058093E5050F303CE513070A
:103BE00009F4C6C108F040C108309CE5190709F482
:103BF000A9C108F015C10430FCE51F0709F496C1FE
:103C000008F0FBC002303CE5130709F487C103301C
:103C10001C4509F487C16091E5051091E60584E033
:103C200090E00E94E22E612F81E290E00E94E22E5D
:103C30000E944B17A6CE882309F449CF9091D30553
:103C4000892F877F93FF88608093D30583FF05C00A
:103C500040E060E080E00E948B094091D3055091E4
:103C6000D4056091D5057091D6058FE090E00E9453
:103C7000F42E2DCF9FEF9093170180618093D30591
:103C8000DCCE0C30FDE51F07F1F060F40B303DE5B4
:103C9000130709F01CCF882309F473CE81E00E943A
:103CA000EB146FCE0D309DE51907D1F00E30EDE528
:103CB0001E0709F00CCF882309F463CE81E00E942F
:103CC000EB148BE107C0882309F45BCE81E00E94EE
:103CD000EB148CEA809351068FEF809352060DC04F
:103CE000882309F44ECE81E00E94EB1486E5809390
:103CF00051068FEF8093520680E8809353060E940E
:103D000074143FCE043E9CE5190791F084E0053E13
:103D1000ECE51E0709F0F0CE8093CF0502C01092AB
:103D2000CF050E948912E8CE81E0F6CF82E0F4CF81
:103D300083E0F2CF82EE0E94A91BF9CE83E00E94BD
:103D4000DD0888E10E94A91B88E10E944C1B83E0EA
:103D50000E94D208ECCE82EE0E94A91B87E50E9449
:103D6000281CE5CE86EE0E94281C88E1F8CF069735
:103D7000FBCE82EE0E944C1B0FCF8CE20E94281CCF
:103D80000BCF88E2FBCF033FFCE51F0739F1A0F41E
:103D9000083D3CE51307F1F0093D8CE5180751F1AA
:103DA000073D9CE5190709F0FBCE26E241EE61EEE6
:103DB000C6010E943B1CE5CD053FECE51E07B1F0B6
:103DC00088F0063F2CE5120709F0EACE27E245EE1F
:103DD00066EEEECF27E245EE65EEEACF26E241EE53
:103DE00060EEE6CF27E245EE64EEE2CF26E241EE5A
:103DF00062EEDECF28E241E0EFCF8091E505806101
:103E000006309CE5190709F447C08091E5058860F4
:103E100007301C4508F440C08091E50580623CC035
:103E20000B30FCE51F0709F49BC068F409303CE542
:103E3000130709F48BC00A301C4509F0ECCE8091C1
:103E4000E5058C6029C08091E5058B7F0D309CE5F0
:103E5000190711F18091E5058D7F0E301C45E0F0CA
:103E60008091E505877F18C00A3FFCE51F0709F42C
:103E700061C060F502313CE5130709F481C078F4B4
:103E800000319CE5190709F477C08091E5058F7B27
:103E900001311C4509F0BFCE8093E505BCCE04314D
:103EA000FCE51F0709F47AC008F470C005311C4511
:103EB00009F0B1CE8091E50582FB992790F921E0C8
:103EC000922790FB82F990FB83F9E6CF0D3F8CE5BA
:103ED000180709F449C070F40B3FECE51E0771F1B7
:103EE0008091E6058E7F0C3F1C4509F094CE8093AF
:103EF000E60591CE0F3F2CE5120709F44BC060F1A7
:103F000001151D4509F087CE8091E605982F909503
:103F100091708E7F892B90FB81F9E9CF8091E50527
:103F20008160BACF8091E5058260B6CF8091E505CA
:103F30008460B2CF8091E6058160D9CF8091E6059B
:103F40008260D5CF8091E5058064A6CF0E944B1793
:103F50008091E5058068A0CF8091E6058360C7CF9A
:103F60008091E5058E7F98CF8091E6058D7FBFCF4C
:103F70008091E5058F7E90CF8091E5058F7D8CCF78
:103F80000E944B178091E5058F7786CF8091E505DC
:103F9000837F82CF8091E6058C7FA9CF0E944B174B
:103FA0009091E505892F97FB87F9805875CF85E3B8
:103FB000FBC385E307C4992309F4B8C08091C20507
:103FC0008272F801E25CFC45E431F10508F059C069
:103FD000E251FE4C0C94A82E8091500691E0892766
:103FE00080935006109208018ACE41E954E16CE7B3
:103FF00074E10E943409C5CC4CE754E161E974E1F5
:10400000F8CF48EA54E161EA74E1F3CF41EA54E1C0
:1040100068EA74E1EECF49EB54E16FEA74E1E9CF6D
:104020004FEA54E169EB74E1E4CF4DEC54E163EC09
:1040300074E1DFCF43EC54E16DEC74E1DACF41EE93
:1040400054E167ED74E1D5CF47ED54E161EE74E1E1
:10405000D0CF65E082E00E94F71493CC68E086E060
:10406000FACF6EE089E0F7CF64E18FE0F4CF67E14B
:1040700085E1F1CF88E113CE62E289E1ECCF83E202
:104080000ECE0E3DECE51E0709F446C00830FDE5F6
:104090001F0709F444C001151C4509F047C00E94E0
:1040A0004B173FEF84E39CE0315080409040E1F7B4
:1040B00000C00000F89481E08093E00080E28093EB
:1040C000D8001092C900EFE1FEE43197F1F700C08B
:1040D00000001DBA109268001CBC10BE1FBA1092DE
:1040E0007A0010926E0010926F0010927100109280
:1040F00072001092C9001092BC0014B817B81AB818
:104100001DB810BA1092BC0015B818B81BB81EB86C
:1041100011BA0C94003F35CC0E948F1232CC8091A2
:10412000170691E08927809317062BCCF6010081B2
:1041300011819923C9F1C8010E94F90FF82E682F47
:10414000C8010E949A08B8018F2D0E94560E8C015A
:10415000B82EF601E580E2943FE0E322F280F11010
:104160001092C1058091BF05877079F0FF2069F03A
:1041700080E2800F883048F082E00E94081780912A
:10418000BF058770AA24A3948111A12C912E92942B
:104190002FE09222FBE0F91508F440C0E92DF0E091
:1041A000EE5FFD4C0C94A82EC8010E947108F82EF9
:1041B000CACF212F2F70E22E107F19F0E29490EFDA
:1041C000E922FF20C9F0EE2069F080E2800F8830FC
:1041D00010F0B1100BC08091C205E82AE092C20530
:1041E0000E94CD07802F0E94A91B18C08091C10595
:1041F000E82AE092C105F4CF802F0E944C1BEE20EC
:1042000069F0E094005E083010F0B11028C0809191
:10421000C205E822E092C2050E94CD07292D285050
:10422000330B2430310510F40E942809AA2009F428
:10423000A8CB8091BF0580FDA4CBF60112828595A5
:10424000859585950E942017C6010E949F1C80912C
:10425000BF058595859585950E94E51692CB809141
:10426000C105E822E092C105D7CF312F3F70832EE0
:10427000107F103219F0829480EF8822802FBB20AB
:1042800041F091E0B91631F1FF2079F1EE2041F1D2
:10429000A9CFFF2091F09091C305892F8829E110C3
:1042A00003C00E94F208BACFE1E0EE12FACF8917FC
:1042B00009F4B4CF8093C305B1CFE11006C00E94CA
:1042C000C707882D0E94E708A9CFF1E0EF1609F48F
:1042D000A5CFF5CFFF2031F021E02E1508F49ECFB9
:1042E000882DDFCFE1109ACFECCFEE2051F3893348
:1042F00049F43FEF87EE93E0315080409040E1F782
:1043000000C00000802F0E944C1B88CF812F869513
:104310008695837061F0813009F080CFC801937079
:10432000F11002C090E080E00E94FC0877CFC80145
:104330009370F11002C090E080E00E9412096ECFED
:10434000FF2009F1053F99F0063FB9F0043F49F419
:1043500080914C0590914D05816090934D0580931F
:104360004C05802F0E94E8060E94791657CF809155
:104370004C0590914D058260F0CF80914C05909155
:104380004D058460EACF053F89F0063FA9F0043F60
:1043900049F480914C0590914D058E7F90934D0589
:1043A00080934C05802F0E942306DECF80914C0520
:1043B00090914D058D7FF2CF80914C0590914D05E8
:1043C0008B7FECCF812F837009F066C0F11026CF70
:1043D000802F829586958770880F880F602F6F7069
:1043E000462E512C712C612C082E04C0440C551CF7
:1043F000661C771C0A94D2F740E050E0BA0104FF33
:104400000FC04FE050E060E070E004C0440F551F63
:10441000661F771F8A95D2F74095509560957095E5
:10442000812F869586958370823019F1D8F400919A
:10443000C4051091C5052091C6053091C70581308E
:1044400069F04429552966297729CB01BA016023EF
:104450007123822393230E944117E0CE402A512AE0
:10446000622A732ACB01BA01642975298629972902
:10447000F2CF44295529662977290091C405109166
:10448000C5052091C6053091C705CB01BA0160274B
:10449000712782279327DFCF8695FF2011F0812F88
:1044A0008170882309F4BACE802F82958695877013
:1044B000880F880F602F6F70462E512C712C612C45
:1044C000082E04C0440C551C661C771C0A94D2F7B5
:1044D00040E050E0BA0104FF0FC04FE050E060E060
:1044E00070E004C0440F551F661F771F8A95D2F7EE
:1044F0004095509560957095812F8695869583702F
:10450000823019F1D8F40091110610911206209111
:10451000130630911406813069F044295529662923
:104520007729CB01BA0160237123822393230E9450
:10453000AA1674CE402A512A622A732ACB01BA01E4
:104540006429752986299729F2CF44295529662996
:1045500077290091110610911206209113063091CF
:104560001406CB01BA016027712782279327DFCF7A
:104570001F70FF2029F0812F0E942017802F91CEDD
:10458000802F0E94E708812F0E94E51647CE802FDA
:10459000E2EFBE1609F44EC0EB1578F0F0EFBF164F
:1045A00019F121EFB21609F43DC0FF2009F465C0EE
:1045B000E11018CE812F8F713AC033EFB31609F492
:1045C0003EC094EFB912F1CFFF2009F44BC01F7128
:1045D000812F0E942017F8E01F9FC00111248360E3
:1045E0008093BF05812F23C0FF20B9F0E11016CEC4
:1045F0001F7161E070E080E090E004C0660F771FFB
:10460000881F991F1A95D2F7009111061091120672
:104610002091130630911406A6CFE1E0EE1508F4C0
:10462000FDCDE6CF812F8F71FF2009F4ADCF0E9421
:104630002017F4CD812F8F71FF20C9F3A5CF60E043
:1046400070E0CB01FF2009F472CF1F7161E070E0D0
:1046500080E090E004C0660F771F881F991F1A95AD
:10466000D2F765CF81E00E94081721E02E1508F0EF
:10467000D5CD82E00E940817D1CDE11038CE812F30
:104680008F7182CFE2EFBE16D1F1EB1500F1F0EFA2
:10469000BF1649F121EFB216D1F180914E05EE20FF
:1046A00009F441C0882341F080914F0591E08927AA
:1046B00080934F0510924E05802FF11094CD0E94EB
:1046C0004C1B86E0F60111928A95E9F7A7CD34EFED
:1046D000B316C1F0B31688F085EFB812DECFF11033
:1046E0009DCD81E007C0FF2009F498CD80914F0552
:1046F00091E0892780934F0591CD81E0F826F092D3
:104700004F058CCDF1108ACD10924F0587CDFF203B
:1047100039F080914E05882349F310924E057ECDE5
:10472000EE2021F37BCD882309F478CDF11076CDEE
:1047300080914F0591E0892780934F05EECFF601D8
:1047400082811982811186C982E18A83F601808182
:104750008B8381818C838EEF8D8365E0CE01019602
:104760000E940B0646C985E0DE01119601900D926C
:104770008A95E1F7F601228189819A81211117C971
:104780000E947108082F1BC90631FCE51F0709F0BC
:1047900012CC8091C2058A7A91E009F490E090935E
:1047A0004B05811104CC89E20E943D080E94CD078F
:1047B000E8C806311C4509F0B9CC80914B05811140
:1047C000F8CB89E20E941208F1CF1F93CF93DF93B9
:1047D00080915505807FC1F4809152058823A1F016
:1047E00080918705C09156056091500570915105E3
:1047F0004091530550915405D62FD723DA01A09547
:10480000B09516E0C81304C0DF91CF911F910895B1
:1048100090E04115510511F0DF3F31F401968770AA
:10482000F1CF2A0F3B1F17C0189FF001199FF00D01
:104830001124E95AFA4F21812713F0CF2081261342
:10484000EDCF22812111EACF23813481241735074E
:1048500040F3241B350B283C310500F7209155050A
:104860002F7020612093550526E0289FF001299F95
:10487000F00D1124E45AFA4F80818F70806180839B
:1048800080E595E00E949F1CDF91CF911F910C94D1
:10489000C808BF92CF92DF92EF92FF920F931F93BF
:1048A000CF93DF93CDB7DEB761970FB6F894DEBF35
:1048B0000FBECDBF8C0185E0F801DE011D96019091
:1048C0000D928A95E1F7D8012C9111963C911197A0
:1048D0001296EC9012978091530590915405009791
:1048E00009F463C14091500550915105642F65232F
:1048F0006F3F09F45AC11396CD90DC90B0905205E9
:10490000BB2009F413C1C816D906C0F1F601E81B93
:10491000F90BCF01FF24F394883C910508F0F12CAA
:1049200080915505982F907FFF2009F4C1C0911107
:104930007DC0FE2C531327C0421325C0E11023C0B5
:104940008F7080618093550580E595E00E949F1CE3
:1049500080915505D80115968C938F2D61960FB6D1
:10496000F894DEBF0FBECDBFDF91CF911F910F91A5
:10497000FF90EF90DF90CF90BF9008958095909535
:104980008C0D9D1DC7CFCD2829F0822F83238F3F0B
:1049900009F035C180E0B82FB170DB2E80FF3CC03C
:1049A000809187054091560556E0841315C02D87E8
:1049B0003E878D859E850E943B10292F22952F7062
:1049C0002230F0F0243018F59F70F1F0F801958155
:1049D000907FD1F4D12C1EC090E0589FF001599FD8
:1049E000F00D1124E95AFA4F6181361306C0608137
:1049F000261303C06281E6120FC001968770D5CFDF
:104A00009F7011F0882331F3805E883018F3C8015D
:104A10000E949F1CFD2CA1CFEE2009F49ECF809117
:104A20005505816080935505F12C97CF531313C022
:104A3000421311C0E1100FC0D80115968C93C80124
:104A40000E949F1C86E0F801A0E5B5E001900D9260
:104A50008A95E1F782CF2D873E878D859E850E94BE
:104A60004510882309F1EE20F9F080915505803238
:104A700070F0209150053091510538872F831986A9
:104A8000DB86CA868C87CE0107960E949F1C86E033
:104A9000F801A0E5B5E001900D928A95E1F70E943A
:104AA000E523FF24F39459CFC8010E949F1CF9CF3E
:104AB00091110CC080E595E00E949F1C86E0E0E526
:104AC000F5E0DF011D928A95E9F747CF531312C035
:104AD000421310C0E1100EC0F8018583C8010E9486
:104AE0009F1CE0E5F5E086E0DF011D928A95E9F77D
:104AF000FB2C33CF2D873E878D859E850E944510E8
:104B0000882391F2EE2081F280915505803208F4DD
:104B1000BECF20915005309151053A8329831B82E5
:104B2000DD82CC828E83CE010196AFCFC816D90626
:104B300040F0C81AD90AB8ECCB16D10448F0F12CD1
:104B4000BDCF809590958C0D9D1D883C9105B8F743
:104B5000FE2CEE2009F4A8CF531316C0421314C044
:104B60008091550580FD6ECF982F907F09F46ACF14
:104B7000F8018583903F09F462CF982F907F905F72
:104B80008F70892B85835BCF2D873E878D859E8592
:104B90000E94451081117BCF8091550581608093E3
:104BA0005505C8010E949F1CD8CEEE2009F47CCF89
:104BB0002D873E878D859E850E944510F82E88237F
:104BC00009F472CF86E0F801A0E5B5E001900D92FE
:104BD0008A95E1F780915005909151050E943B1014
:104BE00092959F70963041F480914F0591E089270E
:104BF00080934F0590934E050E94E523AECE81E051
:104C00008E25C9CE1F93CF93DF93CDB7DEB76797BD
:104C10000FB6F894DEBF0FBECDBF6D8B7E8B8F8B32
:104C20008E899F89892BE1F0852F84238F3F09F09E
:104C300098C05FEF4FEF14C030914F05332309F454
:104C40004EC0E42FF0E036E0539FE00DF11D11243B
:104C5000EE0FFF1FE051FE4F40815181822B8C935C
:104C60001A8A198A4B8B5C8B85E0FE017396DE01F4
:104C70001D9601900D928A95E1F786E0FE013D9622
:104C8000DE01179601900D928A95E1F7CE01079605
:104C90000E944924811112C086E0FE013796DE0190
:104CA000119601900D928A95E1F78A859B85892B53
:104CB00029F08F81988589238F3FC9F516E080916F
:104CC000870590915605891320C067960FB6F89412
:104CD000DEBF0FBECDBFDF91CF911F9108958095AC
:104CE0008223BDCF96E0929FD001939FB00D1124F7
:104CF000A95ABA4FFE01319601900D929A95E1F7AB
:104D0000809356050E94C808D9CF819FC001112405
:104D1000895A9A4F0E9449248823B9F280918705C5
:104D200090E001968770992780938705C8CF2091DE
:104D3000560530E0C9010196877099274091870593
:104D40004817190679F60E944B17109256051092D3
:104D5000870586E0E0E5F5E0DF011D928A95E9F739
:104D6000ADCF81E090E0042E01C0880F0A94EAF7ED
:104D7000A52FB0E0A55CBA4F2C913D8931115CCFD5
:104D8000322F38235BCF8F929F92AF92BF92CF92F8
:104D9000DF92EF92FF920F931F93CF93DF93809157
:104DA000090190910A01892BA1F08091D7038F5FAF
:104DB0008093D70381110DC00E94301590E090932D
:104DC0000A0180930901892B21F40E9414150E9485
:104DD0000F1267EDE62E65E0F62E6701C0E010E0E9
:104DE00007E00C0F8C2F0E94A715802F0E94A7159B
:104DF0008C2F0E94FB15F60191916F01D0E089176D
:104E000019F031978083D1E0802F0E94FB15F601C5
:104E10009681891709F463C0868381E08D2B182B56
:104E20000E942F11CF5FC730D9F60E946D166AEF2E
:104E300070E00E94802EB82FA091CF03AA2309F41E
:104E40009CC21092CF03E091CD05F091CE054F01A9
:104E50002EE0820E911C40E00BEF5AEFC52ED12CB4
:104E600051915B3F81F0652F70E02B2F392F851713
:104E7000C0F1261B370B2E313105CCF19F0121509B
:104E80003109E90108838E169F0651F74093CF033D
:104E9000111102C0411173C21092CE03A091CD0531
:104EA000B091CE052091CF03EAEEF5E090E041917C
:104EB000E70139917E01431741F04C914B3FC9F412
:104EC0008C93EF012197388321E01196D5E0E83FDC
:104ED000FD0769F72093CF039093CE0354C280E07F
:104EE0009DCFE601C61BD70B2C0F3D1FC4CF4A2F09
:104EF000CACF91E0EACF0197A109B1095DC2840F41
:104F0000951FA61FB71F8EC21092160180924806E9
:104F100090924906A0924A06B0924B0681E0809397
:104F20000801F110A9C28091D30583FDA5C260914B
:104F300011067091120680911306909114060E943A
:104F40007A07882309F4CBC1823009F4CDC180915E
:104F50001701811191C240E060E00E948B098CC270
:104F600080910701081316C090915006937020910C
:104F7000060130E081E09217130609F480E08170A9
:104F800080931801063110F5E02FF0E0E25FFD4C50
:104F90000C94A82E81E0F3CF882309F442C08091BD
:104FA0001601C82FCC0FCC0FC80F35E0E32EEC0E46
:104FB000DE2CF0E3FE1510F420E3D22ED0E0CD1568
:104FC00038F081E09FE2B92EBE1458F580E029C088
:104FD00020E040E060E0CE010E948D092196EFCFF5
:104FE00080911601C82FCC0FCC0FC80FD5E0ED2E45
:104FF000EC0EDE2C20E32E1510F4B0E3DB2E6091D6
:10500000510670915206809153060E94FC0BC62EE9
:10501000B72EA82ED0E0CD15C0F081E09FE29E15FE
:10502000A8F2909116019F5F9093160181111DC205
:1050300082E08093080180911801811116C201114C
:1050400014C283E08093080110C2FE01E358FC4FB4
:10505000808190911701892331F02A2D4C2D6B2DE1
:10506000CE010E948D092196D6CF80911601C82FBE
:10507000CC0FCC0FC80FA5E0EA2EEC0ECE2CD0E35F
:10508000DE1510F4F0E3CF2EB0905206A090530638
:1050900020915406E0E4DE2E3D2D329F312D112467
:1050A000D32ED0E0CC1508F0B8CFFE01E358FC4F6A
:1050B0008081909117018923B9F0FE01EE0FFF1F47
:1050C000E25EFC4F808182958F70609151068D9DCC
:1050D000600D11247B2D8A2D0E94FC0B462F282F5A
:1050E000672FCE010E948D092196DCCF8091160199
:1050F000C82FCC0FCC0FC80F65E0E62EEC0ECE2CDF
:10510000D0E3DE1510F450E3C52EB0905206A09007
:1051100053062091540640E4D42E3D2D329F312D6C
:105120001124D32ED0E0CC1508F077CFFE01E35840
:10513000FC4F8081909117018923D9F0FE01EE0F79
:10514000FF1FE35EFC4F6081D69EB001112435E065
:10515000759567953A95E1F780915106680F7B2D1B
:105160008A2D0E94FC0B462F282F672FCE010E940C
:105170008D092196D8CF80911601C82FCC0FCC0F66
:10518000C80F95E0E92EEC0EDE2CD0E3DE1510F40E
:1051900080E3D82EC0905106D0915206B0905306AD
:1051A0006091540666956695669580914806909143
:1051B00049060E94F20B0E947B0B805887FD819567
:1051C000880F282F3B2D239F212D1124822F6C2DFA
:1051D0007D2F0E94FC0BC62EB72EA82ED0E0CD1539
:1051E00008F01BCFFE01E358FC4F8081909117011E
:1051F000892331F02A2D4C2D6B2DCE010E948D0973
:105200002196EDCF86E89AE00E94C90D0ACF8CE581
:105210009AE0FACF8DE59BE00E946D0D02CF8EE300
:105220009BE0FACF83E29BE00E94F00CFACE87E08D
:105230009BE0FACF8AE59AE0E7CF81E59AE0E4CFF8
:1052400088E49AE0E1CF8FE29AE0DECF81E29AE053
:10525000EBCF8AEC9BE0E0CF86EF9AE0DDCF82EEE9
:105260009AE0E2CF84EF99E00E948E0CDACE86ECD1
:1052700099E0FACF8FE899E0F7CF0093070180918A
:1052800050068370809306010E942813DACE409165
:1052900048065091490660914A0670914B062FB717
:1052A000F8948091C8059091C905A091CA05B09164
:1052B000CB052FBF84179507A607B70760F0841B9F
:1052C000950BA60BB70B4A97A105B10508F4CDC005
:1052D00010920801CAC00197A109B109F0CF90E06E
:1052E00080E00E946910C8C082E090E0FACF91701F
:1052F000892B09F4D3C08091D5039091D6038130D6
:10530000984780F01092170660911106709112066E
:1053100080911306909114060E94FB101092D60300
:105320001092D5038091D5039091D6030196909366
:10533000D6038093D503812FDF91CF911F910F91D9
:10534000FF90EF90DF90CF90BF90AF909F908F90A5
:1053500008950E94F510A9C0892B69F31092D60315
:105360001092D50360911106709112068091130678
:10537000909114060E94FB10DECF11118DCD9091FB
:10538000CE03911189CD4091D0035091D10360910A
:10539000D2037091D3032FB7F8948091C8059091F0
:1053A000C905A091CA05B091CB052FBF84179507F9
:1053B000A607B70708F49FCD841B950BA60BB70B68
:1053C0002FB7F8948090C8059090C905A090CA05A1
:1053D000B090CB052FBF8092D0039092D103A092C2
:1053E000D203B092D30340914C0650914D06609188
:1053F0004E0670914F064F3FEFEF5E076E077E0738
:10540000C9F0AA27BB276C017D01C094D094E09419
:10541000F094C416D506E606F70608F070CD8FEFB7
:105420009FEFDC0180934C0690934D06A0934E06AF
:10543000B0934F06F090190600E0F11008C080917B
:105440005006082F037019F0082F069506958091D5
:105450000801813009F484CD882309F455CD8230C8
:1054600009F40BCF833009F412CFF11005C08091FD
:105470001906882309F457CD8091D5039091D6035E
:1054800020911706222309F467CF009709F02FCF48
:105490000E94EC100E94E9100E94E610C091D40313
:1054A000CC2309F456CF0E94E91081E0C827C093AD
:1054B000D40321CFCDB7DEB7C955D1090FB6F894C3
:1054C000DEBF0FBECDBF84B7877F84BF0FB6F89411
:1054D000A8958091600088618093600010926000C0
:1054E0000FBE80E890E00FB6F8948093610090932F
:1054F00061000FBE85B7806885BF85B7806885BFAE
:105500000E9415040E94E2048091E200846080936E
:10551000E200789480913E068823A1F01091E90082
:105520001F709091EC00892F817090FD80E8182BFE
:105530001092E9008091E80083FD0E9460171F70BF
:105540001093E90082E084BD93E095BD9AEF97BD8A
:1055500080936E000E94301590E090930A01809332
:1055600009010E942F110E943E11A7EDB5E088EFBE
:1055700095E0EAEEF5E011921D928E179F07D9F79C
:105580008EE090E00E94A2308093CD059093CE05EE
:10559000FC010E962BEF2193E817F907E1F790E055
:1055A00080E00E94CC2E8F3E9E4F11F00E948F1201
:1055B0000E9414158CE090E00E94BE2E90E0B0E0B6
:1055C000A0E08093CF059093D005A093D105B09330
:1055D000D20589EA8093800089E080938100249835
:1055E0002C983F988AB18F7C8AB96E98479A8BB174
:1055F00080638BB9769A8FE090E00E94C62E60930C
:10560000D3057093D4058093D5059093D605677024
:105610008FEF869FB00111247595679575956795F5
:105620007727709389006093880070938B00609354
:105630008A0070938D0060938C009091D30594FF45
:10564000ECC0809317010E940F1290E080E00E944E
:10565000CC2E8F3E9E4F11F00E948F1282E090E080
:105660000E94BE2E809302060E9445119093E6058B
:105670008093E50583E090E00E94BE2E682F70E0E5
:1056800090E080E00E9441170E947E090E947E09FE
:105690000E9474148BE091E09093E8058093E705F5
:1056A000EE24EA948EEFF82E93E0492E21E4C22EE8
:1056B000D12CCC0EDD1E82E0C80ED11C30E1732E41
:1056C00042E1642E58E1A52EB12C60E4562E809163
:1056D0003E06853009F4A4C00E94C326A3E0B6E0CC
:1056E000EAEEF5E010E000E0302F81912D912817CF
:1056F00009F4E7C090E0992493942827422F492188
:1057000009F4DAC061969FAF619762963FAF6297E6
:10571000892191E009F490E063969FAF63970E941E
:105720006D168160782F65969FAF8EAF65976196F5
:105730004FAD619762965FAD629763966FAD639769
:1057400065968FAD65970E940226F801ED5FF94FCF
:105750008081982690828091FF05909100060E949A
:1057600050079C019091FE05992319F024313105D1
:1057700078F02091FA059090FB051091FC050091BE
:10578000FD052111C4C0812F8929802B09F0ADC1ED
:105790000E94280990910106891721F00E9428098A
:1057A0008093010680913E06843009F090CF80936B
:1057B000E9008091E80082FF8ACF8091E80090E0C4
:1057C00085FF06C00E943404882309F404C191E0D7
:1057D0008091E8008B778093E800992309F477CFD4
:1057E0001981111114C180911706882309F429C168
:1057F0001092170681E08093160622961FAE22971C
:1058000023961FAE23972496FFAE249763E0CE0124
:105810008F5B9F4F0E940B065ACF1092170113CF38
:105820000E94DD1080913E06843019F11092E90546
:105830000FB6F894A895A09260000FBE5092600039
:105840000E94DD1083B7817F846083BF83B781604E
:1058500083BF7894889583B78E7F83BF0FB6F89403
:10586000A89580916000886180936000109260002C
:105870000FBE80913D06882309F429CF0E94301580
:1058800090E090930A01809309010E942F110E94D9
:105890003E11EAEEF5E0119295E0E83FF907D9F7FD
:1058A0000E94C326EAEEF5E0819181110AC125E04C
:1058B000E83FF207C9F70BCF9F5F990C963009F0CC
:1058C0001DCF0F5F1F4F0E30110509F00DCF6696EB
:1058D000EFAE66976796EFAE679768961FAE6897CC
:1058E0000E946D168160782F6A969FAF8EAF6A977F
:1058F00066964FAD669767965FAD679768966FAD92
:1059000068976A968FAD6A970E94022624CF9F3FC0
:1059100019F09F5F9093FE05121624F40E94C406AE
:105920008093FA058091FA0587FF05C00E94C4069E
:1059300081958093FA05191424F40E94C40680937B
:10594000FB058091FB0587FF05C00E94C406819579
:105950008093FB053091FA053323A1F02091FB05DC
:10596000222381F045EB3403C0011124992359F11E
:105970009093FA0545EB240390011124332339F168
:105980003093FB05111624F40E94A2068093FC05B7
:105990008091FC0587FF05C00E94A2068195809337
:1059A000FC05101624F40E94A2068093FD05809148
:1059B000FD0587FF05C00E94A20681958093FD0525
:1059C0000E947916E5CE81E08093FA05D3CF81E07D
:1059D0008093FB05D7CF00E410E0CE0101964C0187
:1059E0008091E80085FD0AC08091E8008B77809364
:1059F000E8000E943404882399F3E9CE8091F100F5
:105A0000F40181934F010150110951F7E0CE11309B
:105A1000C1F422961FAE229723961FAF23978CE0E6
:105A2000ECE1F1E0D60101900D928A95E1F76096E4
:105A3000FFAE60976FE0CE018F5B9F4F0E940B0619
:105A400046CE809116068823C1F1123041F0133002
:105A5000F1F081E022968FAF229761E0D8CE60917D
:105A600011067091120680911306909114060E94FF
:105A70007A0722961FAE229723961FAF239724966C
:105A80008FAF24972596FFAE259764E0C0CE8A811C
:105A9000813041F0882341F08230D9F681E0809353
:105AA000150602C01092150622961FAE2297239665
:105AB0004FAE239780911506E2CF2296EFAE229744
:105AC000CCCF79BC69BC09B400FEFDCF8091D80071
:105AD0008F7D8093D8008091E00082608093E00009
