:100000000C949F040C94BC040C94BC040C94BC048D
:100010000C94BC040C94BC040C94BC040C94BC0460
:100020000C94BC040C94BC040C946A1A0C94261A0C
:100030000C94EB2C0C94BC040C94BC040C94BC04E9
:100040000C94BC040C94BC040C94BC040C94BC0430
:100050000C94BC040C9479160C94BC040C94BC0451
:100060000C94BC040C94BC040C94BC040C94BC0410
:100070000C94BC040C94BC040C94BC040C94BC0400
:100080000C94BC040C94BC040C94BC040C94BC04F0
:100090000C94BC040C94BC040C94BC040C94BC04E0
:1000A0000C94BC040C94BC040C94BC0457FFEA5799
:1000B000FFEA57FFEA57FFEA57FFEA57FFEA57FF01
:1000C000EA57FFEA57FFEA57FFEA57FFEA57FFEA06
:1000D00057FFEA57FFEA57FFEA57FFEA57FFEA5789
:1000E000FFEA57FFEA57FFEA57FFEA57FFEA57FFD1
:1000F000EA57FFEA57FFEA57FFEA57FFEA57FFEAD6
:1001000057FFEA57FFEA57FFEA57FFEA57FFEA5758
:10011000FFEA57FFEA57FFEA57FFEA57FFEA57FFA0
:10012000EA57FFEA57FFEA57FFEA57FFEA57FFEAA5
:1001300057FFEA57FFEA57FFEA57FFEA0000FF00C0
:1001400000FF0000FF0000FF0000FF000000F3DEE2
:10015000EAF3DEEAF3DEEA86FFD5000000F3DEEA2A
:10016000F3DEEAF3DEEA86FFD5000000F3DEEAF311
:10017000DEEAF3DEEA86FFD5F3DEEA00000086FF62
:10018000D586FFD50000FF0000FF0000FF0000FF44
:100190000000FF0000000000000000000000000060
:1001A000000000000000000000000000000000004F
:1001B000000000000000000000000000000000003F
:1001C000000000000000000000000000000000002F
:1001D000000000000000000000000000000000001F
:1001E000000000000000000000000000000000000F
:1001F000F3DEEAF3DEEA0000000000000000000089
:10020000000000000000000086FFD586FFD500003A
:10021000FF000000000000000000000000000000DF
:1002200000000000000000000000000000000000CE
:100230000000000000F3DEEAF3DEEA000000000048
:1002400000000000000000000000000000000000AE
:1002500086FFD586FFD50000FF000000000000F3F8
:10026000DEEAF3DEEA00000000000000000086FF86
:10027000D586FFD5000000000000000000F3DEEA94
:10028000F3DEEA00000000000000000086FFD586D3
:10029000FFD50000000000000000FF0000FF00008C
:1002A000000000000000000000000000000000004E
:1002B000000000000000000000000000000000003E
:1002C000000000000000000000000000000000002E
:1002D000000000000000000000000000000000001E
:1002E0000000FF0000FF0000000000000000000010
:1002F00000000000000000000000000000000000FE
:1003000000F3DEEA000000000000000000F3DEEA77
:10031000F3DEEAF3DEEA0000000000000000000067
:10032000000000000000000086FFD586FFD5000019
:1003300000000000000000000000000000000000BD
:1003400000000000000086FFD5F3DEEA86FFD5003E
:100350000000000000F3DEEAF3DEEAF3DEEA00006C
:10036000000000000000000000000000000000008D
:10037000000000000000000000000000000101017A
:100380000101010101010202020202020202020352
:100390000303030303030304040404040404050522
:1003A00005050506060606060707070707080808E5
:1003B00008090909090A0A0A0B0B0B0C0C0C0D0D94
:1003C0000D0E0E0E0F0F0F1010111111121213132C
:1003D0001414151516161717181819191A1A1B1BA5
:1003E0001C1D1D1E1E1F2020212222232424252601
:1003F00026272829292A2B2C2D2D2E2F3031323239
:10040000333435363738393A3B3C3D3E3F40414244
:10041000434445464748494A4C4D4E4F505153542A
:10042000555658595A5B5D5E5F61626465666869DE
:100430006B6C6D6F7072737577787A7B7D7E80825E
:10044000838587888A8C8E8F91939596989A9C9EA7
:10045000A0A2A3A5A7A9ABADAFB1B3B5B7BABCBEB7
:10046000C0C2C4C6C9CBCDCFD1D4D6D8DBDDDFE284
:10047000E4E7E9EBEEF0F3F5F8FAFDFF29002B00D5
:100480002900E100004100001E00144304001D612A
:10049000E0004D001F001A0016001B00E200E30000
:1004A000200008000700060050002C002100150065
:1004B000094319004F004B00220017000A000500F5
:1004C0000000060835022B0000002E00000019086D
:1004D000A600010000004C0000004E0023001C009C
:1004E0000B00110000000453240018000D421000FE
:1004F00052004E0025000C000E003600510028006E
:10050000260012000F0037002F002A0027001300DA
:10051000334438003000E2002D0031003400E500A3
:100520002E00000001000100010001000100000098
:100530003A00010001000100010001003B00010040
:10054000010001000100C95C3C0001000100010044
:100550000100CA5C3D0001000100010001000C5DCA
:100560003E00010001000100000001000100010047
:100570000000010000000B5D01000100000001000F
:100580000000C25C3F00010001000100000001000A
:100590004000240021001E0062000D5D4100250086
:1005A00022001F000100C55C42002600230020003D
:1005B0006300C65C430025022E0231002E000100BC
:1005C000440045000100010001000000010001009D
:1005D0000100010001000000010001000100010014
:1005E000010001000100010001000100A80001005C
:1005F00001000100AC000100AA00AE0001000100F2
:10060000AB000100A9000100010001000100010090
:1006100000000100010001000000010000000100D5
:1006200001000100000001000000010001000100C4
:1006300001000100000001000100010001000100B3
:10064000A900010001000100AC000100AA00AE00F9
:1006500001000100AB000100A80001000100010041
:100660000100010001000100010001000100010082
:100670000100000001000100010001000100000074
:100680000100010001000100010001000100010062
:100690000100010001002D00010001000100010026
:1006A00001005700010001000100010001000100EC
:1006B0000100010001000100000001000100010033
:1006C0000000010000000100010001000000010025
:1006D0000000010001000100010001000000010014
:1006E000260236022F022F00F900010027023702EE
:1006F00030023000FA002E0001002F00010001003E
:1007000001000100010030000100010001000100B2
:1007100001000100010001000100000001000100D2
:1007200001000100010000000100010001000100C2
:10073000010001000100F400F20001000100F500D9
:100740000100F000F1000100F900F4000100F500E3
:10075000F3000100FA0001000100010001000100A6
:100760000000010001000100000001000000010084
:100770000100010000000100000001000100010073
:100780000100010000000100010001005000010013
:10079000F90001000100520051000100FA00FA00C6
:1007A000010001004F0001000100F90001000100FB
:1007B0000100010001000100010001000100010031
:1007C0000100000005010902A10185020901A10043
:1007D00005091901290515002501950575018102F5
:1007E0009501750381010501093009311581257FC6
:1007F00095027508810609381581257F95017508D0
:100800008106050C0A38021581257F95017508813E
:1008100006C0C005010980A10185031A81002A8351
:1008200000160100260300950175108100C0050C1B
:100830000901A10185041A01002A9C021601002663
:100840009C02950175108100C005010906A1018572
:1008500005050719E029E7150025019508750181AF
:10086000020507190029EF1500250195F075018192
:100870000205081901290595057501910295017573
:10088000039101C005010906A101050719E029E747
:1008900015002501950875018102950175088101F2
:1008A0000507190029FF150026FF00950675088128
:1008B0000005081901290595057501910295017535
:1008C000039101C009023B00020100A0FA090400E3
:1008D000000103010100092111010001224000076C
:1008E00005810308000A0904010001030000000952
:1008F000211101000122C0000705820320000A1215
:1009000001100100000008EDFE07130100010203C1
:100910000104033000000016034500720067006FF9
:100920000064006F007800200045005A00000008B5
:10093000035A00530041000000040309040011247D
:100940001FBECFEFDAE0DEBFCDBF13E0A0E0B1E025
:10095000ECE2F3E602C005900D92A23AB107D9F796
:1009600026E0A2EAB3E001C01D92A734B207E1F786
:100970000E94A92A0C943F310C940000E8EDF0E0AD
:1009800080818E7F80831092E2001092DA001092B4
:10099000E100A0EEB0E08C9181608C9380818F7734
:1009A000808319BCA7EDB0E08C918E7F8C93808101
:1009B0008F7E80831092060608952091E400309186
:1009C000E50095E6A9012091EC00822F817020FFBF
:1009D00006C08091E80080FF06C080E00895209165
:1009E000E80022FD1AC080912C06882389F085300A
:1009F00089F08091EB0085FD0FC02091E4003091DB
:100A0000E50042175307F9F29150E1F684E00895AA
:100A100082E0089583E0089581E00895EF92FF92C7
:100A20000F931F93CF937C018B010E94DD04C82F8D
:100A3000811117C08091E80085FD0BC08091E8000E
:100A40008E778093E8000E94DD04882399F3C82FF5
:100A500008C0F70181917F018093F10001501109D5
:100A600049F78C2FCF911F910F91FF90EF90089530
:100A700080912E0687FF13C08091E80082FF06C098
:100A80008091E8008B778093E80004C080912C0669
:100A90008111F2CF089580912C068823D9F380919B
:100AA000E80080FFF8CF8091E8008E77ECCF982F98
:100AB0009093E900242F762F50E0891731F0709140
:100AC000EC002091ED005091F00021FD07C09F5FE8
:100AD000973071F78093E90081E008953091EB0041
:100AE0003E7F3093EB003091ED003D7F3093ED0081
:100AF0003091EB0031603093EB007093EC00209369
:100B0000ED005093F0002091EE0027FDE0CF80E053
:100B10000895CF92DF92EF92FF920F931F93CF939E
:100B2000DF93C8EDD0E088818F7E8883E7EDF0E029
:100B300080818160808384E082BF81E080930606AB
:100B400088818E7F888302EE10E0F8011082109277
:100B5000DA0081EEC82ED12CF601108288818F77C1
:100B6000888388818068888388818F7D888319BC89
:100B700010922C0610922D0610922B0610922A0627
:100B800090EEE92EF12CF70180818B7F80838881A4
:100B90008160888342E060E080E00E945705F601B2
:100BA00080818E7F8083F801808181608083808155
:100BB00088608083F70180818E7F80838881806157
:100BC0008883DF91CF911F910F91FF90EF90DF907D
:100BD000CF900895FC0180913406909135068617D8
:100BE0009707A0F06115710529F49091E8009E77B0
:100BF0009093E80090E06115710551F4911108C0DF
:100C00008091E80082FF34C080E00895BC01F2CFFB
:100C100080912C068823C1F18530C1F18091E800D4
:100C200083FD30C08091E80082FDEACF8091E8002A
:100C300080FFE1CF8091F3002091F200382F611501
:100C4000710519F02830310558F091E02830310550
:100C500009F090E02091E8002E772093E800CBCFB8
:100C600081918093F100615071092F5F3F4FE7CF71
:100C700080912C06882341F0853041F08091E80076
:100C800083FFBECF81E0089582E0089583E0089558
:100C900080912C06843011F482E0089581E008955B
:100CA0008091090608959091EF05803F41F480916D
:100CB000F00587FD1092F005992371F00895813FAA
:100CC00029F48091F0051816ACF3F6CF823F81F439
:100CD00097FFF2CF1092EF058091F0059091F1050A
:100CE000892B9091F205892B49F71092F30508950D
:100CF000833F19F4191674F3DFCF893F39F48091DB
:100D0000F1051816CCF61092F105D6CF8A3F29F4DA
:100D10008091F10587FFD0CFF6CF8B3F39F48091DA
:100D2000F20587FFC9CF1092F205C6CF8C3F29F498
:100D30008091F2051816BCF3BFCF843F31F4809147
:100D4000EE058E7F8093EE05B7CF853F21F480912D
:100D5000EE058D7FF7CF863F21F48091EE058B7FE6
:100D6000F1CF873F21F48091EE05877FEBCF883F5D
:100D700021F48091EE058F7EE5CF8D3F31F4809197
:100D8000C1058E7F8093C10597CF8E3F21F480915E
:100D9000C1058D7FF7CF8F3F09F08ECF8091C105C0
:100DA0008B7FF0CF8091C10580FD16C081FD16C0FC
:100DB00082FD16C08091F3058823A1F0883280F46B
:100DC00028E0829FC001112468E270E00E94062E94
:100DD000862F672B39F0089582E0089584E0089506
:100DE00088E0089581E008958091C10580FD16C0D6
:100DF00081FD16C082FD18C08091F305882391F013
:100E00008C3390F423E2829FC00111246CE370E0E4
:100E10000E94062E862F672B49F0089588E00895DA
:100E200081E1089585E0089583E2089581E00895C1
:100E3000803F31F40E94F40681958093F005089577
:100E4000813F19F40E94F406F8CF823F31F40E94EA
:100E5000F40681958093EF050895833F19F40E946D
:100E6000F406F8CF893F29F40E94D2068093F10559
:100E700008958A3F21F40E94D2068195F7CF8B3FD7
:100E800031F40E94D20681958093F20508958C3F3B
:100E900019F40E94D206F8CF843F31F48091EE0518
:100EA00081608093EE050895853F21F48091EE05E1
:100EB0008260F7CF863F21F48091EE058460F1CF08
:100EC000873F21F48091EE058860EBCF883F21F4C5
:100ED0008091EE058061E5CF8D3F31F48091C105B1
:100EE00081608093C10508958E3F21F48091C105F2
:100EF0008260F7CF8F3FB9F78091C1058460F1CF51
:100F0000CF92DF92EF92FF920F931F932FB7F89437
:100F10004091BD055091BE056091BF057091C0051F
:100F20002FBF6A017B01EE24FF248C0130E020E01A
:100F3000C016D106E206F30650F0481B590BCA0151
:100F40001F910F91FF90EF90DF90CF900895415047
:100F50005109F3CFCF92DF92EF92FF926C01EE2412
:100F6000FF2420E0C114D104E104F10419F0C70109
:100F7000B60120E1C72ED82EE92EFF24C114D104DA
:100F8000E104F10419F0285FC701B6016B017C018F
:100F900054E0F694E794D794C7945A95D1F7C114C6
:100FA000D104E104F10419F02C5FC701B6016B0113
:100FB0007C0142E0F694E794D794C7944A95D1F720
:100FC000C114D104E104F10419F02E5FC701B60188
:100FD0009695879577956795672B682B692B09F010
:100FE0002F5F822FFF90EF90DF90CF900895809138
:100FF000B80581111092B80508958091B7059091B8
:10100000B605892B9091B505892B8093A203909109
:10101000B8059923A1F0892B8093A2038091150133
:10102000882341F18091DA0587FF24C08EE1E4EA4C
:10103000F3E090E0815000F591110E94F707E091F4
:10104000DC05F091DD053097E1F0809115018823F2
:1010500059F08091DA0587FF07C08091A203809341
:10106000A30385E08093A2030280F381E02D82EA4E
:1010700093E0099486E0DBCF21912223D9F29F5F90
:10108000D9CF0895909115019923D1F09091DA0567
:1010900097FF16C0E82FE695E695E695EE31E0F469
:1010A000F0E0EE55FC4F282F277081E090E001C062
:1010B000880F2A95EAF78095928189238283089583
:1010C000E4EAF3E09191891303C0DF0111971C92C8
:1010D00093E0EA3AF907B1F7089590911501992341
:1010E000C1F09091DA0597FF14C0E82FE695E695D8
:1010F000E695EE31F8F4F0E0EE55FC4F877021E014
:1011000030E001C0220F8A95EAF78281822B828328
:101110000895A4EAB3E0EFEF90E02D91821751F02B
:10112000EF3F19F4211101C0E92F9F5F9630A9F715
:10113000EF3F09F408950E2E000CFF0BEE55FC4F07
:10114000E6CFE92FEE0FE90FEE0F8E0F982F977075
:1011500086958695869525E0829FF0011124E758B3
:10116000FA4F50E040E080E0219130E0092E02C0CB
:10117000369527950A94E2F721703327042E01C093
:10118000220F0A94EAF7822B4F5F5F4F45305105DB
:1011900059F70895E92FEE0FE90FEE0F8E0F982FF4
:1011A000977041E001C0440F9A95EAF786958695BD
:1011B000869595E0899FF0011124E758FA4F30E0B9
:1011C00020E070E05191DF011197CB01022E02C0A7
:1011D000969587950A94E2F78170819585278423F7
:1011E00085278C932F5F3F4F2530310559F70895A0
:1011F0008091780590914705981301C008958F5FFD
:101200008770FACF882341F080959091B6058923A5
:101210008093B6050C94FD070895882339F09091CA
:10122000B605982B9093B6050C94FD070895882376
:1012300041F080959091B70589238093B7050C9470
:10124000FD070895882339F09091B705982B909366
:10125000B7050C94FD07089520912A0530912B05C0
:101260002817390771F090932B0580932A05E09198
:10127000DC05F091DD05309721F00084F185E02D4B
:1012800009940895209128053091290528173907D8
:1012900071F09093290580932805E091DC05F09189
:1012A000DD05309721F00680F781E02D099408953F
:1012B000E091DC05F091DD05309721F00190F0819F
:1012C000E02D099480E00895FA01811101C0FB012D
:1012D00009948033910538F5880F991F880F991F5D
:1012E000FC01EC5DFE4F5281338180818370E1818E
:1012F000A82FB0E070E9879FC001112480529C4F55
:10130000E80FF92FF11DB4976083FC01E50FF11D83
:10131000B4974083830F911DFC01B4972083A252A0
:10132000BC4F81E08C930895FF920F931F93CF934E
:10133000DF93182F062FF42ED0E0C0E02F2D402F82
:10134000612FCE010E9469092196C033D105B1F702
:10135000DF91CF911F910F91FF90089580913E06EC
:10136000837011F41092080180913E068C7F816099
:1013700080933E0608950C9494090C9469090F9388
:101380001F9310E0F801EE0FFF1FEF5EFC4F9081FE
:10139000905797FD9195000F111FF801EE5EFC4FDD
:1013A00000810052110B2003F001219FF00D112448
:1013B00008E310E0091B110997FD13954003900104
:1013C000419F300D1124E20FF31F9F01220F331FA5
:1013D0002E0F3F1F37FF02C021583F4F220F232FF0
:1013E000221F330B620F1F910F9108950F931F93CC
:1013F000522F10E0F801EE0FFF1FEE5EFC4FA081B0
:10140000A052BB0B9D015203F001539FF00D11241C
:10141000000F111FD801AF5EBC4F0C910057110B8C
:1014200040039001419F300D11242E0F3F1F37FFC5
:1014300002C0215C3F4F96E0359527959A95E1F7DC
:10144000620F1F910F9108950F931F93522F10E079
:10145000F801EE0FFF1FEE5EFC4FA081A052BB0B08
:101460009D015203F001539FF00D1124000F111F35
:10147000D801AF5EBC4F0C910057110B4003900197
:10148000419F300D11242E0F3F1F37FF02C02158FE
:101490003F4F220F232F221F330B620F1F910F91FB
:1014A0000895EF920F93972F23E0029FB00111242C
:1014B000759567956E0D792F0F91EF900895322FE6
:1014C00050E0FA01EE0FFF1FEE5EFC4F908190524C
:1014D00097FD9195440F551FFA01EF5EFC4F208157
:1014E000231B330B290F311D97FD3A95620F089589
:1014F000E42FF0E0EE0FFF1FEE5EFC4F6081621BF9
:101500000895E42FF0E0EE0FFF1FEF5EFC4F6081C7
:10151000621B0895622F0895E42FF0E0EE0FFF1F85
:10152000EF5EFC4F408134EE439F412D1124E82FA4
:10153000F0E050E0445E5F4FDA01A21BB1099D016B
:10154000B7FF03C031952195310993E0220F331F76
:101550009A95E1F7AF01421B530B9A0157FD20E02A
:10156000582F259F212D1124822F0895E42FF0E07C
:10157000EE0FFF1FEF5EFC4F408134EE439F412D85
:101580001124E72FF0E050E0445E5F4FDA01A21B28
:10159000B1099D01B7FF03C031952195310993E051
:1015A000220F331F9A95E1F7AF01421B530B9A01AB
:1015B00057FD20E0279F212D1124722F0895FC0153
:1015C0009B01009729F480E077FF2BC080E8089505
:1015D000AC0197FF04C044275527481B590BB9019C
:1015E000640F751F37FD10C0241B350BC901A5E022
:1015F000880F991FAA95E1F70E94062E80E2861BAC
:10160000F7FF0FC081950895CB0165E0880F991F02
:101610006A95E1F7BA01621B730B0E94062E80E601
:10162000EECF0895EF920F93CF93DF93D72FC82F6C
:10163000C9010E19BA010E94DF0A602F681B7D2FB5
:101640008C2FDF91CF910F91EF9008950F93CF934F
:10165000DF93D72FC82FC901BA010E94DF0A682F74
:10166000600F7D2F8C2FDF91CF910F910895EF9216
:101670000F931F93CF93DF93D62FC72F182FC90136
:101680000E19010FBA010E94DF0A081B202F219FAB
:10169000212D1124822F6D2F7C2FDF91CF911F914F
:1016A0000F91EF900895EF920F931F93CF93DF93D5
:1016B000D62F172FC82FC9010E19070FBA010E9484
:1016C000DF0A702F781B719F712D11246D2F8C2FC5
:1016D000DF91CF911F910F91EF9008950F931F937A
:1016E000CF93DF93D62FC72F182FC901212F201B8F
:1016F000022FBA010E94DF0A982F990F990F891BB8
:10170000800F282F219F212D1124822F6D2F7C2FB8
:10171000DF91CF911F910F9108950F931F93CF9356
:10172000DF93D62F172FC82FC901272F201B022F79
:10173000BA010E94DF0A982F990F990F782F791B11
:10174000700F719F712D11246D2F8C2FDF91CF9110
:101750001F910F910895E82F86FDE0952E2F2F7091
:1017600086FD2F5FE695E695E695E670F0E0E45E8F
:10177000FE4F9181929F902D212D112492959F7063
:101780002295207F922B2081920F87FD919580E8F2
:10179000890F0895AC018230910508F408959FEFF8
:1017A000413E8EE1580740F49A0195E03695279521
:1017B0009A95E1F798E0920F61E0E62FE90FFF2795
:1017C000FF1F9F0135952795822F229FF001239FB0
:1017D000F00DF00D11244E175F0738F49FEF920FB4
:1017E000961758F78FEF860F08952F3FE9F361E0C2
:1017F000620FF6CF0F93CF93DF93D72FC82F47FDFC
:10180000419588E390E0841B910947FD9395889F5B
:10181000B001899F700D700D1124229FC001239F7C
:10182000900D900D1124860F971F0E94CA0B982FC0
:10183000990F890F682F600F7D2F8C2FDF91CF912B
:101840000F91089530E020E0869F212D969F200D76
:10185000311D1124C9010895AF92BF92CF92DF923A
:10186000FF920F931F93CF93DF93362F472FE82FCD
:10187000F0E0E458FC4F71110DC06491762F862F73
:10188000DF91CF911F910F91FF90DF90CF90BF908C
:10189000AF900895C72FD0E02491F22E022F10E0D0
:1018A00056E0659FC0011124EFEFF0E0BF010E94F8
:1018B000F22D832F90E0880F991F35E5369FD001D8
:1018C000379FB00D11248A1B9B0B982F990F980FEF
:1018D0006F01CC1ADD0AC09ED001C19EB00DD09E12
:1018E000B00D11248B2F949FA0011124452F552753
:1018F0006F01C41AD50AC09EA001C19E500DD09E92
:10190000500D11245F01A91AB108AC9E6001AD9E73
:10191000D00CBC9ED00C1124CD2CDD24EC19FD097B
:10192000E09FE001E19FD00DF09FD00D1124ED2F3D
:1019300062307105A1F048F46115710569F06130FC
:10194000710589F0EB2F852F07C06430710571F0A8
:1019500088F066307105B1F76E2F722F91CFE22FAC
:101960002B2F8D2FF9CFE22F252FF6CFEB2F822FA4
:101970002D2FF2CF2B2F8F2DE52FEECF9F92AF92F1
:10198000BF92CF92DF92EF92FF920F931F93CF936C
:10199000DF936C0180911601C82FCC0FCC0FC80FBC
:1019A00015E01C0FB12E113310F030E3B32E60910F
:1019B00042066695669580913606909137060E949C
:1019C000220CF82E80E48F0D0E94AB0B90E8A92E1C
:1019D000A80E8F2D0E94AB0B20E8922E980ED0E01F
:1019E000CB1580F081E0103308F080E0DF91CF91DB
:1019F0001F910F91FF90EF90DF90CF90BF90AF902D
:101A00009F900895FE01EF58FC4F8081909117013F
:101A10008923A1F060913F067091400680914106B4
:101A2000EF2C0C2F292D4A2DF60109950E942C0C24
:101A3000462F282F672FCE010E94BD092196D0CFB7
:101A40007F928F929F92AF92BF92CF92DF92EF924E
:101A5000FF920F931F93CF93DF935C018091160148
:101A6000C82FCC0FCC0FC80F15E01C0FF12E11336F
:101A700010F030E3F32E60914206669580913606B1
:101A8000909137060E94220C782ED0E0CF1590F06E
:101A900081E0103308F080E0DF91CF911F910F912A
:101AA000FF90EF90DF90CF90BF90AF909F908F907E
:101AB0007F900895FE01EF58FC4F808190911701AF
:101AC0008923C9F1CE01880F991F83549D4FFC01D2
:101AD000EC5AFF4F2081422F4057550B6A018B5A19
:101AE0009F4FFC018081282F2052330B4901449FD6
:101AF0009001459F300D300D1124889CC001899CB8
:101B0000900D900D1124820F931F0E94CA0B082F75
:101B100060913F067091400680914106E72C940148
:101B2000A601F50109950E942C0C462F282F672F3E
:101B3000CE010E94BD092196A9CFCF92DF92EF92EC
:101B4000FF920F931F93CF93DF937C018091160137
:101B5000C82FCC0FCC0FC80F15E01C0FD12E11339E
:101B600010F030E3D32E60914206669580913606E0
:101B7000909137060E94220CC82ED0E0CD1568F057
:101B800081E0103308F080E0DF91CF911F910F9139
:101B9000FF90EF90DF90CF900895FE01EF58FC4F3B
:101BA000808190911701892311F1CE01880F991F2F
:101BB00083549D4FFC01EB5AFF4F20812052330B81
:101BC0008C5A9F4FFC0140814057550B60913F0656
:101BD00070914006809141060C2DF70109950E94F5
:101BE0002C0C462F282F672FCE010E94BD0921966D
:101BF000C5CFDF92EF92FF920F931F93CF93DF93A6
:101C00007C0180911601C82FCC0FCC0FC80F15E0B6
:101C10001C0F012F113308F000E360914206669516
:101C2000669580913606909137060E94220CD82E38
:101C3000D0E0C01760F081E0103308F080E0DF9161
:101C4000CF911F910F91FF90EF90DF900895FE01CB
:101C5000EF58FC4F808190911701892391F060919A
:101C60003F0670914006809141062D2D4C2FF701C3
:101C700009950E942C0C462F282F672FCE010E9419
:101C8000BD092196D6CF9091DA0592FF06C0282F84
:101C900028712830F9F4877F846093FF06C0282FCD
:101CA00028712831F1F4877E84612091DB0520FFC3
:101CB00006C0382F38713830D9F4877F816021FF12
:101CC00006C0282F28712831D1F4877E816194FDC8
:101CD000877E0895282F24712430F9F68B7F886041
:101CE000DCCF282F2471243101F78B7E8861DDCF72
:101CF000382F3171313019F78E7F8860E0CF282F6F
:101D00002171213121F78E7E8861E1CFCF93DF935E
:101D1000972F70E026E0929F600D711D1124FB014A
:101D200034E5839FE00DF11D1124EE0FFF1FE458F1
:101D3000FB4FC591D491CE01C238D105B9F1E8F578
:101D4000C133D10509F499C050F5C932D10509F460
:101D50008DC0CA32D10509F497C0C11542E5D40738
:101D600008F0C4C0C11521E5D20708F038C1C83E4B
:101D7000D10508F09DC0C03ED10568F5C83AD1052F
:101D800008F089C0C53AD10508F005C1C130D105B8
:101D900011F1209709F443C02497E8F440C0C533FB
:101DA000D10509F45CC0C933D105B9F62091DA0533
:101DB000237089F080EE90E00EC0C33ED10591F112
:101DC00068F4C03ED105F9F0C23ED10531F620914C
:101DD000DA0522FD20C0DF91CF910895C63ED105DE
:101DE00061F1C73ED10581F1C43ED10509F0B5CFFF
:101DF0002091DB0521FFEFCF8091DA0584FD0FC034
:101E000087EE90E0E8CF2091DA0520FD19C13091EE
:101E1000DB0530FFE0CF83EE90E024FFDCCF90E0E5
:101E200080E0D9CF2091DA0522FD0DC13091DB058C
:101E300030FDC0CF24FFCFCFF2CF2091DA0523FFB2
:101E4000CACF24FDECCFDCCF2091DA0523FDFEC004
:101E50003091DB0531FFEECF84EE90E0BCCF2091D6
:101E6000DA0525FFB8CF89E290E0B5CF2091DA05F9
:101E700025FFB1CF85E390E0AECF2091DA0526FFB4
:101E8000AACF8AE290E0A7CF2091DA0526FFA3CF60
:101E900081E390E0A0CFCF3BD10508F6C85AD0E04F
:101EA000CC0FDD1FC157DD4F88819981946493CF9A
:101EB000C11530E2D30760F4C11541E0D40708F042
:101EC0008ACFCE019065C03FD10508F084CFA7CF5F
:101ED000C11580E4D80708F4A2CFC11590E5D90751
:101EE00008F061C0CE019F70906A75CFC11526E5DC
:101EF000D20718F5C11535E5D30708F086C0C1151E
:101F000044E5D40708F07CC09C2F96959695AE01C9
:101F100043705527C115D34508F466C021E030E071
:101F200002C0220F331F4A95E2F740E2949FC0019E
:101F30001124822B932B9A684ECFC1159AE5D907AD
:101F400078F4C11529E5D20708F069C0C11538E554
:101F5000D30708F464CF9C2F8827806F906A3BCF0B
:101F6000C1154BE5D40708F45ACFC1158CE5D80745
:101F700008F462C0CE0190568115904208F04FCF10
:101F80008D2F8F710E94430E90E0982F882788270D
:101F90009F718C2B42C0C55AD0E0C457DD4F888159
:101FA00090E0906418CF9E01E4E036952795EA957D
:101FB000E1F723708C2F86958695837030E2839F9E
:101FC000C0011124922BC37021E030E002C0220F27
:101FD000331FCA95E2F7822B932B9C68FCCE9C2F73
:101FE0008827816F906AF7CE21E030E002C0220F8F
:101FF000331F4A95E2F740E2949FC0011124EBCFD2
:102000009C2F8827846F906AE6CE8C2F0E94430E07
:1020100090E0982F882788279F719062DCCE8C2FC4
:102020008F700E94430E34E0D695C7953A95E1F73C
:10203000CF709C2F9069CFCECE0199279066CBCEE2
:1020400089E390E0C8CE82EE90E0C5CE86EE90E0C7
:10205000C2CEBF92CF92DF92EF92FF920F931F9367
:10206000CF93DF938C01C090B005D090B105E09084
:10207000B205F090B3058091B9059091BA05A09191
:10208000BB05B091BC05C82AD92AEA2AFB2ACFE1B0
:10209000D0E0BC2ED701C6010C2E04C0B695A79582
:1020A000979587950A94D2F780FD0EC0219788F7FF
:1020B000B12C8B2DDF91CF911F910F91FF90EF905D
:1020C000DF90CF90BF900895B8018C2F0E94860EAC
:1020D000019761F3EECFCF93DF93EC010E942910BB
:1020E000BE01DF91CF910C94860E0E946B10292FB8
:1020F0002F7092959F7092509E3078F4E92FF0E007
:10210000EF5BFE4C0C941A2E803F19F020F4883EB1
:1021100020F481E00895843FE1F380E00895883E53
:10212000C0F3813FD1F7F5CF822F869586958695AE
:1021300008959F92AF92BF92CF92DF92EF92FF925B
:102140000F931F93CF93DF9320E9289FE001299FEE
:10215000D00D1124C455DF4F10E000E0FE01649162
:102160003196749131968491962F972B982BC1F4C8
:1021700020E040E060E0C8010E94BD090F5F1F4FF2
:1021800023960033110551F7DF91CF911F910F91E5
:10219000FF90EF90DF90CF90BF90AF909F90089509
:1021A0000E942C0C962EB72EA82E6091410670E04E
:1021B00090E080E00E94192F20E030E04FE753E4E8
:1021C0000E94782E6B017C016A2D70E090E080E027
:1021D0000E941B2FA70196010E94A72F0E94EA2EA2
:1021E000A62E692D70E090E080E00E941B2FA701D1
:1021F00096010E94A72F0E94EA2E962E6B2D70E06A
:1022000090E080E00E941B2FA70196010E94A72F5B
:102210000E94EA2E2A2D492DAECF40E060E080E0FA
:102220000E94BB0981E080930706089527982F98A4
:10223000089526982E98089525982D9808955698D3
:102240005E980895279A2F9A0895269A2E9A0895AF
:10225000259A2D9A0895CF92DF92EF92FF92CF9315
:102260006B017C010E94AA07C82F0E941F110E94C7
:102270001C110E9419110E941611C150C73040F460
:10228000EC2FF0E0E15BFE4C0C941A2E0E9428111A
:10229000C701B601CF91FF90EF90DF90CF900895E6
:1022A0000E9428110E942511F3CF0E9428110E943C
:1022B0002211EECF0E9428110E942511F8CF84B17F
:1022C000807F84B985B1807F85B98AB1837F8AB9DF
:1022D0008BB1837F8BB93E984698089580B38C70FC
:1022E00080BB81B3836F81BB0895CF9384E090E07E
:1022F0000E94302EC82F81E290E00E94302E982F4D
:102300008C2FCF910895CF93DF9300D00F92CDB74C
:10231000DEB790912C06943019F589837B836A830C
:1023200082E08093E9008FEF9091E800815095FD65
:1023300006C095ED9A95F1F700008111F5CF8091D7
:10234000E80085FF0DC050E040E063E070E0CE01A2
:1023500001960E940E058091E8008E778093E80038
:102360000F900F900F90DF91CF910895CF93DF934F
:10237000EC010E944806823011F0843031F4BE0135
:1023800084E0DF91CF910C948311DF91CF91089578
:10239000BC016058710983E00C948311CF93DF93E3
:1023A000EC010E944806823011F08430F9F482E09A
:1023B0008093E9008FEF9091E800815095FD06C071
:1023C00095ED9A95F1F700008111F5CF8091E80025
:1023D00085FF0CC050E040E066E070E0CE010E9456
:1023E0000E058091E8008E778093E800DF91CF9111
:1023F0000895CF93DF93EC010E944806823011F0DC
:102400008430B9F5809115018823B1F18091DA0506
:1024100087FF32C060E282E08093E9008FEF909105
:10242000E800815095FD06C095ED9A95F1F7000002
:102430008111F5CF8091E80085FF1BC080911501C7
:1024400070E050E040E0811104C050E040E068E0FE
:1024500070E0CE010E940E058091E8008E77809397
:10246000E80080E2FE01AAE0B6E001900D928A95B4
:10247000E1F7DF91CF91089568E081E0CDCFEF9251
:10248000FF920F931F93CF93DF930E941F110E941F
:102490001C110E9419110E94161188E8E82EF12CD7
:1024A0008FEF90E0F701918380830AE810E0F80154
:1024B00091838083CCE8D0E0998388830E9428119F
:1024C000FFEF20E782E0F15020408040E1F700C0BC
:1024D00000000E9425119FEFE0E7F2E09150E040FC
:1024E000F040E1F700C000000E9422112FEF80E7CA
:1024F00092E0215080409040E1F700C000000E942F
:102500001C11EFEFF0E722E0E150F0402040E1F74E
:1025100000C000000E9419118FEF90E7E2E08150A7
:102520009040E040E1F700C000000E941611809149
:10253000C8058770FFEF8F9FC0011124959587957F
:10254000959587959927F70191838083F801918369
:102550008083998388830E941F110E941C110E940E
:102560001911DF91CF911F910F91FF90EF900C9473
:1025700016116091C4058CE090E00C94542E6FEE1F
:102580007EEF90E080E00E94722E60E082E090E0BA
:102590000E94542E60E083E090E00E94542E10923E
:1025A000B9051092BA051092BB051092BC0560E007
:1025B00084E090E00E94542E60E081E290E00E946E
:1025C000542E60E085E090E00E94542E60E086E0AA
:1025D00090E00E94542E6FEF87E090E00E94542E0E
:1025E00040E050E0BA0188E090E00E94662E60E092
:1025F0008DE090E00E94542E40E050E0BA0188E166
:1026000090E00E94662E60E087E190E00E94542EE8
:1026100040E050E0BA018CE190E00E94662E60E05C
:1026200080E290E00E94542E1092C8051092C905D5
:102630001092CA051092CB0584E080618093C80592
:102640004091C8055091C9056091CA057091CB05AC
:102650008FE090E00E94662E40E050E0BA0183E1F6
:1026600090E00C94662E0F931F93CF93DF93082F67
:10267000000FEB0114E21093CA03EBECF3E0DE0170
:102680008D91819383E0EB3DF807D1F724E630E0AC
:1026900041E150E06AEC73E0802F0E94C72D105F8B
:1026A0006096143B41F7DF91CF911F910F910895F0
:1026B0008091DE03882329F060EE73E084E70E94B6
:1026C00033131092DE038091DF03882329F060E743
:1026D00074E087E70E9433131092DF030895EAEC59
:1026E000F3E06083418324E630E042E050E0BF0144
:1026F000880F0C94C72D0F931F93CF93DF93082F50
:10270000E62FF0E0EC5DFA4F8081882379F082E1DA
:10271000689FE0011124C050DB4F10E04991612F08
:10272000802F0E946F131F5F1231C1F7DF91CF918D
:102730001F910F910895CF93DF93C82F4BE06DEF5A
:102740000E946F1340E06AE08C2F0E946F138FE3AA
:102750009CE90197F1F700C0000040E060E08C2F99
:102760000E946F1340E061E08C2F0E946F1340E0E5
:1027700066E08C2F0E946F1340E06DEF8C2F0E945B
:102780006F13D0E040E06D2F8C2F0E946F13DF5F3E
:10279000D231C1F740E06D2F8C2F0E946F13DF5FA5
:1027A000D432C1F740E06D2F8C2F0E946F13DF5F92
:1027B000D43BC1F74BE06DEF8C2F0E946F1341E0CB
:1027C0006AE08C2F0E946F1340E06DEF8C2FDF9139
:1027D000CF910C946F136F927F928F929F92AF92D2
:1027E000BF92CF92DF92EF92FF920F931F93CF93FE
:1027F000DF930E94122D84E70E949B1387E70E94BB
:102800009B1364E2E62E61E0F62ED12CC12C72E11E
:10281000772EE8E08E2E912CAA24A394B12C662466
:102820006394F701418150E0CA0184970281045208
:10283000110BC381C452DD0BF601EE0FFF1FEE0F2B
:10284000FF1FEC5DFE4F2081237030E0FC0197FDFF
:10285000379643E0F595E7954A95E1F7729EA0011A
:10286000739E500D112440505B4FE40FF52FF11D66
:10287000B4010E94062EA50101C0440F8A95EAF713
:102880008081842B8083F80117FD379693E0F595BE
:10289000E7959A95E1F7729EC001739E900D112401
:1028A00080509B4FE80FF92FF11DC801B4010E9421
:1028B000062EA50101C0440F8A95EAF78081842B7A
:1028C0008083FE01D7FD379683E0F595E7958A95DD
:1028D000E1F7729EC001739E900D112480509B4FB2
:1028E000E80FF92FF11DCE01B4010E94062EA501BB
:1028F00001C0440F8A95EAF78081842B80832C5D88
:102900003A4FF9016082FFEFCF1ADF0A84E0E80E48
:10291000F11CE0E3CE16D10409F083CF60E084E738
:102920000E947B1361E087E7DF91CF911F910F91A8
:10293000FF90EF90DF90CF90BF90AF909F908F90DF
:102940007F906F900C947B1345E050E06CE170E059
:102950008EE396E00C94442E80913E06982F969537
:1029600096959F5F9F738370963148F4990F990FE6
:10297000892B80933E06109208010C94A414846065
:10298000F8CF80913E06845080933E06982F9C7F1E
:1029900021F48370846580933E06109208010C94A4
:1029A000A414EEE3F6E08181885F81830C94A41483
:1029B000EEE3F6E08181885081830C94A414EEE369
:1029C000F6E0228130E1230F08F42FEF22830C94EC
:1029D000A414EEE3F6E0228130E1231B08F420E0AA
:1029E00022830C94A414EEE3F6E0238130E1230F5C
:1029F00008F42FEF23830C94A414EEE3F6E0238174
:102A000030E1231B08F420E023830C94A414EEE3AC
:102A1000F6E0248130E1230F08F42FEF24830C9497
:102A2000A414EEE3F6E0248130E1231B08F420E057
:102A300024830C94A414EEE3F6E0880F880F9081B1
:102A40009370982B9083109208010C94A414909189
:102A50003E0696959695981720F0961710F40C94CC
:102A6000AC140C941B15EEE3F6E081E380838091B7
:102A7000190190911A01A0911B0181839283A38374
:102A80008FE784830C94A4140E94EB1390E080E001
:102A90000E943E2E8F3E9E4F21F00E94BF120E9448
:102AA000331545E050E06CE170E08EE396E00E9463
:102AB000202E80913E068C7F11F40C9433150895DE
:102AC00080E290E090930A01809309018091C9030C
:102AD00081110EC00E94122D81E08093C9032FEF57
:102AE00083ED90E3215080409040E1F700C000006A
:102AF00064E670E080E40E94182D90930A018093B0
:102B00000901892B09F04EC064E670E080E00E9464
:102B1000742D90930A0180930901892B09F042C01A
:102B200064E670E080E00E94742D90930A01809327
:102B30000901892BB9F564E670E08FE30E94742DDA
:102B400090930A0180930901892B61F50E94EE2D73
:102B500064E670E080E40E94182D90930A0180934F
:102B60000901892BF9F464E670E08CE00E94742D71
:102B700090930A0180930901892BA1F464E670E027
:102B800080E00E94742D90930A0180930901892BA3
:102B900049F464E670E08FE30E94742D90930A017B
:102BA000809309010E94EE2D809109010895CF9331
:102BB000C82F873070F58091090190910A01892B07
:102BC00089F564E670E080E40E94182D90930A0174
:102BD00080930901892BD1F464E670E082E10E94C0
:102BE000742D90930A0180930901892B79F481E077
:102BF00090E001C0880FCA95EAF764E670E080951E
:102C00000E94742D90930A0180930901CF910C9436
:102C1000EE2D8A30B9F040F4883071F0893079F0C7
:102C2000209A2898CF9108958C3091F070F08D30D3
:102C3000B9F73E9A4698F6CF219A2998F3CF229A6F
:102C40002A98F0CF239A2B98EDCF529A5A98EACF30
:102C5000539A5B98E7CFCF93873008F040C08091BC
:102C6000090190910A01C0E0892B71F464E670E0DB
:102C700080E40E94182D90930A0180930901892B0A
:102C800031F0C0E00E94EE2D8C2FCF91089564E6C4
:102C900070E083E10E94742D90930A0180930901F2
:102CA000892B79F764E670E081E40E94182D9093F7
:102CB0000A0180930901892B21F784E690E00E94A4
:102CC000A32D97FF05C090930A0180930901D9CFE6
:102CD000C82FC09510920A0110920901D3CFCFB12D
:102CE0008FB1869586958C73C3708C2BC82FC09539
:102CF000CBCF78941F921FB61F9211248F939F936E
:102D0000AF93BF938091BD059091BE05A091BF0583
:102D1000B091C0050196A11DB11D8093BD05909392
:102D2000BE05A093BF05B093C005BF91AF919F9121
:102D30008F911F901FBE1F9018952FB7F894809108
:102D4000BD059091BE05A091BF05B091C0052FBFF4
:102D50000895E091DC05F091DD05309749F082E0BF
:102D60008093ED050480F581E02D8DEE95E00995C9
:102D70000E949D169093F5058093F4050895109296
:102D8000B6051092B5050E94FD0786E0EDEEF5E070
:102D9000DF011D928A95E9F71092F3051092C105A3
:102DA0000E94A91690E080E00E94420990E080E035
:102DB0000C942C090E942B116093B0057093B105FF
:102DC0008093B2059093B3050C94BF160F931F9395
:102DD00041E050E060E070E004C0440F551F661F02
:102DE000771F8A95D2F7CB01BA01609570958095CF
:102DF00090950091B0051091B1052091B2053091E8
:102E0000B30560237123822393231F910F910C94A8
:102E1000DA169091B405809589238093B405282F04
:102E2000277071F4282F082E000C330B921713060D
:102E300039F08595859585950E94E6161092B40522
:102E400008950F931F9341E050E060E070E004C0EC
:102E5000440F551F661F771F8A95D2F78091B005E2
:102E60009091B105A091B205B091B3058A019B0183
:102E7000082B192B2A2B3B2BC901B8011F910F914D
:102E80000C94DA166093B9057093BA058093BB056C
:102E90009093BC050C94BF161092B7058091150154
:102EA000E4EAF3E0882359F08091DA0587FF07C050
:102EB0008EE1DF011D928A95E9F70C94BF1686E03A
:102EC000F8CF1F93CF93DF93CDB7DEB7AA970FB696
:102ED000F894DEBF0FBECDBF8EE296E02091F100E8
:102EE000FC012193CF01F6E086339F07B9F780916B
:102EF0002F06833009F46FC0B8F4813009F446C05E
:102F0000823009F4B0C08091E80083FF87C28091CD
:102F10002E0690912F069A3008F080C2E92FF0E03B
:102F2000EA5AFE4C0C941A2E8A3009F48BC08B306E
:102F300009F46EC0893039F780912E06813219F775
:102F400080913206909133060297E8F68091E8006E
:102F5000877F8093E8008091E80082FF37C09091DE
:102F6000F3008091F200029729F48091F1008B7FA9
:102F7000813021F48091F100809309068091E8006E
:102F80008B778093E8000E943805BDCF80912E0694
:102F9000813A09F0B8CF8091E800877F8093E800FC
:102FA0008091320690913306892B61F460E28AE0C9
:102FB00096E070E00E94EA058091E8008B778093AC
:102FC000E800A1CF60E090E080E0F3CF80912C0694
:102FD0008111C1CF98CF80912E06813A09F093CF0D
:102FE0008091320690913306892B09F08CCF809125
:102FF000E800877F8093E8008091E80080FFFCCFA5
:10300000809115018093F1008091E8008E77B9CF0F
:1030100080912E06813209F076CF80913206909110
:103020003306892B09F06FCF8091E800877F80936A
:10303000E8000E94380580913006809315010E94B7
:103040004C1761CF80912E06813209F05CCF8091C0
:10305000E800877F8093E8000E9438058091310660
:103060008093080650CF80912E06813A09F04BCF0D
:103070008091E800877F8093E8008091E80080FFDE
:10308000FCCF80910806BECF803899F0823809F0D5
:10309000C5C1809132068F70873008F0BFC1809320
:1030A000E9008091EB0085FB882780F91092E90008
:1030B00006C080912A0690912B0691118260909112
:1030C000E800977F9093E8008093F1001092F10060
:1030D0008091E8008E779EC1882309F48CC18230EC
:1030E00009F09CC18091300681118FC18091320618
:1030F0008F702FEF280F263008F090C18093E900E1
:103100002091EB0020FF81C1933031F48091EB00DE
:1031100080628093EB0079C19091EB009061909375
:10312000EB0021E030E001C0220F8A95EAF72093FE
:10313000EA001092EA008091EB008860EACF8111EA
:103140006DC1109130061F778091E3008078812B4C
:103150008093E3008091E800877F8093E8000E94DD
:1031600038058091E80080FFFCCF8091E300806803
:103170008093E30082E0111183E080932C064EC11E
:103180008058823008F04AC1809130069091310613
:103190008C3D23E09207A1F583E08A838AE289834C
:1031A0004FB7F894DE01139620E03EE051E2E32FA2
:1031B000F0E050935700E49120FF03C0E295EF70D8
:1031C0003F5FEF708E2F90E0EA30C0F0C7968D938E
:1031D0009D932F5F243159F74FBF8091E800877F7F
:1031E0008093E8006AE270E0CE0101960E94EA0551
:1031F0008091E8008B778093E80010C1C096E7CFFC
:103200004091320650913306292F33272330310560
:1032100009F445C078F52130310509F47BC08BE312
:1032200090E0E4ECF8E02230310509F0F7C020919D
:10323000E800277F2093E80020913406309135067E
:103240008217930708F49C0140E02115310509F02D
:1032500070C041116EC08091E80082FDC9CF80919D
:103260002C06882329F2853019F28091E80083FF2B
:10327000F2CFBECF2132310509F440C022323105F0
:1032800009F0CCC04115510509F44EC0413051053B
:1032900009F0C4C080EC90E0E4ECF7E0C8CF9927D7
:1032A00081309105D9F0009771F082309105F1F0ED
:1032B000039709F0B3C0E1E1F9E0E4918E2F90E0CB
:1032C000E1E1F9E007C0E9E3F9E0E4918E2F90E055
:1032D000E9E3F9E0009709F4A1C0A9CFEFE2F9E032
:1032E000E4918E2F90E0EFE2F9E0F4CFE7E1F9E02E
:1032F000E4918E2F90E0E7E1F9E0ECCF4115510524
:1033000071F04130510509F089C089E090E0EFEE9D
:10331000F8E08DCF82E190E0EFEFF8E088CF89E030
:1033200090E0E6EDF8E083CF80E490E0E4E8F8E0B8
:103330007ECF80912C06882309F45ACF853009F47A
:1033400057CF8091E80083FD53CF8091E80082FD44
:1033500082CF8091E80080FF78CF9091F300809138
:10336000F2002115310519F08830910550F041E047
:10337000089709F040E08091E8008E778093E8009C
:1033800064CF44914093F100319621503109019668
:10339000E8CF803809F042C08091E800877F8093B1
:1033A000E80080912D068093F10092CE811136C005
:1033B00010913006123090F58091E800877F80935D
:1033C000E80010932D060E943805112311F084E0C7
:1033D00005C08091E30087FDFACF81E080932C0641
:1033E00042E061EC81E00E94570542E261EC82E03C
:1033F0000E94570513C080913006813079F481E036
:10340000933009F080E080932B061092E9008091C0
:10341000E800877F8093E8000E9438058091E800EB
:1034200083FF0AC08091E800877F8093E800809145
:10343000EB0080628093EB00AA960FB6F894DEBF93
:103440000FBECDBFDF91CF911F9108951F920F92B4
:103450000FB60F9211242F933F934F935F936F9367
:103460007F938F939F93AF93BF93CF93DF93EF930C
:10347000FF93D091E900DF708091EC00C82FC170FC
:1034800080FDC0E81092E9008091F000877F809372
:10349000F00078940E9461171092E9008091F0008A
:1034A00088608093F000CD2BCF70C093E900FF912E
:1034B000EF91DF91CF91BF91AF919F918F917F91CC
:1034C0006F915F914F913F912F910F900FBE0F9091
:1034D0001F9018951F920F920FB60F9211242F93E1
:1034E0003F934F935F936F937F938F939F93AF938C
:1034F000BF93EF93FF938091E10082FF09C0809119
:10350000E20082FF05C08091E1008B7F8093E100A3
:103510008091DA0080FF24C08091D80080FF20C015
:103520008091DA008E7F8093DA008091D90080FF4D
:10353000A1C080E189BD82E189BD09B400FEFDCF53
:1035400081E080932C0680910606811109C00E94BB
:10355000BE040E9489058091E20084608093E200AD
:103560008091E10080FF17C08091E20080FF13C0CE
:103570008091E2008E7F8093E2008091E200806182
:103580008093E2008091D80080628093D80019BCBB
:1035900085E080932C068091E10084FF2FC080910C
:1035A000E20084FF2BC080E189BD82E189BD89B53D
:1035B000982F917080FFFBCF8091D8008F7D8093F2
:1035C000D8008091E1008F7E8093E1008091E2003D
:1035D0008F7E8093E2008091E20081608093E20020
:1035E00080912D06882309F44BC084E080932C063B
:1035F0000E944C170E945809109207068091E10022
:1036000083FF27C08091E20083FF23C08091E10007
:10361000877F8093E10082E080932C0610922D0634
:103620008091E1008E7F8093E1008091E2008E7FA7
:103630008093E2008091E20080618093E20042E0AA
:1036400060E080E00E9457058091F00088608093E0
:10365000F000FF91EF91BF91AF919F918F917F917A
:103660006F915F914F913F912F910F900FBE0F90EF
:103670001F90189519BC10922C061092060670CF58
:103680008091E30087FD93E090932C06B1CF8823CF
:1036900009F459C0823871F40E94580981FF53C05F
:1036A00089E30E946D080E94FD0789E30E94420899
:1036B0000C94FD07833859F40E94580980FF43C0D9
:1036C00083E50E946D080E94FD0783E5EFCF8438F3
:1036D00059F40E94580982FF36C087E40E946D08A1
:1036E0000E94FD0787E4E2CF9CEF980F913AF0F239
:1036F00090E2980F983088F4877021E030E0A901BB
:1037000002C0440F551F8A95E2F7CA018095909137
:10371000B70589238093B705CBCF9BE5980F9330EE
:1037200020F490E080E00C94420998E5980F9731DE
:1037300020F490E080E00C942C09803F20F00E945F
:1037400053060C94A9160895882309F47BC0823887
:10375000B9F40E94580981FD75C089E30E946D0883
:103760000E94FD072FEF81EE94E0215080409040B1
:10377000E1F700C0000089E30E9442080C94FD07B5
:103780008338A1F40E94580980FD5CC083E50E9443
:103790006D080E94FD072FEF81EE94E021508040DC
:1037A0009040E1F700C0000083E5E6CF8438A1F443
:1037B0000E94580982FD46C087E40E946D080E945D
:1037C000FD072FEF81EE94E0215080409040E1F71B
:1037D00000C0000087E4D0CF9CEF980F913A18F416
:1037E0000E946D08CBCF90E2980F983068F48770F4
:1037F00021E030E001C0220F8A95EAF78091B705F9
:10380000822B8093B705BACFEBE5E80FE33038F4AD
:10381000F0E0E457FD4F808190E00C944209E8E528
:10382000E80FE73148F4F0E0EE0FFF1FE157FD4FDE
:10383000808191810C942C09803F20F00E94180710
:103840000C94A9160895CF93C82F0E94A41BC933C6
:1038500049F42FEF87EE93E0215080409040E1F74C
:1038600000C000008C2FCF910C94471B0F931F9327
:10387000CF93DF93C62FD42F022FFC0182818823A0
:10388000A1F060933B050E949D16909327058093BD
:103890002605C77081E001C0880FCA95EAF7DF915D
:1038A000CF911F910F910C94220910913B05161393
:1038B00035C080912605909127050E948007883C9D
:1038C000910560F5C0E2CD0F1D17B9F080E2810FC0
:1038D000883040F4177081E001C0880F1A95EAF72C
:1038E0000E941709C83048F481E09D2F977001C0ED
:1038F000880F9A95EAF70E942209802F0E94231CC4
:10390000C83098F4D77081E001C0880FDA95EAF7E3
:10391000DF91CF911F910F910C941709C77081E02F
:1039200001C0880FCA95EAF7F3CFDF91CF911F91BD
:103930000F9108954F925F926F927F928F929F9214
:10394000AF92BF92CF92DF92EF92FF920F931F93AD
:10395000CF93DF9300D000D00F92CDB7DEB76C01CC
:10396000FC0183819481892B39F01081F180812FB2
:103970008F218F3F09F06EC70F900F900F900F901F
:103980000F90DF91CF911F910F91FF90EF90DF90FB
:10399000CF90BF90AF909F908F907F906F905F90EF
:1039A0004F9008950E942910082F682F89819A81CD
:1039B0000E94CA08E12FF0E026E0F29EE00DF11D22
:1039C000112434E5039FE00DF11D1124EE0FFF1FBC
:1039D000E458FB4F05911491F60182810930FDE511
:1039E0001F0709F43FC00A302DE5120709F43DC155
:1039F000023C3CE5130709F05EC1882309F4BCCF03
:103A0000909117018091C8059F3F09F04DC1109218
:103A100017018F7E8093C80540E060E080E00E943F
:103A2000BB094091C8055091C9056091CA057091C4
:103A3000CB058FE090E00F900F900F900F900F90BC
:103A4000DF91CF911F910F91FF90EF90DF90CF907A
:103A5000BF90AF909F908F907F906F905F904F90AE
:103A60000C94662E8823C9F18091C80591E0980FC7
:103A70009770887F953008F4892B8093C8058091D2
:103A8000C8058770EFEF8E9FC0011124959587952B
:103A900095958795992790938900809388009093B6
:103AA0008B0080938A0090938D0080938C004091CE
:103AB000C8055091C9056091CA057091CB058FE08A
:103AC00090E00E94662E6091B0057091B1058091E2
:103AD000B2059091B3050E942B11F60182818823D3
:103AE00089F0033EFCE51F0709F452C108F03CC110
:103AF000013E3CE5130709F444C1023E8CE518077A
:103B000009F444C117FF71C1F6018281882309F4C9
:103B10004DC08091B70580933A051092B70580910A
:103B2000C405813009F43CC1882309F435C18230D1
:103B300009F443C1843009F447C18FE39CE901973C
:103B4000F1F700C000005801E894B7F84CE0E42E0B
:103B5000F12C95010E2C02C0369527950A94E2F7B8
:103B60002F7087E290E031F0822F90E02A3008F049
:103B700030C14D960E94231C94E0E91AF108ECEF45
:103B8000EE16EFEFFE0629F78091C405813009F4A7
:103B900026C1882309F41FC1823009F41CC1843076
:103BA00009F421C180913A058093B705F60192810D
:103BB000992309F489C610923B050230FCE51F07E2
:103BC00008F459C606312CE5120738F098012A5F2F
:103BD0003C452730310508F04EC60E947511909380
:103BE000DB058093DA050F303CE5130709F406C2C4
:103BF00008F080C108309CE5190709F4E9C108F014
:103C000055C10430FCE51F0709F4D6C108F03BC1DB
:103C100002303CE5130709F4C7C103301C4509F421
:103C2000C7C16091DA051091DB0584E090E00E9445
:103C3000542E612F81E290E00E94542E0F900F903D
:103C40000F900F900F90DF91CF911F910F91FF90E8
:103C5000EF90DF90CF90BF90AF909F908F907F902C
:103C60006F905F904F900C944C17882309F435CFD8
:103C70009091C805892F877F93FF88608093C8053E
:103C800083FF05C040E060E080E00E94BB094091F6
:103C9000C8055091C9056091CA057091CB058FE0A8
:103CA00090E00E94662E19CF9FEF909317018061DC
:103CB0008093C805B6CE0C30FDE51F0729F10D3005
:103CC0002DE5120709F444C00B303DE5130709F058
:103CD00004CF882309F450CE81E00F900F900F900D
:103CE0000F900F90DF91CF911F910F91FF90EF9068
:103CF000DF90CF90BF90AF909F908F907F906F900C
:103D00005F904F900C941B15882309F435CE81E009
:103D10000E941B1510923F06109240068FEF809371
:103D200041060F900F900F900F900F90DF91CF9161
:103D30001F910F91FF90EF90DF90CF90BF90AF90C9
:103D40009F908F907F906F905F904F900C94A414F1
:103D5000882309F411CE81E00E941B1510923F06C2
:103D60001092400681E8DBCF043E9CE5190791F0F4
:103D700084E0053EECE51E0709F0C4CE8093C4053F
:103D800002C01092C4050E94B912BCCE81E0F6CFE9
:103D900082E0F4CF83E0F2CF82EE0E94A41BCDCE6E
:103DA00083E00E940D0988E10E94A41B88E10E9423
:103DB000471B83E00E940209C0CE82EE0E94A41B32
:103DC00087E50E94231CB9CE86EE0E94231C88E161
:103DD000F8CF0697CFCE82EE0E94471BE3CE8CE24F
:103DE0000E94231CDFCE88E2FBCF033FFCE51F07C8
:103DF000D9F140F5083D3CE5130791F1093D8CE50B
:103E00001807F1F1073D9CE5190709F0CFCE26E22E
:103E100041EE61EEC6010F900F900F900F900F9042
:103E2000DF91CF911F910F91FF90EF90DF90CF9096
:103E3000BF90AF909F908F907F906F905F904F90CA
:103E40000C94361C053FECE51E07B1F088F0063FE8
:103E50002CE5120709F0AACE27E245EE66EEDACF8E
:103E600027E245EE65EED6CF26E241EE60EED2CFF8
:103E700027E245EE64EECECF26E241EE62EECACFF7
:103E800028E241E0EFCF8091DA05806106309CE5C1
:103E9000190709F447C08091DA05886007301C458E
:103EA00008F440C08091DA0580623CC00B30FCE52C
:103EB0001F0709F49BC068F409303CE5130709F4B7
:103EC0008BC00A301C4509F0ACCE8091DA058C60BD
:103ED00029C08091DA058B7F0D309CE5190711F11F
:103EE0008091DA058D7F0E301C45E0F08091DA0577
:103EF000877F18C00A3FFCE51F0709F461C060F521
:103F000002313CE5130709F481C078F400319CE5E7
:103F1000190709F477C08091DA058F7B01311C45C0
:103F200009F07FCE8093DA057CCE0431FCE51F07D3
:103F300009F47AC008F470C005311C4509F071CE4F
:103F40008091DA0582FB992790F921E0922790FB76
:103F500082F990FB83F9E6CF0D3F8CE5180709F451
:103F600049C070F40B3FECE51E0771F18091DB0551
:103F70008E7F0C3F1C4509F054CE8093DB0551CE5B
:103F80000F3F2CE5120709F44BC060F101151D45E8
:103F900009F047CE8091DB05982F909591708E7F28
:103FA000892B90FB81F9E9CF8091DA058160BACF46
:103FB0008091DA058260B6CF8091DA058460B2CF55
:103FC0008091DB058160D9CF8091DB058260D5CF00
:103FD0008091DA058064A6CF0E944C178091DA05A3
:103FE0008068A0CF8091DB058360C7CF8091DA0520
:103FF0008E7F98CF8091DB058D7FBFCF8091DA05D2
:104000008F7E90CF8091DA058F7D8CCF0E944C17E8
:104010008091DA058F7786CF8091DA05837F82CF12
:104020008091DB058C7FA9CF0E944C179091DA0517
:10403000892F97FB87F9805875CF85E32CC485E3DA
:104040004CC4992309F494C08091B7058272F80199
:10405000E25CFC45E431F10508F081C0E05AFE4C19
:104060000C941A2E80913E0691E0892780933E069B
:104070001092080156CE41EC54E16CEA74E10F90C5
:104080000F900F900F900F90DF91CF911F910F9194
:10409000FF90EF90DF90CF90BF90AF909F908F9068
:1040A0007F906F905F904F900C9464094CEA54E1BC
:1040B00061EC74E1E4CF48ED54E161ED74E1DFCFF0
:1040C00041ED54E168ED74E1DACF49EE54E16FED72
:1040D00074E1D5CF4FED54E169EE74E1D0CF4DEFEF
:1040E00054E163EF74E1CBCF43EF54E16DEF74E142
:1040F000C6CF41E155E167E075E1C1CF47E055E149
:1041000061E175E1BCCF65E082E00F900F900F9008
:104110000F900F90DF91CF911F910F91FF90EF9033
:10412000DF90CF90BF90AF909F908F907F906F90D7
:104130005F904F900C94271568E086E0E6CF6EE024
:1041400089E0E3CF64E18FE0E0CF67E185E1DDCF97
:1041500088E1C3CD62E289E1D8CF83E2BECD01150B
:10416000ECE51E0709F443C00E3D1C4509F47CC074
:10417000F60100811181992309F48DC0C8010E94C4
:104180002910F82E682FC8010E94CA08B8018F2D87
:104190000E94860E8C01B82EF601E580E2943FE085
:1041A000E322F280F1101092B6058091B405877079
:1041B00079F0FF2069F080E2800F883048F082E0DB
:1041C0000E9409178091B4058770AA24A3948111D5
:1041D000A12C912E92942FE09222FBE0F91508F485
:1041E00094C0E92DF0E0EC58FE4C0C941A2E0E947D
:1041F0004C172FEF34E38CE0215030408040E1F742
:1042000000C00000F89481E08093E00080E2809399
:10421000D8001092C900EFE1FEE43197F1F700C039
:1042200000001DBA109268001CBC10BE1FBA10928C
:104230007A0010926E0010926F001092710010922E
:1042400072001092C9001092BC0014B817B81AB8C6
:104250001DB810BA1092BC0015B818B81BB81EB81B
:1042600011BA0C94003F88CB0F900F900F900F90D5
:104270000F90DF91CF911F910F91FF90EF90DF9002
:10428000CF90BF90AF909F908F907F906F905F90F6
:104290004F900C94BF12C8010E94A108F82E76CF4F
:1042A000212F2F70E22E107F19F0E29490EFE92277
:1042B000FF20C9F0EE2069F080E2800F883010F016
:1042C000B1100BC08091B705E82AE092B7050E94B3
:1042D000FD07802F0E94A41B18C08091B605E82A14
:1042E000E092B605F4CF802F0E94471BEE2069F0C4
:1042F000E094005E083010F0B1103CC08091B7052A
:10430000E822E092B7050E94FD07292D2850330BC3
:104310002430310510F40E945809AA2009F42CCB4E
:104320008091B40580FD28CBF60112828595859594
:1043300085950E942117C6010E949A1C8091B405A0
:104340008595859585950F900F900F900F900F9004
:10435000DF91CF911F910F91FF90EF90DF90CF9061
:10436000BF90AF909F908F907F906F905F904F9095
:104370000C94E6168091B605E822E092B605C3CF0C
:10438000312F3F70832E107F103219F0829480EF0E
:104390008822802FBB2041F091E0B91631F1FF2037
:1043A00079F1EE2041F195CFFF2091F09091B80581
:1043B000892F8829E11003C00E942209A6CFE1E0DD
:1043C000EE12FACF891709F4A0CF8093B8059DCFDC
:1043D000E11006C00E94F707882D0E94170995CFAB
:1043E000F1E0EF1609F491CFF5CFFF2031F021E095
:1043F0002E1508F48ACF882DDFCFE11086CFECCFC1
:10440000EE2051F3893349F43FEF87EE93E03150CA
:1044100080409040E1F700C00000802F0E94471BC1
:1044200074CF812F86958695837061F0813009F075
:104430006CCFC8019370F11002C090E080E00E9440
:104440002C0963CFC8019370F11002C090E080E0A6
:104450000E9442095ACFFF2009F1053F99F0063F1B
:10446000B9F0043F49F480913D0590913E0581608B
:1044700090933E0580933D05802F0E9418070E946F
:10448000A91643CF80913D0590913E058260F0CF03
:1044900080913D0590913E058460EACF053F89F00B
:1044A000063FA9F0043F49F480913D0590913E05F7
:1044B0008E7F90933E0580933D05802F0E9453068A
:1044C000DECF80913D0590913E058D7FF2CF8091AA
:1044D0003D0590913E058B7FECCF812F837009F0D5
:1044E00066C0F11012CF802F829586958770880F55
:1044F000880F602F6F70462E512C712C612C082E66
:1045000004C0440C551C661C771C0A94D2F740E08A
:1045100050E0BA0104FF0FC04FE050E060E070E0EF
:1045200004C0440F551F661F771F8A95D2F7409528
:10453000509560957095812F869586958370823011
:1045400019F1D8F40091B9051091BA052091BB0575
:104550003091BC05813069F04429552966297729B5
:10456000CB01BA0160237123822393230E94421757
:10457000CCCE402A512A622A732ACB01BA0164297F
:10458000752986299729F2CF442955296629772943
:104590000091B9051091BA052091BB053091BC0579
:1045A000CB01BA016027712782279327DFCF869539
:1045B000FF2011F0812F8170882309F4A6CE802F6F
:1045C000829586958770880F880F602F6F70462EB2
:1045D000512C712C612C082E04C0440C551C661CF7
:1045E000771C0A94D2F740E050E0BA0104FF0FC0F4
:1045F0004FE050E060E070E004C0440F551F661FBC
:10460000771F8A95D2F74095509560957095812FC8
:10461000869586958370823019F1D8F40091B005A3
:104620001091B1052091B2053091B305813069F048
:104630004429552966297729CB01BA0160237123C2
:10464000822393230E94DA1660CE402A512A622ADE
:10465000732ACB01BA016429752986299729F2CFDB
:1046600044295529662977290091B0051091B10593
:104670002091B2053091B305CB01BA0160277127B3
:1046800082279327DFCF1F70FF2029F0812F0E9400
:104690002117802F91CE802F0E941709812F0E9411
:1046A000E61633CE802FE2EFBE1609F44EC0EB15AE
:1046B00078F0F0EFBF1619F121EFB21609F43DC002
:1046C000FF2009F465C0E11004CE812F8F713AC03C
:1046D00033EFB31609F43EC094EFB912F1CFFF20C7
:1046E00009F44BC01F71812F0E942117F8E01F9F12
:1046F000C001112483608093B405812F23C0FF2063
:10470000B9F0E11002CE1F7161E070E080E090E04E
:1047100004C0660F771F881F991F1A95D2F7009162
:10472000B0051091B1052091B2053091B305A6CF27
:10473000E1E0EE1508F4E9CDE6CF812F8F71FF207F
:1047400009F4ADCF0E942117E0CD812F8F71FF209A
:10475000C9F3A5CF60E070E0CB01FF2009F472CF70
:104760001F7161E070E080E090E004C0660F771F89
:10477000881F991F1A95D2F765CF81E00E9409170B
:1047800021E02E1508F0C1CD82E00E940917BDCDB1
:10479000E11038CE812F8F7182CFE2EFBE16D1F1BA
:1047A000EB1500F1F0EFBF1649F121EFB216D1F190
:1047B00080913F05EE2009F441C0882341F08091AB
:1047C000400591E089278093400510923F05802F96
:1047D000F11080CD0E94471B86E0F60111928A9568
:1047E000E9F793CD34EFB316C1F0B31688F085EF37
:1047F000B812DECFF11089CD81E007C0FF2009F4A7
:1048000084CD8091400591E08927809340057DCD3E
:1048100081E0F826F092400578CDF11076CD109227
:10482000400573CDFF2039F080913F05882349F37F
:1048300010923F056ACDEE2021F367CD882309F45D
:1048400064CDF11062CD8091400591E0892780937D
:104850004005EECF85E0DE01119601900D928A951C
:10486000E1F7F601228189819A8121119BC80E947A
:10487000A108082F9FC80631FCE51F0709F0E1CB0E
:104880008091B7058A7A91E009F490E090933C0515
:104890008111D3CB89E20E946D080F900F900F9089
:1048A0000F900F90DF91CF911F910F91FF90EF909C
:1048B000DF90CF90BF90AF909F908F907F906F9040
:1048C0005F904F900C94FD0706311C4509F050CCC9
:1048D00080913C058111B3CB89E20E944208DDCF73
:1048E0001F93CF93DF9380914605807FC1F4809121
:1048F00043058823A1F080917805C0914705609118
:104900004105709142054091440550914505D62FCF
:10491000D723DA01A095B09516E0C81304C0DF9143
:10492000CF911F91089590E04115510511F0DF3F9F
:1049300031F401968770F1CF2A0F3B1F17C0189FE3
:10494000F001199FF00D1124E85BFA4F2181271324
:10495000F0CF20812613EDCF22812111EACF2381D0
:1049600034812417350740F3241B350B283C3105CF
:1049700000F7209146052F7020612093460526E020
:10498000289FF001299FF00D1124E35BFA4F8081ED
:104990008F708061808381E495E00E949A1CDF9192
:1049A000CF911F910C94F808BF92CF92DF92EF92B3
:1049B000FF920F931F93CF93DF93CDB7DEB761972D
:1049C0000FB6F894DEBF0FBECDBF8C0185E0F801B5
:1049D000DE011D9601900D928A95E1F7D8012C9188
:1049E00011963C9111971296EC9012978091440584
:1049F00090914505009709F463C14091410550919C
:104A00004205642F65236F3F09F45AC11396CD9078
:104A1000DC90B0904305BB2009F413C1C816D90639
:104A2000C0F1F601E81BF90BCF01FF24F394883C99
:104A3000910508F0F12C80914605982F907FFF207A
:104A400009F4C1C091117DC0FE2C531327C042133D
:104A500025C0E11023C08F7080618093460581E4FA
:104A600095E00E949A1C80914605D80115968C937A
:104A70008F2D61960FB6F894DEBF0FBECDBFDF91CC
:104A8000CF911F910F91FF90EF90DF90CF90BF904B
:104A90000895809590958C0D9D1DC7CFCD2829F048
:104AA000822F83238F3F09F035C180E0B82FB1708A
:104AB000DB2E80FF3CC0809178054091470556E091
:104AC000841315C02D873E878D859E850E946B10AF
:104AD000292F22952F702230F0F0243018F59F7086
:104AE000F1F0F8019581907FD1F4D12C1EC090E0B7
:104AF000589FF001599FF00D1124E85BFA4F618136
:104B0000361306C06081261303C06281E6120FC00F
:104B100001968770D5CF9F7011F0882331F3805EA6
:104B2000883018F3C8010E949A1CFD2CA1CFEE20FA
:104B300009F49ECF80914605816080934605F12C53
:104B400097CF531313C0421311C0E1100FC0D80107
:104B500015968C93C8010E949A1C86E0F801A1E486
:104B6000B5E001900D928A95E1F782CF2D873E87BF
:104B70008D859E850E947510882309F1EE20F9F03D
:104B800080914605803270F02091410530914205B8
:104B900038872F831986DB86CA868C87CE010796D5
:104BA0000E949A1C86E0F801A1E4B5E001900D9204
:104BB0008A95E1F70E947024FF24F39459CFC8012D
:104BC0000E949A1CF9CF91110CC081E495E00E94DB
:104BD0009A1C86E0E1E4F5E0DF011D928A95E9F791
:104BE00047CF531312C0421310C0E1100EC0F8019A
:104BF0008583C8010E949A1CE1E4F5E086E0DF01AC
:104C00001D928A95E9F7FB2C33CF2D873E878D8542
:104C10009E850E947510882391F2EE2081F280918A
:104C20004605803208F4BECF2091410530914205FF
:104C30003A8329831B82DD82CC828E83CE0101964A
:104C4000AFCFC816D90640F0C81AD90AB8ECCB16AF
:104C5000D10448F0F12CBDCF809590958C0D9D1D11
:104C6000883C9105B8F7FE2CEE2009F4A8CF531329
:104C700016C0421314C08091460580FD6ECF982F58
:104C8000907F09F46ACFF8018583903F09F462CFE1
:104C9000982F907F905F8F70892B85835BCF2D87B6
:104CA0003E878D859E850E94751081117BCF8091F6
:104CB0004605816080934605C8010E949A1CD8CEA3
:104CC000EE2009F47CCF2D873E878D859E850E943E
:104CD0007510F82E882309F472CF86E0F801A1E45C
:104CE000B5E001900D928A95E1F780914105909190
:104CF00042050E946B1092959F70963041F480910E
:104D0000400591E089278093400590933F050E94DC
:104D10007024AECE81E08E25C9CE1F93CF93DF9352
:104D2000CDB7DEB767970FB6F894DEBF0FBECDBF25
:104D30006D8B7E8B8F8B8E899F89892BE1F0852FE0
:104D400084238F3F09F098C05FEF4FEF14C030917C
:104D50004005332309F44EC0E42FF0E036E0539FC2
:104D6000E00DF11D1124EE0FFF1FEC51FE4F4081AD
:104D70005181822B8C931A8A198A4B8B5C8B85E02C
:104D8000FE017396DE011D9601900D928A95E1F762
:104D900086E0FE013D96DE01179601900D928A9500
:104DA000E1F7CE0107960E94D424811112C086E05B
:104DB000FE013796DE01119601900D928A95E1F77A
:104DC0008A859B85892B29F08F81988589238F3F40
:104DD000C9F516E08091780590914705891320C0A8
:104DE00067960FB6F894DEBF0FBECDBFDF91CF91AF
:104DF0001F91089580958223BDCF96E0929FD001A8
:104E0000939FB00D1124A85BBA4FFE01319601901B
:104E10000D929A95E1F7809347050E94F808D9CF43
:104E2000819FC0011124885B9A4F0E94D42488235B
:104E3000B9F28091780590E0019687709927809368
:104E40007805C8CF2091470530E0C90101968770E9
:104E50009927409178054817190679F60E944C1752
:104E6000109247051092780586E0E1E4F5E0DF0155
:104E70001D928A95E9F7ADCF81E090E0042E01C044
:104E8000880F0A94EAF7A52FB0E0A45DBA4F2C91E1
:104E90003D8931115CCF322F38235BCF8F929F92A7
:104EA000AF92BF92CF92DF92EF92FF920F931F9338
:104EB000CF93DF938091090190910A01892BA1F092
:104EC0008091C8038F5F8093C80381110DC00E9439
:104ED000601590E090930A0180930901892B21F4D9
:104EE0000E9444150E943F126CECE62E65E0F62EFF
:104EF0006701C0E010E007E00C0F8C2F0E94D7156F
:104F0000802F0E94D7158C2F0E942B16F6019191AD
:104F10006F01D0E0891719F031978083D1E0802F9D
:104F20000E942B16F6019681891709F464C08683C6
:104F300081E08D2B182B0E945F11CF5FC730D9F60F
:104F40000E949D166AEF70E00E94F22DB82FA0918A
:104F5000C303AA2309F470C21092C303E091C205EF
:104F6000F091C3054F012EE0820E911C40E00BEF43
:104F70005AEFC52ED12C51915B3F81F0652F70E027
:104F80002B2F392F8517C8F1261B370B2E313105F2
:104F9000D4F19F0121503109E9010883E815F90591
:104FA00051F74093C303111102C0411147C210923F
:104FB000C203A091C205B091C3052091C303EFEDD8
:104FC000F5E04DEE55E090E06191E70139917E0109
:104FD000631741F06C916B3FC1F48C93EF01219703
:104FE000388321E011964E175F0771F72093C303B2
:104FF0009093C20327C280E09CCFE601C61BD70B6B
:105000002C0F3D1FC3CF4A2FC9CF91E0EBCF0197A3
:10501000A109B10930C2840F951FA61FB71F61C235
:10502000109216018092360690923706A0923806AA
:10503000B092390681E080930801F1107CC2809122
:10504000C80583FD78C26091B0057091B10580916B
:10505000B2059091B3050E94AA07823009F4E6C117
:1050600008F0D4C1882309F4D9C1813009F4DBC127
:105070008091170181115FC240E060E00E94BB098E
:105080005AC280910701081316C090913E06937092
:105090002091060130E081E09217130609F480E0C8
:1050A000817080931801063110F5E02FF0E0E05890
:1050B000FE4C0C941A2E81E0F3CF882309F443C0F0
:1050C00080911601C82FCC0FCC0FC80F35E0E32E0E
:1050D000EC0EDE2CE0E3EE1510F420E3D22ED0E04F
:1050E000CD1538F081E09FE2A92EAE1460F580E086
:1050F0002AC020E040E060E0CE010E94BD09219678
:10510000EFCF80911601C82FCC0FCC0FC80FD5E080
:10511000ED2EEC0EDE2C80E3B82EBE1410F4B0E3BE
:10512000DB2E60913F0670914006809141060E94FF
:105130002C0CC62EB72EA82ED0E0CD15C0F081E0E5
:105140003FE23E15A0F2909116019F5F90931601E9
:105150008111EAC182E080930801809118018111D8
:10516000E3C10111E1C183E080930801DDC1FE01CB
:10517000EF58FC4F808190911701892331F02A2D3F
:105180004C2D6B2DCE010E94BD092196D6CF80916A
:105190001601C82FCC0FCC0FC80FA5E0EA2EEC0EDD
:1051A000CE2C80E38E1510F4F0E3CF2EB0904006A5
:1051B000A090410620914206E0E4DE2E3D2D329F74
:1051C000312D1124D32ED0E0CC1530F081E09FE2B8
:1051D0009E1508F0B8CF8BCFFE01EF58FC4F8081B1
:1051E000909117018923B9F0FE01EE0FFF1FEE5ECB
:1051F000FC4F808182958F7060913F068D9D600D80
:1052000011247B2D8A2D0E942C0C462F282F672FCE
:10521000CE010E94BD092196D7CF80911601C82FDB
:10522000CC0FCC0FC80F65E0E62EEC0ECE2CD0E3F1
:10523000DE1510F450E3C52EB0904006A090410654
:105240002091420640E4D42E3D2D329F312D112471
:10525000D32ED0E0CC1508F0B9CFFE01EF58FC4FAB
:105260008081909117018923D9F0FE01EE0FFF1F75
:10527000EF5EFC4F6081D69EB001112435E075953C
:1052800067953A95E1F780913F06680F7B2D8A2D4F
:105290000E942C0C462F282F672FCE010E94BD099B
:1052A0002196D8CF80911601C82FCC0FCC0FC80FF4
:1052B00095E0E92EEC0EDE2CD0E3DE1510F480E351
:1052C000D82EC0903F06D0914006B0904106609124
:1052D00042066695669566958091360690913706EA
:1052E0000E94220C0E94AB0B805887FD8195880F8D
:1052F000282F3B2D239F212D1124822F6C2D7D2FB4
:105300000E942C0CC62EB72EA82ED0E0CD1508F08A
:105310005DCFFE01EF58FC4F8081909117018923EA
:1053200031F02A2D4C2D6B2DCE010E94BD09219606
:10533000EDCF86EB9AE00E94F90D05CF8CE89AE05C
:10534000FACF8DE89BE00E949D0DFDCE8EE69BE09E
:10535000FACF83E59BE00E94200DF5CE87E39BE02A
:10536000FACF8AE89AE0E7CF81E89AE0E4CF88E7CD
:105370009AE0E1CF8FE59AE0DECF81E59AE0EBCFCE
:105380008AEF9BE0E0CF86E29BE0DDCF82E19BE00D
:10539000E2CF84E29AE00E94BE0CD5CE86EF99E07F
:1053A000FACF8FEB99E0F7CF0093070180913E068B
:1053B0008370809306010E945813D5CE4091360623
:1053C0005091370660913806709139062FB7F894DE
:1053D0008091BD059091BE05A091BF05B091C0051B
:1053E0002FBF84179507A607B70760F0841B950B9E
:1053F000A60BB70B4A97A105B10508F495C010920A
:10540000080192C00197A109B109F0CF833089F05A
:10541000843009F02DCE84E090E002C090E080E07E
:105420000E94991088C081E090E0FACF82E090E07D
:10543000F7CF83E090E0F4CF1111B9CD9091C20382
:105440009111B5CD4091C4035091C5036091C6033D
:105450007091C7032FB7F8948091BD059091BE0558
:10546000A091BF05B091C0052FBF84179507A6076F
:10547000B70708F4CCCD841B950BA60BB70B2FB741
:10548000F8948090BD059090BE05A090BF05B090A7
:10549000C0052FBF8092C4039092C503A092C6039B
:1054A000B092C70340913A0650913B0660913C068A
:1054B00070913D064F3FDFEF5D076D077D07C9F037
:1054C000AA27BB276C017D01C094D094E094F0948E
:1054D000C416D506E606F70608F09DCD8FEF9FEFC0
:1054E000DC0180933A0690933B06A0933C06B09370
:1054F0003D06F090070600E0F11008C080913E06DE
:10550000082F037019F0082F069506958091080161
:10551000813009F4B6CD882309F482CD823009F4B4
:1055200043CF833009F44ACFF11005C080910706BC
:10553000882309F484CD812FDF91CF911F910F91A2
:10554000FF90EF90DF90CF90BF90AF909F908F90A3
:105550000895CDB7DEB72A970FB6F894DEBF0FBE19
:10556000CDBF84B7877F84BF0FB6F894A89580918C
:105570006000886180936000109260000FBE80E838
:1055800090E00FB6F89480936100909361000FBE95
:1055900085B7806885BF85B7806885BF0E94BE04D7
:1055A0000E9489058091E20084608093E2007894F3
:1055B00080912C068823A1F01091E9001F70909132
:1055C000EC00892F817090FD80E8182B1092E90083
:1055D0008091E80083FD0E9461171F701093E9001D
:1055E00082E084BD93E095BD9AEF97BD80936E00F5
:1055F0000E94601590E090930A01809309010E9437
:105600005F110E946E11ACECB5E0EFEDF5E0119288
:105610001D9225E0ED3EF207D1F78EE090E00E946A
:1056200014308093C2059093C305FC010E962BEFB6
:105630002193E817F907E1F790E080E00E943E2E01
:105640008F3E9E4F11F00E94BF120E9444158CE0C5
:1056500090E00E94302E90E0B0E0A0E08093C4057E
:105660009093C505A093C605B093C70589EA8093BA
:10567000800089E08093810024982C983F988AB11B
:105680008F7C8AB96E98479A8BB180638BB9769A72
:105690008FE090E00E94382E6093C8057093C90592
:1056A0008093CA059093CB0567708FEF869FB001FA
:1056B000112475956795759567957727709389007F
:1056C0006093880070938B0060938A0070938D00C4
:1056D00060938C009091C80594FF99C08093170146
:1056E0000E943F1290E080E00E943E2E8F3E9E4F2F
:1056F00011F00E94BF1282E090E00E94302E809351
:10570000F7050E9475119093DB058093DA0583E01D
:1057100090E00E94302E682F70E090E080E00E94C0
:1057200042170E94AE090E94AE090E94A4148BE0A9
:1057300091E09093DD058093DC05DD24D394CC24A7
:10574000CA9480E1B82E92E1A92E28E1E22EF12C34
:1057500030E4932E80912C06853009F45BC00E94C2
:105760004E27E8EFF5E0AFEDB5E010E000E0302FB8
:105770008D912191281709F49EC090E0882483948C
:105780002827422F482109F491C099833A83882120
:1057900091E009F490E09B830E949D168160782F30
:1057A0009D838C8349815A816B818D810E948D26D6
:1057B000F801E850FA4F8081882680828091F405B4
:1057C0009091F5050E9480079C019091F305992323
:1057D00019F02431310578F02091EF058090F00523
:1057E0000091F1051091F20521117BC0882D802BCD
:1057F000812B09F0ECC00E9458099091F605891799
:1058000009F4A8CF0E9458098093F605A3CF1092FF
:10581000170166CF0E940D1180912C06843019F17A
:105820001092DE050FB6F894A895E09260000FBEC6
:10583000909260000E940D1183B7817F846083BFC6
:1058400083B7816083BF7894889583B78E7F83BF49
:105850000FB6F894A89580916000886180936000ED
:10586000109260000FBE80912B06882309F472CF3E
:105870000E94601590E090930A01809309010E94B4
:105880005F110E946E11EFEDF5E0119245E0ED3EE3
:10589000F407D9F70E944E27EFEDF5E081918111D1
:1058A00082C085E0ED3EF807C9F754CF9F5F880CB2
:1058B000963009F066CF0F5F1F4F0E30110509F0CB
:1058C00056CFCE82CF8218860E949D168160782F97
:1058D0009A8789874E815F8168858A850E948D2697
:1058E0006DCF9F3F19F09F5F9093F305121624F43C
:1058F0000E94F4068093EF058091EF0587FF05C0B5
:105900000E94F40681958093EF05181424F40E94F8
:10591000F4068093F0058091F00587FF05C00E9492
:10592000F40681958093F0053091EF053323A1F0C3
:105930002091F005222381F045EB3403C0011124AE
:10594000992359F19093EF0545EB2403900111241D
:10595000332331F13093F005101624F40E94D2065F
:105960008093F1058091F10587FF05C00E94D20662
:1059700081958093F105111624F40E94D20680933C
:10598000F2058091F20587FF05C00E94D20681953D
:105990008093F2050E94A9162ECFD092EF05D4CFA6
:1059A000D092F005D9CFB9BCA9BC09B400FEFDCF97
:1059B0008091D8008F7D8093D8008091E000826034
:1059C0008093E0008091E00081FDFCCFC3CE9F3F3B
:1059D00009F089CF9ACF1F921FB61F9211248F937F
:1059E0009F93AF93BF938091DE05811113C0809187
:1059F000BD059091BE05A091BF05B091C00541962F
:105A0000A11DB11D8093BD059093BE05A093BF0558
:105A1000B093C005BF91AF919F918F911F901FBE12
:105A20001F9018951092B9008CE08093B8000895EB
:105A3000EF92FF920F931F93CF93DF93182FEB01F9
:105A40001092BC0084EA8093BC000E949D167C01E9
:105A50008091BC0087FF27C08091B900887F883083
:105A600029F08091B900887F8031D9F51093BB006F
:105A700084E88093BC000E949D168C018091BC003C
:105A800087FF24C02091B900287F90E080E0283172
:105A9000B1F081E090E0203411F490E080E0919545
:105AA000819591090CC0CF3FDC0791F20E949D16B1
:105AB0008E199F098C179D0758F28EEF9FEFDF918B
:105AC000CF911F910F91FF90EF900895CF3FDC078A
:105AD000A9F20E949D16801B910B8C179D0770F2F6
